{
  "abi": [
    {
      "inputs": [
        {
          "internalType": "address",
          "name": "_zero",
          "type": "address"
        },
        {
          "internalType": "address",
          "name": "_snow",
          "type": "address"
        },
        {
          "internalType": "address",
          "name": "_teamWallet",
          "type": "address"
        }
      ],
      "stateMutability": "nonpayable",
      "type": "constructor"
    },
    {
      "anonymous": false,
      "inputs": [
        {
          "indexed": true,
          "internalType": "address",
          "name": "previousOwner",
          "type": "address"
        },
        {
          "indexed": true,
          "internalType": "address",
          "name": "newOwner",
          "type": "address"
        }
      ],
      "name": "GovernanceTransferred",
      "type": "event"
    },
    {
      "anonymous": false,
      "inputs": [
        {
          "indexed": false,
          "internalType": "address",
          "name": "operator",
          "type": "address"
        },
        {
          "indexed": false,
          "internalType": "address",
          "name": "from",
          "type": "address"
        },
        {
          "indexed": false,
          "internalType": "uint256",
          "name": "tokenId",
          "type": "uint256"
        },
        {
          "indexed": false,
          "internalType": "bytes",
          "name": "data",
          "type": "bytes"
        }
      ],
      "name": "NFTReceived",
      "type": "event"
    },
    {
      "anonymous": false,
      "inputs": [
        {
          "indexed": true,
          "internalType": "address",
          "name": "user",
          "type": "address"
        },
        {
          "indexed": false,
          "internalType": "uint256",
          "name": "amount",
          "type": "uint256"
        },
        {
          "indexed": false,
          "internalType": "uint256",
          "name": "types",
          "type": "uint256"
        },
        {
          "indexed": false,
          "internalType": "uint256",
          "name": "skill",
          "type": "uint256"
        }
      ],
      "name": "RemoveNcard",
      "type": "event"
    },
    {
      "anonymous": false,
      "inputs": [
        {
          "indexed": false,
          "internalType": "uint256",
          "name": "reward",
          "type": "uint256"
        }
      ],
      "name": "RewardAdded",
      "type": "event"
    },
    {
      "anonymous": false,
      "inputs": [
        {
          "indexed": true,
          "internalType": "address",
          "name": "user",
          "type": "address"
        },
        {
          "indexed": false,
          "internalType": "uint256",
          "name": "reward",
          "type": "uint256"
        }
      ],
      "name": "RewardPaid",
      "type": "event"
    },
    {
      "anonymous": false,
      "inputs": [
        {
          "indexed": true,
          "internalType": "address",
          "name": "user",
          "type": "address"
        },
        {
          "indexed": false,
          "internalType": "uint256",
          "name": "amount",
          "type": "uint256"
        },
        {
          "indexed": false,
          "internalType": "uint256",
          "name": "types",
          "type": "uint256"
        },
        {
          "indexed": false,
          "internalType": "uint256",
          "name": "skill",
          "type": "uint256"
        }
      ],
      "name": "SetNcard",
      "type": "event"
    },
    {
      "anonymous": false,
      "inputs": [
        {
          "indexed": true,
          "internalType": "address",
          "name": "user",
          "type": "address"
        },
        {
          "indexed": false,
          "internalType": "uint256",
          "name": "amount",
          "type": "uint256"
        }
      ],
      "name": "Staked",
      "type": "event"
    },
    {
      "anonymous": false,
      "inputs": [
        {
          "indexed": true,
          "internalType": "address",
          "name": "user",
          "type": "address"
        },
        {
          "indexed": false,
          "internalType": "uint256",
          "name": "amount",
          "type": "uint256"
        }
      ],
      "name": "Withdraw",
      "type": "event"
    },
    {
      "inputs": [],
      "name": "DURATION",
      "outputs": [
        {
          "internalType": "uint256",
          "name": "",
          "type": "uint256"
        }
      ],
      "stateMutability": "view",
      "type": "function"
    },
    {
      "inputs": [],
      "name": "_baseRate",
      "outputs": [
        {
          "internalType": "uint256",
          "name": "",
          "type": "uint256"
        }
      ],
      "stateMutability": "view",
      "type": "function"
    },
    {
      "inputs": [],
      "name": "_emergencyStop",
      "outputs": [
        {
          "internalType": "bool",
          "name": "",
          "type": "bool"
        }
      ],
      "stateMutability": "view",
      "type": "function"
    },
    {
      "inputs": [],
      "name": "_governance",
      "outputs": [
        {
          "internalType": "address",
          "name": "",
          "type": "address"
        }
      ],
      "stateMutability": "view",
      "type": "function"
    },
    {
      "inputs": [],
      "name": "_hasStart",
      "outputs": [
        {
          "internalType": "bool",
          "name": "",
          "type": "bool"
        }
      ],
      "stateMutability": "view",
      "type": "function"
    },
    {
      "inputs": [],
      "name": "_initChronos",
      "outputs": [
        {
          "internalType": "uint256",
          "name": "",
          "type": "uint256"
        }
      ],
      "stateMutability": "view",
      "type": "function"
    },
    {
      "inputs": [],
      "name": "_initReward",
      "outputs": [
        {
          "internalType": "uint256",
          "name": "",
          "type": "uint256"
        }
      ],
      "stateMutability": "view",
      "type": "function"
    },
    {
      "inputs": [],
      "name": "_lastUpdateTime",
      "outputs": [
        {
          "internalType": "uint256",
          "name": "",
          "type": "uint256"
        }
      ],
      "stateMutability": "view",
      "type": "function"
    },
    {
      "inputs": [
        {
          "internalType": "uint256",
          "name": "",
          "type": "uint256"
        }
      ],
      "name": "_maxChronos",
      "outputs": [
        {
          "internalType": "uint256",
          "name": "",
          "type": "uint256"
        }
      ],
      "stateMutability": "view",
      "type": "function"
    },
    {
      "inputs": [],
      "name": "_nullCardFactory",
      "outputs": [
        {
          "internalType": "contract INullCardFactory",
          "name": "",
          "type": "address"
        }
      ],
      "stateMutability": "view",
      "type": "function"
    },
    {
      "inputs": [],
      "name": "_nullCardToken",
      "outputs": [
        {
          "internalType": "contract INullCardToken",
          "name": "",
          "type": "address"
        }
      ],
      "stateMutability": "view",
      "type": "function"
    },
    {
      "inputs": [],
      "name": "_periodFinish",
      "outputs": [
        {
          "internalType": "uint256",
          "name": "",
          "type": "uint256"
        }
      ],
      "stateMutability": "view",
      "type": "function"
    },
    {
      "inputs": [],
      "name": "_rewardPerTokenStored",
      "outputs": [
        {
          "internalType": "uint256",
          "name": "",
          "type": "uint256"
        }
      ],
      "stateMutability": "view",
      "type": "function"
    },
    {
      "inputs": [],
      "name": "_rewardRate",
      "outputs": [
        {
          "internalType": "uint256",
          "name": "",
          "type": "uint256"
        }
      ],
      "stateMutability": "view",
      "type": "function"
    },
    {
      "inputs": [],
      "name": "_rule",
      "outputs": [
        {
          "internalType": "uint8",
          "name": "",
          "type": "uint8"
        }
      ],
      "stateMutability": "view",
      "type": "function"
    },
    {
      "inputs": [],
      "name": "_startTime",
      "outputs": [
        {
          "internalType": "uint256",
          "name": "",
          "type": "uint256"
        }
      ],
      "stateMutability": "view",
      "type": "function"
    },
    {
      "inputs": [],
      "name": "_stepChronos",
      "outputs": [
        {
          "internalType": "uint256",
          "name": "",
          "type": "uint256"
        }
      ],
      "stateMutability": "view",
      "type": "function"
    },
    {
      "inputs": [],
      "name": "_stop",
      "outputs": [
        {
          "internalType": "bool",
          "name": "",
          "type": "bool"
        }
      ],
      "stateMutability": "view",
      "type": "function"
    },
    {
      "inputs": [],
      "name": "_teamRewardRate",
      "outputs": [
        {
          "internalType": "uint256",
          "name": "",
          "type": "uint256"
        }
      ],
      "stateMutability": "view",
      "type": "function"
    },
    {
      "inputs": [],
      "name": "_totalSkills",
      "outputs": [
        {
          "internalType": "uint256",
          "name": "",
          "type": "uint256"
        }
      ],
      "stateMutability": "view",
      "type": "function"
    },
    {
      "inputs": [
        {
          "internalType": "address",
          "name": "account",
          "type": "address"
        }
      ],
      "name": "balanceOf",
      "outputs": [
        {
          "internalType": "uint256",
          "name": "",
          "type": "uint256"
        }
      ],
      "stateMutability": "view",
      "type": "function"
    },
    {
      "inputs": [],
      "name": "burnPool",
      "outputs": [
        {
          "internalType": "address",
          "name": "",
          "type": "address"
        }
      ],
      "stateMutability": "view",
      "type": "function"
    },
    {
      "inputs": [],
      "name": "contractCaller",
      "outputs": [
        {
          "internalType": "address",
          "name": "",
          "type": "address"
        }
      ],
      "stateMutability": "view",
      "type": "function"
    },
    {
      "inputs": [],
      "name": "dividendPool",
      "outputs": [
        {
          "internalType": "address",
          "name": "",
          "type": "address"
        }
      ],
      "stateMutability": "view",
      "type": "function"
    },
    {
      "inputs": [
        {
          "internalType": "address",
          "name": "account",
          "type": "address"
        }
      ],
      "name": "earned",
      "outputs": [
        {
          "internalType": "uint256",
          "name": "",
          "type": "uint256"
        }
      ],
      "stateMutability": "view",
      "type": "function"
    },
    {
      "inputs": [],
      "name": "emergencyWithdraw",
      "outputs": [],
      "stateMutability": "nonpayable",
      "type": "function"
    },
    {
      "inputs": [
        {
          "internalType": "uint256",
          "name": "amount",
          "type": "uint256"
        }
      ],
      "name": "exit",
      "outputs": [],
      "stateMutability": "nonpayable",
      "type": "function"
    },
    {
      "inputs": [],
      "name": "feeBurnRate",
      "outputs": [
        {
          "internalType": "uint256",
          "name": "",
          "type": "uint256"
        }
      ],
      "stateMutability": "view",
      "type": "function"
    },
    {
      "inputs": [],
      "name": "feeRewardRate",
      "outputs": [
        {
          "internalType": "uint256",
          "name": "",
          "type": "uint256"
        }
      ],
      "stateMutability": "view",
      "type": "function"
    },
    {
      "inputs": [
        {
          "internalType": "address",
          "name": "account",
          "type": "address"
        },
        {
          "internalType": "uint8",
          "name": "types",
          "type": "uint8"
        }
      ],
      "name": "getNcardRate",
      "outputs": [
        {
          "internalType": "uint256",
          "name": "",
          "type": "uint256"
        }
      ],
      "stateMutability": "view",
      "type": "function"
    },
    {
      "inputs": [],
      "name": "getReward",
      "outputs": [],
      "stateMutability": "nonpayable",
      "type": "function"
    },
    {
      "inputs": [
        {
          "internalType": "address",
          "name": "account",
          "type": "address"
        }
      ],
      "name": "getSkills",
      "outputs": [
        {
          "internalType": "uint256",
          "name": "",
          "type": "uint256"
        }
      ],
      "stateMutability": "view",
      "type": "function"
    },
    {
      "inputs": [
        {
          "internalType": "address",
          "name": "account",
          "type": "address"
        },
        {
          "internalType": "uint8",
          "name": "types",
          "type": "uint8"
        }
      ],
      "name": "getSkillsOfNcard",
      "outputs": [
        {
          "internalType": "uint256",
          "name": "",
          "type": "uint256"
        }
      ],
      "stateMutability": "view",
      "type": "function"
    },
    {
      "inputs": [],
      "name": "lastTimeRewardApplicable",
      "outputs": [
        {
          "internalType": "uint256",
          "name": "",
          "type": "uint256"
        }
      ],
      "stateMutability": "view",
      "type": "function"
    },
    {
      "inputs": [
        {
          "internalType": "address",
          "name": "",
          "type": "address"
        },
        {
          "internalType": "uint8",
          "name": "",
          "type": "uint8"
        }
      ],
      "name": "nCard",
      "outputs": [
        {
          "internalType": "uint256",
          "name": "tokenIndex",
          "type": "uint256"
        },
        {
          "internalType": "uint256",
          "name": "skills",
          "type": "uint256"
        },
        {
          "internalType": "uint256",
          "name": "timeStamp",
          "type": "uint256"
        }
      ],
      "stateMutability": "view",
      "type": "function"
    },
    {
      "inputs": [
        {
          "internalType": "address",
          "name": "operator",
          "type": "address"
        },
        {
          "internalType": "address",
          "name": "from",
          "type": "address"
        },
        {
          "internalType": "uint256",
          "name": "tokenId",
          "type": "uint256"
        },
        {
          "internalType": "bytes",
          "name": "data",
          "type": "bytes"
        }
      ],
      "name": "onERC721Received",
      "outputs": [
        {
          "internalType": "bytes4",
          "name": "",
          "type": "bytes4"
        }
      ],
      "stateMutability": "nonpayable",
      "type": "function"
    },
    {
      "inputs": [
        {
          "internalType": "uint256",
          "name": "nftId",
          "type": "uint256"
        }
      ],
      "name": "removeNcard",
      "outputs": [],
      "stateMutability": "nonpayable",
      "type": "function"
    },
    {
      "inputs": [],
      "name": "rewardPerToken",
      "outputs": [
        {
          "internalType": "uint256",
          "name": "",
          "type": "uint256"
        }
      ],
      "stateMutability": "view",
      "type": "function"
    },
    {
      "inputs": [
        {
          "internalType": "contract IERC20",
          "name": "token",
          "type": "address"
        },
        {
          "internalType": "uint256",
          "name": "amount",
          "type": "uint256"
        }
      ],
      "name": "seize",
      "outputs": [],
      "stateMutability": "nonpayable",
      "type": "function"
    },
    {
      "inputs": [
        {
          "internalType": "address",
          "name": "_contractCaller",
          "type": "address"
        }
      ],
      "name": "setCaller",
      "outputs": [],
      "stateMutability": "nonpayable",
      "type": "function"
    },
    {
      "inputs": [
        {
          "internalType": "address",
          "name": "_dividendPool",
          "type": "address"
        }
      ],
      "name": "setDividendPool",
      "outputs": [],
      "stateMutability": "nonpayable",
      "type": "function"
    },
    {
      "inputs": [
        {
          "internalType": "bool",
          "name": "stop",
          "type": "bool"
        },
        {
          "internalType": "uint256",
          "name": "rewardRate",
          "type": "uint256"
        },
        {
          "internalType": "bool",
          "name": "stopStake",
          "type": "bool"
        }
      ],
      "name": "setEmergencyStop",
      "outputs": [],
      "stateMutability": "nonpayable",
      "type": "function"
    },
    {
      "inputs": [
        {
          "internalType": "uint256",
          "name": "_feeReward",
          "type": "uint256"
        },
        {
          "internalType": "uint256",
          "name": "_feeBurn",
          "type": "uint256"
        }
      ],
      "name": "setFee",
      "outputs": [],
      "stateMutability": "nonpayable",
      "type": "function"
    },
    {
      "inputs": [
        {
          "internalType": "address",
          "name": "governance",
          "type": "address"
        }
      ],
      "name": "setGovernance",
      "outputs": [],
      "stateMutability": "nonpayable",
      "type": "function"
    },
    {
      "inputs": [
        {
          "internalType": "uint256",
          "name": "initChronos",
          "type": "uint256"
        }
      ],
      "name": "setInitChronos",
      "outputs": [],
      "stateMutability": "nonpayable",
      "type": "function"
    },
    {
      "inputs": [
        {
          "internalType": "uint256",
          "name": "initReward",
          "type": "uint256"
        }
      ],
      "name": "setInitReward",
      "outputs": [],
      "stateMutability": "nonpayable",
      "type": "function"
    },
    {
      "inputs": [
        {
          "internalType": "uint256",
          "name": "lastUpdateTime",
          "type": "uint256"
        },
        {
          "internalType": "uint256",
          "name": "rewardPerTokenStored",
          "type": "uint256"
        },
        {
          "internalType": "uint256",
          "name": "startTime",
          "type": "uint256"
        },
        {
          "internalType": "uint256",
          "name": "initReward",
          "type": "uint256"
        }
      ],
      "name": "setInitValue",
      "outputs": [],
      "stateMutability": "nonpayable",
      "type": "function"
    },
    {
      "inputs": [
        {
          "internalType": "uint256",
          "name": "nftId",
          "type": "uint256"
        }
      ],
      "name": "setNcard",
      "outputs": [],
      "stateMutability": "nonpayable",
      "type": "function"
    },
    {
      "inputs": [
        {
          "internalType": "contract INullCardToken",
          "name": "nullCardToken",
          "type": "address"
        },
        {
          "internalType": "contract INullCardFactory",
          "name": "nullCardFactory",
          "type": "address"
        }
      ],
      "name": "setNft",
      "outputs": [],
      "stateMutability": "nonpayable",
      "type": "function"
    },
    {
      "inputs": [
        {
          "internalType": "uint256",
          "name": "amount",
          "type": "uint256"
        },
        {
          "internalType": "address",
          "name": "account",
          "type": "address"
        }
      ],
      "name": "setStake",
      "outputs": [],
      "stateMutability": "nonpayable",
      "type": "function"
    },
    {
      "inputs": [
        {
          "internalType": "uint256",
          "name": "stepChronos",
          "type": "uint256"
        }
      ],
      "name": "setStepChronos",
      "outputs": [],
      "stateMutability": "nonpayable",
      "type": "function"
    },
    {
      "inputs": [
        {
          "internalType": "uint256",
          "name": "teamRewardRate",
          "type": "uint256"
        }
      ],
      "name": "setTeamRewardRate",
      "outputs": [],
      "stateMutability": "nonpayable",
      "type": "function"
    },
    {
      "inputs": [
        {
          "internalType": "address",
          "name": "addressUser",
          "type": "address"
        },
        {
          "internalType": "uint256",
          "name": "userRewardPerTokenPaidOld",
          "type": "uint256"
        },
        {
          "internalType": "uint256",
          "name": "rewardsOld",
          "type": "uint256"
        },
        {
          "internalType": "uint256",
          "name": "currentChronosOld",
          "type": "uint256"
        },
        {
          "internalType": "uint256",
          "name": "currentSkillsOld",
          "type": "uint256"
        },
        {
          "internalType": "uint256",
          "name": "timeStampOld",
          "type": "uint256"
        },
        {
          "internalType": "uint256",
          "name": "amountOld",
          "type": "uint256"
        }
      ],
      "name": "setUser",
      "outputs": [],
      "stateMutability": "nonpayable",
      "type": "function"
    },
    {
      "inputs": [],
      "name": "snow",
      "outputs": [
        {
          "internalType": "contract IERC20",
          "name": "",
          "type": "address"
        }
      ],
      "stateMutability": "view",
      "type": "function"
    },
    {
      "inputs": [
        {
          "internalType": "uint256",
          "name": "amount",
          "type": "uint256"
        }
      ],
      "name": "stake",
      "outputs": [],
      "stateMutability": "nonpayable",
      "type": "function"
    },
    {
      "inputs": [],
      "name": "teamWallet",
      "outputs": [
        {
          "internalType": "address",
          "name": "",
          "type": "address"
        }
      ],
      "stateMutability": "view",
      "type": "function"
    },
    {
      "inputs": [],
      "name": "totalSupply",
      "outputs": [
        {
          "internalType": "uint256",
          "name": "",
          "type": "uint256"
        }
      ],
      "stateMutability": "view",
      "type": "function"
    },
    {
      "inputs": [
        {
          "internalType": "address",
          "name": "account",
          "type": "address"
        }
      ],
      "name": "updateChronos",
      "outputs": [],
      "stateMutability": "nonpayable",
      "type": "function"
    },
    {
      "inputs": [
        {
          "internalType": "address",
          "name": "",
          "type": "address"
        }
      ],
      "name": "userInfo",
      "outputs": [
        {
          "internalType": "uint256",
          "name": "userRewardPerTokenPaid",
          "type": "uint256"
        },
        {
          "internalType": "uint256",
          "name": "rewards",
          "type": "uint256"
        },
        {
          "internalType": "uint256",
          "name": "currentChronos",
          "type": "uint256"
        },
        {
          "internalType": "uint256",
          "name": "currentSkills",
          "type": "uint256"
        },
        {
          "internalType": "uint256",
          "name": "timeStamp",
          "type": "uint256"
        }
      ],
      "stateMutability": "view",
      "type": "function"
    },
    {
      "inputs": [
        {
          "internalType": "uint256",
          "name": "amount",
          "type": "uint256"
        }
      ],
      "name": "withdraw",
      "outputs": [],
      "stateMutability": "nonpayable",
      "type": "function"
    },
    {
      "inputs": [],
      "name": "zero",
      "outputs": [
        {
          "internalType": "contract IERC20",
          "name": "",
          "type": "address"
        }
      ],
      "stateMutability": "view",
      "type": "function"
    }
  ],
  "evm": {
    "bytecode": {
      "linkReferences": {},
      "object": "600580546001600160a01b03199081169091556006805482169055600880549091167369696969696969696969696969696969696969691790556000600a8190556301e133804201600b55600c819055600d5560e06040526060608090815260b360a052601f60c0526200007890601090600362000138565b5060316013556003601455600b601555600e601755600060185560fa6019819055601a55601c80546001600160b81b0319169055348015620000b957600080fd5b50604051620032063803806200320683398181016040526060811015620000df57600080fd5b508051602082015160409092015160008054336001600160a01b0319918216179091556003805482166001600160a01b039485161790556004805482169484169490941790935560078054909316911617905562000197565b82600381019282156200016e579160200282015b828111156200016e578251829060ff169055916020019190600101906200014c565b506200017c92915062000180565b5090565b5b808211156200017c576000815560010162000181565b61305f80620001a76000396000f3fe608060405234801561001057600080fd5b50600436106103ae5760003560e01c80637a97fc4a116101f4578063bc1b392d1161011a578063e45a98dd116100ad578063ed6525c41161007c578063ed6525c414610a20578063f3c5fa3714610a28578063fa1acb5c14610a57578063ffd832c114610a5f576103ae565b8063e45a98dd146109a9578063e63a06d5146109b1578063eb9253c0146109d7578063ebfc5a9914610a03576103ae565b8063c556017b116100e9578063c556017b14610962578063cd3daf9d1461096a578063db2e21bc14610972578063de7c0e171461097a576103ae565b8063bc1b392d1461090f578063be8343ab14610917578063beb92f551461091f578063bf9d407514610945576103ae565b8063a032519111610192578063ab033ea911610161578063ab033ea914610882578063abb353a4146108a8578063b15706ab146108d5578063ba9467c1146108f2576103ae565b8063a03251911461082f578063a54b2a7314610837578063a694fc3a1461083f578063a7bd3e9d1461085c576103ae565b806380faa57d116101ce57806380faa57d146107f157806390b5bb88146107f9578063927b26b91461081f578063975097fe14610827576103ae565b80637a97fc4a146107af5780637aae690a146107b75780637f8661a1146107d4576103ae565b806339d4b373116102d957806359927044116102775780636adafab5116102465780636adafab51461074a5780636d1a505b1461075257806370a082311461075a578063747cef2214610780576103ae565b8063599270441461070157806364c2a9a514610709578063686127821461072657806368fd25cd14610742576103ae565b80634436153e116102b35780634436153e146106c657806352f7c988146106ce57806354cf428a146106f15780635941b3d8146106f9576103ae565b806339d4b373146106695780633a2b9626146106b65780633d18b912146106be576103ae565b806318160ddd116103515780631e830f88116103205780631e830f88146105ea578063224961bb146106185780632e1a7d4d1461064457806330d172d514610661576103ae565b806318160ddd146105655780631959a0021461056d5780631be05289146105be5780631c2f3e3d146105c6576103ae565b8063121544b91161038d578063121544b91461045457806313a73ee61461045c5780631407c6641461047a578063150b7a0214610482576103ae565b80628cc262146103b35780630381a212146103eb5780630ba86f0514610437575b600080fd5b6103d9600480360360208110156103c957600080fd5b50356001600160a01b0316610a67565b60408051918252519081900360200190f35b610435600480360360e081101561040157600080fd5b506001600160a01b038135169060208101359060408101359060608101359060808101359060a08101359060c00135610ad1565b005b6104356004803603602081101561044d57600080fd5b5035610b9e565b6103d9610bf3565b610464610bf9565b6040805160ff9092168252519081900360200190f35b6103d9610bfe565b6105486004803603608081101561049857600080fd5b6001600160a01b038235811692602081013590911691604082013591908101906080810160608201356401000000008111156104d357600080fd5b8201836020820111156104e557600080fd5b8035906020019184600183028401116401000000008311171561050757600080fd5b91908080601f016020809104026020016040519081016040528093929190818152602001838380828437600092019190915250929550610c04945050505050565b604080516001600160e01b03199092168252519081900360200190f35b6103d9610d07565b6105936004803603602081101561058357600080fd5b50356001600160a01b0316610d0e565b6040805195865260208601949094528484019290925260608401526080830152519081900360a00190f35b6103d9610d3d565b6105ce610d44565b604080516001600160a01b039092168252519081900360200190f35b6104356004803603604081101561060057600080fd5b506001600160a01b0381358116916020013516610d53565b6104356004803603604081101561062e57600080fd5b50803590602001356001600160a01b0316610dd1565b6104356004803603602081101561065a57600080fd5b5035610e38565b6105ce6111ec565b6106986004803603604081101561067f57600080fd5b5080356001600160a01b0316906020013560ff166111fb565b60408051938452602084019290925282820152519081900360600190f35b6105ce611227565b610435611236565b6103d9611593565b610435600480360360408110156106e457600080fd5b5080359060200135611599565b6105ce6115f4565b6105ce61160a565b6105ce611619565b6104356004803603602081101561071f57600080fd5b5035611628565b61072e61167d565b604080519115158252519081900360200190f35b6103d961168c565b6103d9611692565b6103d9611698565b6103d96004803603602081101561077057600080fd5b50356001600160a01b031661169e565b6103d96004803603604081101561079657600080fd5b5080356001600160a01b0316906020013560ff166116b9565b6103d9611788565b610435600480360360208110156107cd57600080fd5b503561178e565b610435600480360360208110156107ea57600080fd5b50356117e3565b6103d96117f7565b6104356004803603602081101561080f57600080fd5b50356001600160a01b031661180a565b6103d96119f9565b6105ce6119ff565b6103d9611a0e565b6105ce611a14565b6104356004803603602081101561085557600080fd5b5035611a23565b6104356004803603602081101561087257600080fd5b50356001600160a01b0316611e94565b6104356004803603602081101561089857600080fd5b50356001600160a01b0316611f06565b610435600480360360608110156108be57600080fd5b50803515159060208101359060400135151561200c565b6103d9600480360360208110156108eb57600080fd5b503561208e565b6104356004803603602081101561090857600080fd5b50356120a2565b6105ce6122a8565b61072e6122b7565b6104356004803603602081101561093557600080fd5b50356001600160a01b03166122c5565b6104356004803603602081101561095b57600080fd5b5035612341565b6103d9612651565b6103d9612657565b6104356126b3565b6103d96004803603604081101561099057600080fd5b5080356001600160a01b0316906020013560ff166126c6565b61072e61273c565b6103d9600480360360208110156109c757600080fd5b50356001600160a01b0316612745565b610435600480360360408110156109ed57600080fd5b506001600160a01b038135169060200135612763565b61043560048036036020811015610a1957600080fd5b50356127cd565b6103d9612822565b61043560048036036080811015610a3e57600080fd5b5080359060208101359060408101359060600135612828565b6103d9612895565b6103d961289b565b6001600160a01b038116600090815260166020526040812060018101549054610acb9190610ac590683635c9adc5dea0000090610abf90610ab090610aaa612657565b906128a1565b610ab988612745565b906128e3565b9061293c565b9061297e565b92915050565b601c54630100000090046001600160a01b03163314610b2a576040805162461bcd60e51b815260206004820152601060248201526f696e76616c696420616464726573732160801b604482015290519081900360640190fd5b6001600160a01b0387166000908152601660205260409020868155600181018690556002810185905560038101849055600401829055610b6a8188610dd1565b6001600160a01b038716600090815260166020526040902060030154601854610b929161297e565b60185550505050505050565b6000546001600160a01b03163314610bee576040805162461bcd60e51b815260206004820152600e60248201526d6e6f7420676f7665726e616e636560901b604482015290519081900360640190fd5b601455565b600f5481565b600181565b600c5481565b601c5460009060ff16610c1957506000610cff565b7f1d823cdc8f0514a95b53538df2d2f3deaf98d1c534c6e750daa593173c27f8f08585858560405180856001600160a01b03168152602001846001600160a01b0316815260200183815260200180602001828103825283818151815260200191508051906020019080838360005b83811015610c9f578181015183820152602001610c87565b50505050905090810190601f168015610ccc5780820380516001836020036101000a031916815260200191505b509550505050505060405180910390a1507f150b7a023d4804d13e8c85fb27262cb750cf6ba9f9dd3bb30d90f482ceeb4b1f5b949350505050565b6001545b90565b601660205260009081526040902080546001820154600283015460038401546004909401549293919290919085565b6212750081565b6000546001600160a01b031681565b6000546001600160a01b03163314610da3576040805162461bcd60e51b815260206004820152600e60248201526d6e6f7420676f7665726e616e636560901b604482015290519081900360640190fd5b600680546001600160a01b039384166001600160a01b03199182161790915560058054929093169116179055565b601c54630100000090046001600160a01b03163314610e2a576040805162461bcd60e51b815260206004820152601060248201526f696e76616c696420616464726573732160801b604482015290519081900360640190fd5b610e3482826129d8565b5050565b33610e41612657565b600f55610e4c6117f7565b600e556001600160a01b03811615610e8d57610e6781610a67565b6001600160a01b03821660009081526016602052604090206001810191909155600f5490555b600c544210158015610ead5750601c5462010000900460ff161515600114155b1561100457600354600954604080516370a0823160e01b81526001600160a01b0392831660048201529051600093610f4693606493610abf9360329392909216916370a0823191602480820192602092909190829003018186803b158015610f1457600080fd5b505afa158015610f28573d6000803e3d6000fd5b505050506040513d6020811015610f3e57600080fd5b5051906128e3565b90506000610f65612710610abf601a54856128e390919063ffffffff16565b90506000610f84612710610abf601954866128e390919063ffffffff16565b90506000610f9683610aaa86856128a1565b600954600354919250610fb7916001600160a01b0390811691163087612a28565b600a819055610fc9816212750061293c565b600d55610fd9426212750061297e565b600c55600a546040805191825251600080516020612fbf8339815191529181900360200190a1505050505b600b544211611046576040805162461bcd60e51b81526020600482015260096024820152681b9bdd081cdd185c9d60ba1b604482015290519081900360640190fd5b6000821161108f576040805162461bcd60e51b8152602060048201526011602482015270043616e6e6f74207769746864726177203607c1b604482015290519081900360640190fd5b60048054604080516370a0823160e01b815233938101939093525184926001600160a01b03909216916370a08231916024808301926020929190829003018186803b1580156110dd57600080fd5b505afa1580156110f1573d6000803e3d6000fd5b505050506040513d602081101561110757600080fd5b5051101561111457600080fd5b61111d82612a82565b600354611134906001600160a01b03163384612b00565b600854600454611153916001600160a01b039182169133911685612a28565b33600090815260166020526040902060030154601854611172916128a1565b60185560006111823360016126c6565b905061118f334283612b57565b336000908152601660205260409020600301546018546111ae9161297e565b60185560408051848152905133917f884edad9ce6fa2440d8a54cc123490eb96d2768479d49ff9c7366125a9424364919081900360200190a2505050565b6009546001600160a01b031681565b601b60209081526000928352604080842090915290825290208054600182015460029092015490919083565b6004546001600160a01b031681565b3361123f612657565b600f5561124a6117f7565b600e556001600160a01b0381161561128b5761126581610a67565b6001600160a01b03821660009081526016602052604090206001810191909155600f5490555b600c5442101580156112ab5750601c5462010000900460ff161515600114155b156113d057600354600954604080516370a0823160e01b81526001600160a01b039283166004820152905160009361131293606493610abf9360329392909216916370a0823191602480820192602092909190829003018186803b158015610f1457600080fd5b90506000611331612710610abf601a54856128e390919063ffffffff16565b90506000611350612710610abf601954866128e390919063ffffffff16565b9050600061136283610aaa86856128a1565b600954600354919250611383916001600160a01b0390811691163087612a28565b600a819055611395816212750061293c565b600d556113a5426212750061297e565b600c55600a546040805191825251600080516020612fbf8339815191529181900360200190a1505050505b600b544211611412576040805162461bcd60e51b81526020600482015260096024820152681b9bdd081cdd185c9d60ba1b604482015290519081900360640190fd5b601c5462010000900460ff1615156001141561146a576040805162461bcd60e51b81526020600482015260126024820152711c995dd85c99081a185cc81cdd1bdc1c195960721b604482015290519081900360640190fd5b600061147533610a67565b90508015610e34573360009081526016602052604081206001018190556015546014546114a89190610abf9085906128e3565b905080156114cd576007546003546114cd916001600160a01b03918216911683612b00565b60006114d983836128a1565b905080156114f8576003546114f8906001600160a01b03163383612b00565b33600090815260166020526040902060030154601854611517916128a1565b60185560006115273360016126c6565b9050611534334283612b57565b336000908152601660205260409020600301546018546115539161297e565b60185560408051858152905133917fe2403640ba68fed3a2f88b7557551d1993f84b99bb10ff833f0cf8db0c5e0486919081900360200190a25050505050565b60135481565b6000546001600160a01b031633146115e9576040805162461bcd60e51b815260206004820152600e60248201526d6e6f7420676f7665726e616e636560901b604482015290519081900360640190fd5b601991909155601a55565b601c54630100000090046001600160a01b031681565b6005546001600160a01b031681565b6007546001600160a01b031681565b6000546001600160a01b03163314611678576040805162461bcd60e51b815260206004820152600e60248201526d6e6f7420676f7665726e616e636560901b604482015290519081900360640190fd5b601755565b601c5462010000900460ff1681565b600d5481565b600e5481565b60185481565b6001600160a01b031660009081526002602052604090205490565b6001600160a01b0382166000908152601b6020908152604080832060ff851684529091528120541580159061172857506001600160a01b0383166000908152601b6020908152604080832060ff861684529091528120600201546117269061708090610abf9042906128a1565b115b1561177f578160ff166003148061174257508160ff166001145b1561174f57506000610acb565b506001600160a01b0382166000908152601b6020908152604080832060ff85168452909152902060010154610acb565b50600092915050565b60195481565b6000546001600160a01b031633146117de576040805162461bcd60e51b815260206004820152600e60248201526d6e6f7420676f7665726e616e636560901b604482015290519081900360640190fd5b600a55565b6117ec81610e38565b6117f4611236565b50565b600061180542600c54612bad565b905090565b80611813612657565b600f5561181e6117f7565b600e556001600160a01b0381161561185f5761183981610a67565b6001600160a01b03821660009081526016602052604090206001810191909155600f5490555b6001600160a01b03821660009081526016602052604081206004015461188e9061708090610abf9042906128a1565b9050600061189d8460036126c6565b905081156119f3576001600160a01b0384166000908152601660205260409020600301546018546118cd916128a1565b6018556001600160a01b038416600090815260166020526040812060029081015491906118fb9087906126c6565b905060005b848160ff16101561193e5761192461191d6064610abf85876128e3565b849061297e565b9250828410156119365783925061193e565b600101611900565b506001600160a01b03861660009081526016602052604090206002018290556119706119698761169e565b83906128e3565b6001600160a01b0387166000908152601660205260409020600301556119bd61199b856170806128e3565b6001600160a01b0388166000908152601660205260409020600401549061297e565b6001600160a01b03871660009081526016602052604090206004810191909155600301546018546119ed9161297e565b60185550505b50505050565b60155481565b6006546001600160a01b031681565b60175481565b6008546001600160a01b031681565b33611a2c612657565b600f55611a376117f7565b600e556001600160a01b03811615611a7857611a5281610a67565b6001600160a01b03821660009081526016602052604090206001810191909155600f5490555b600c544210158015611a985750601c5462010000900460ff161515600114155b15611bbd57600354600954604080516370a0823160e01b81526001600160a01b0392831660048201529051600093611aff93606493610abf9360329392909216916370a0823191602480820192602092909190829003018186803b158015610f1457600080fd5b90506000611b1e612710610abf601a54856128e390919063ffffffff16565b90506000611b3d612710610abf601954866128e390919063ffffffff16565b90506000611b4f83610aaa86856128a1565b600954600354919250611b70916001600160a01b0390811691163087612a28565b600a819055611b82816212750061293c565b600d55611b92426212750061297e565b600c55600a546040805191825251600080516020612fbf8339815191529181900360200190a1505050505b600b544211611bff576040805162461bcd60e51b81526020600482015260096024820152681b9bdd081cdd185c9d60ba1b604482015290519081900360640190fd5b601c5460ff61010090910416151560011415611c4b576040805162461bcd60e51b81526020600480830191909152602482015263073746f760e41b604482015290519081900360640190fd5b60008211611c91576040805162461bcd60e51b815260206004820152600e60248201526d043616e6e6f74207374616b6520360941b604482015290519081900360640190fd5b6000611c9c3361169e565b90506000611cbb612710610abf601a54876128e390919063ffffffff16565b90506000611cda612710610abf601954886128e390919063ffffffff16565b90506000611cec83610aaa88856128a1565b9050611cf781612bc3565b600354611d0f906001600160a01b0316333089612a28565b60048054604080516340c10f1960e01b8152339381019390935260248301849052516001600160a01b03909116916340c10f1991604480830192600092919082900301818387803b158015611d6357600080fd5b505af1158015611d77573d6000803e3d6000fd5b505050506000611d883360016126c6565b905084611dbe576000611d9b83836128e3565b9050611da8334284612b57565b601854611db5908261297e565b60185550611e55565b33600090815260166020526040902060030154601854611ddd916128a1565b6018556000611e0c611def84846128e3565b33600090815260166020526040902060020154610ac590896128e3565b90506000611e23611e1c3361169e565b839061293c565b9050611e30334283612b57565b33600090815260166020526040902060030154601854611e4f9161297e565b60185550505b60408051888152905133917f9e71bc8eea02a63969f509818f2dafb9254532904319f9dbda79b67bd34a5f3d919081900360200190a250505050505050565b6000546001600160a01b03163314611ee4576040805162461bcd60e51b815260206004820152600e60248201526d6e6f7420676f7665726e616e636560901b604482015290519081900360640190fd5b600980546001600160a01b0319166001600160a01b0392909216919091179055565b6000546001600160a01b03163314611f56576040805162461bcd60e51b815260206004820152600e60248201526d6e6f7420676f7665726e616e636560901b604482015290519081900360640190fd5b6001600160a01b038116611fb1576040805162461bcd60e51b815260206004820152601f60248201527f6e657720676f7665726e616e636520746865207a65726f206164647265737300604482015290519081900360640190fd5b600080546040516001600160a01b03808516939216917f5f56bee8cffbe9a78652a74a60705edede02af10b0bbb888ca44b79a0d42ce8091a3600080546001600160a01b0319166001600160a01b0392909216919091179055565b6000546001600160a01b0316331461205c576040805162461bcd60e51b815260206004820152600e60248201526d6e6f7420676f7665726e616e636560901b604482015290519081900360640190fd5b601c8054600d939093559015156101000261ff0019931515620100000262ff0000199093169290921792909216179055565b6010816003811061209b57fe5b0154905081565b6005546001600160a01b0316158015906120c657506006546001600160a01b031615155b612100576040805162461bcd60e51b81526020600482015260066024820152651b9bc813919560d21b604482015290519081900360640190fd5b600b544211612142576040805162461bcd60e51b81526020600482015260096024820152681b9bdd081cdd185c9d60ba1b604482015290519081900360640190fd5b600554604080516305071f2560e51b815260048101849052815160009384936001600160a01b039091169263a0e3e4a09260248083019392829003018186803b15801561218e57600080fd5b505afa1580156121a2573d6000803e3d6000fd5b505050506040513d60408110156121b857600080fd5b508051602091820151336000818152601b8552604080822060ff86168352909552848120818155600181018290556002018190556006548551632142170760e11b815230600482015260248101939093526044830189905294519396509194506001600160a01b03909316926342842e0e926064808301939282900301818387803b15801561224657600080fd5b505af115801561225a573d6000803e3d6000fd5b50506040805186815260ff8616602082015280820185905290513393507f8879b57f28b5a3495ebeefa33f2099ba45a5eae291a22b161edc2f96e51a565092509081900360600190a2505050565b6003546001600160a01b031681565b601c54610100900460ff1681565b6000546001600160a01b03163314612315576040805162461bcd60e51b815260206004820152600e60248201526d6e6f7420676f7665726e616e636560901b604482015290519081900360640190fd5b601c80546001600160a01b039092166301000000026301000000600160b81b0319909216919091179055565b6005546001600160a01b03161580159061236557506006546001600160a01b031615155b61239f576040805162461bcd60e51b81526020600482015260066024820152651b9bc813919560d21b604482015290519081900360640190fd5b600b5442116123e1576040805162461bcd60e51b81526020600482015260096024820152681b9bdd081cdd185c9d60ba1b604482015290519081900360640190fd5b600554604080516305071f2560e51b815260048101849052815160009384936001600160a01b039091169263a0e3e4a09260248083019392829003018186803b15801561242d57600080fd5b505afa158015612441573d6000803e3d6000fd5b505050506040513d604081101561245757600080fd5b5080516020909101519092509050600360ff8316148061247a57508160ff166001145b156124be576040805162461bcd60e51b815260206004820152600f60248201526e0a4c2dcceca40dcdee840dac2e8c6d608b1b604482015290519081900360640190fd5b336000908152601b6020908152604080832060ff861684529091529020541561256b57600654336000818152601b6020908152604080832060ff88168452909152808220548151632142170760e11b815230600482015260248101949094526044840152516001600160a01b03909316926342842e0e92606480820193929182900301818387803b15801561255257600080fd5b505af1158015612566573d6000803e3d6000fd5b505050505b336000818152601b6020908152604080832060ff8716845290915280822086815560018101859055426002909101556006548151632142170760e11b815260048101949094523060248501526044840187905290516001600160a01b03909116926342842e0e92606480830193919282900301818387803b1580156125ef57600080fd5b505af1158015612603573d6000803e3d6000fd5b50506040805186815260ff8616602082015280820185905290513393507f4e58f730ef77c715507362aaa447b0969df6dff451b1f433296b83d8781485cb92509081900360600190a2505050565b601a5481565b60006018546000141561266d5750600f54610d0b565b6118056126aa61268a6103e860185461293c90919063ffffffff16565b610abf670de0b6b3a7640000610ab9600d54610ab9600e54610aaa6117f7565b600f549061297e565b6126c46126bf3361169e565b610e38565b565b601754600090600260ff841614156126e157506013546126f2565b8260ff16600314156126f257506011545b6005546001600160a01b03161580159061271657506006546001600160a01b031615155b1561273557600061272785856116b9565b90508015612733578091505b505b9392505050565b601c5460ff1681565b6001600160a01b031660009081526016602052604090206003015490565b6000546001600160a01b031633146127b3576040805162461bcd60e51b815260206004820152600e60248201526d6e6f7420676f7665726e616e636560901b604482015290519081900360640190fd5b600054610e34906001600160a01b03848116911683612b00565b6000546001600160a01b0316331461281d576040805162461bcd60e51b815260206004820152600e60248201526d6e6f7420676f7665726e616e636560901b604482015290519081900360640190fd5b601355565b60145481565b601c54630100000090046001600160a01b03163314612881576040805162461bcd60e51b815260206004820152601060248201526f696e76616c696420616464726573732160801b604482015290519081900360640190fd5b600e849055600f8390556119f38282612bed565b600b5481565b600a5481565b600061273583836040518060400160405280601e81526020017f536166654d6174683a207375627472616374696f6e206f766572666c6f770000815250612c94565b6000826128f257506000610acb565b828202828482816128ff57fe5b04146127355760405162461bcd60e51b8152600401808060200182810382526021815260200180612fdf6021913960400191505060405180910390fd5b600061273583836040518060400160405280601a81526020017f536166654d6174683a206469766973696f6e206279207a65726f000000000000815250612d2b565b600082820183811015612735576040805162461bcd60e51b815260206004820152601b60248201527f536166654d6174683a206164646974696f6e206f766572666c6f770000000000604482015290519081900360640190fd5b6001546129e5908361297e565b6001556001600160a01b038116600090815260026020526040902054612a0b908361297e565b6001600160a01b0390911660009081526002602052604090205550565b604080516001600160a01b0380861660248301528416604482015260648082018490528251808303909101815260849091019091526020810180516001600160e01b03166323b872dd60e01b1790526119f3908590612d90565b60008111612ac3576040805162461bcd60e51b81526020600482015260096024820152680616d6f7574203e20360bc1b604482015290519081900360640190fd5b600154612ad090826128a1565b60015533600090815260026020526040902054612aed90826128a1565b3360009081526002602052604090205550565b604080516001600160a01b038416602482015260448082018490528251808303909101815260649091019091526020810180516001600160e01b031663a9059cbb60e01b179052612b52908490612d90565b505050565b6001600160a01b038316600090815260166020526040902060048101839055600201819055612b8981610ab93361169e565b6001600160a01b039093166000908152601660205260409020600301929092555050565b6000818310612bbc5781612735565b5090919050565b600154612bd0908261297e565b60015533600090815260026020526040902054612aed908261297e565b601c5460ff1615612c33576040805162461bcd60e51b815260206004820152600b60248201526a1a185cc81cdd185c9d195960aa1b604482015290519081900360640190fd5b601c805460ff19166001179055600b829055600a819055612c57816212750061293c565b600d55600b54612c6a906212750061297e565b600c55600a546040805191825251600080516020612fbf8339815191529181900360200190a15050565b60008184841115612d235760405162461bcd60e51b81526004018080602001828103825283818151815260200191508051906020019080838360005b83811015612ce8578181015183820152602001612cd0565b50505050905090810190601f168015612d155780820380516001836020036101000a031916815260200191505b509250505060405180910390fd5b505050900390565b60008183612d7a5760405162461bcd60e51b8152602060048201818152835160248401528351909283926044909101919085019080838360008315612ce8578181015183820152602001612cd0565b506000838581612d8657fe5b0495945050505050565b6060612de5826040518060400160405280602081526020017f5361666545524332303a206c6f772d6c6576656c2063616c6c206661696c6564815250856001600160a01b0316612e419092919063ffffffff16565b805190915015612b5257808060200190516020811015612e0457600080fd5b5051612b525760405162461bcd60e51b815260040180806020018281038252602a815260200180613000602a913960400191505060405180910390fd5b6060610cff84846000856060612e5685612fb8565b612ea7576040805162461bcd60e51b815260206004820152601d60248201527f416464726573733a2063616c6c20746f206e6f6e2d636f6e7472616374000000604482015290519081900360640190fd5b60006060866001600160a01b031685876040518082805190602001908083835b60208310612ee65780518252601f199092019160209182019101612ec7565b6001836020036101000a03801982511681845116808217855250505050505090500191505060006040518083038185875af1925050503d8060008114612f48576040519150601f19603f3d011682016040523d82523d6000602084013e612f4d565b606091505b50915091508115612f61579150610cff9050565b805115612f715780518082602001fd5b60405162461bcd60e51b8152602060048201818152865160248401528651879391928392604401919085019080838360008315612ce8578181015183820152602001612cd0565b3b15159056fede88a922e0d3b88b24e9623efeb464919c6bf9f66857a65e2bfcf2ce87a9433d536166654d6174683a206d756c7469706c69636174696f6e206f766572666c6f775361666545524332303a204552433230206f7065726174696f6e20646964206e6f742073756363656564a26469706673582212206601f0af82c63afdb281e4376b773c41f0a999003c957426ed8e09041e63a57964736f6c634300060c0033",
      "opcodes": "PUSH1 0x5 DUP1 SLOAD PUSH1 0x1 PUSH1 0x1 PUSH1 0xA0 SHL SUB NOT SWAP1 DUP2 AND SWAP1 SWAP2 SSTORE PUSH1 0x6 DUP1 SLOAD DUP3 AND SWAP1 SSTORE PUSH1 0x8 DUP1 SLOAD SWAP1 SWAP2 AND PUSH20 0x6969696969696969696969696969696969696969 OR SWAP1 SSTORE PUSH1 0x0 PUSH1 0xA DUP2 SWAP1 SSTORE PUSH4 0x1E13380 TIMESTAMP ADD PUSH1 0xB SSTORE PUSH1 0xC DUP2 SWAP1 SSTORE PUSH1 0xD SSTORE PUSH1 0xE0 PUSH1 0x40 MSTORE PUSH1 0x60 PUSH1 0x80 SWAP1 DUP2 MSTORE PUSH1 0xB3 PUSH1 0xA0 MSTORE PUSH1 0x1F PUSH1 0xC0 MSTORE PUSH3 0x78 SWAP1 PUSH1 0x10 SWAP1 PUSH1 0x3 PUSH3 0x138 JUMP JUMPDEST POP PUSH1 0x31 PUSH1 0x13 SSTORE PUSH1 0x3 PUSH1 0x14 SSTORE PUSH1 0xB PUSH1 0x15 SSTORE PUSH1 0xE PUSH1 0x17 SSTORE PUSH1 0x0 PUSH1 0x18 SSTORE PUSH1 0xFA PUSH1 0x19 DUP2 SWAP1 SSTORE PUSH1 0x1A SSTORE PUSH1 0x1C DUP1 SLOAD PUSH1 0x1 PUSH1 0x1 PUSH1 0xB8 SHL SUB NOT AND SWAP1 SSTORE CALLVALUE DUP1 ISZERO PUSH3 0xB9 JUMPI PUSH1 0x0 DUP1 REVERT JUMPDEST POP PUSH1 0x40 MLOAD PUSH3 0x3206 CODESIZE SUB DUP1 PUSH3 0x3206 DUP4 CODECOPY DUP2 DUP2 ADD PUSH1 0x40 MSTORE PUSH1 0x60 DUP2 LT ISZERO PUSH3 0xDF JUMPI PUSH1 0x0 DUP1 REVERT JUMPDEST POP DUP1 MLOAD PUSH1 0x20 DUP3 ADD MLOAD PUSH1 0x40 SWAP1 SWAP3 ADD MLOAD PUSH1 0x0 DUP1 SLOAD CALLER PUSH1 0x1 PUSH1 0x1 PUSH1 0xA0 SHL SUB NOT SWAP2 DUP3 AND OR SWAP1 SWAP2 SSTORE PUSH1 0x3 DUP1 SLOAD DUP3 AND PUSH1 0x1 PUSH1 0x1 PUSH1 0xA0 SHL SUB SWAP5 DUP6 AND OR SWAP1 SSTORE PUSH1 0x4 DUP1 SLOAD DUP3 AND SWAP5 DUP5 AND SWAP5 SWAP1 SWAP5 OR SWAP1 SWAP4 SSTORE PUSH1 0x7 DUP1 SLOAD SWAP1 SWAP4 AND SWAP2 AND OR SWAP1 SSTORE PUSH3 0x197 JUMP JUMPDEST DUP3 PUSH1 0x3 DUP2 ADD SWAP3 DUP3 ISZERO PUSH3 0x16E JUMPI SWAP2 PUSH1 0x20 MUL DUP3 ADD JUMPDEST DUP3 DUP2 GT ISZERO PUSH3 0x16E JUMPI DUP3 MLOAD DUP3 SWAP1 PUSH1 0xFF AND SWAP1 SSTORE SWAP2 PUSH1 0x20 ADD SWAP2 SWAP1 PUSH1 0x1 ADD SWAP1 PUSH3 0x14C JUMP JUMPDEST POP PUSH3 0x17C SWAP3 SWAP2 POP PUSH3 0x180 JUMP JUMPDEST POP SWAP1 JUMP JUMPDEST JUMPDEST DUP1 DUP3 GT ISZERO PUSH3 0x17C JUMPI PUSH1 0x0 DUP2 SSTORE PUSH1 0x1 ADD PUSH3 0x181 JUMP JUMPDEST PUSH2 0x305F DUP1 PUSH3 0x1A7 PUSH1 0x0 CODECOPY PUSH1 0x0 RETURN INVALID PUSH1 0x80 PUSH1 0x40 MSTORE CALLVALUE DUP1 ISZERO PUSH2 0x10 JUMPI PUSH1 0x0 DUP1 REVERT JUMPDEST POP PUSH1 0x4 CALLDATASIZE LT PUSH2 0x3AE JUMPI PUSH1 0x0 CALLDATALOAD PUSH1 0xE0 SHR DUP1 PUSH4 0x7A97FC4A GT PUSH2 0x1F4 JUMPI DUP1 PUSH4 0xBC1B392D GT PUSH2 0x11A JUMPI DUP1 PUSH4 0xE45A98DD GT PUSH2 0xAD JUMPI DUP1 PUSH4 0xED6525C4 GT PUSH2 0x7C JUMPI DUP1 PUSH4 0xED6525C4 EQ PUSH2 0xA20 JUMPI DUP1 PUSH4 0xF3C5FA37 EQ PUSH2 0xA28 JUMPI DUP1 PUSH4 0xFA1ACB5C EQ PUSH2 0xA57 JUMPI DUP1 PUSH4 0xFFD832C1 EQ PUSH2 0xA5F JUMPI PUSH2 0x3AE JUMP JUMPDEST DUP1 PUSH4 0xE45A98DD EQ PUSH2 0x9A9 JUMPI DUP1 PUSH4 0xE63A06D5 EQ PUSH2 0x9B1 JUMPI DUP1 PUSH4 0xEB9253C0 EQ PUSH2 0x9D7 JUMPI DUP1 PUSH4 0xEBFC5A99 EQ PUSH2 0xA03 JUMPI PUSH2 0x3AE JUMP JUMPDEST DUP1 PUSH4 0xC556017B GT PUSH2 0xE9 JUMPI DUP1 PUSH4 0xC556017B EQ PUSH2 0x962 JUMPI DUP1 PUSH4 0xCD3DAF9D EQ PUSH2 0x96A JUMPI DUP1 PUSH4 0xDB2E21BC EQ PUSH2 0x972 JUMPI DUP1 PUSH4 0xDE7C0E17 EQ PUSH2 0x97A JUMPI PUSH2 0x3AE JUMP JUMPDEST DUP1 PUSH4 0xBC1B392D EQ PUSH2 0x90F JUMPI DUP1 PUSH4 0xBE8343AB EQ PUSH2 0x917 JUMPI DUP1 PUSH4 0xBEB92F55 EQ PUSH2 0x91F JUMPI DUP1 PUSH4 0xBF9D4075 EQ PUSH2 0x945 JUMPI PUSH2 0x3AE JUMP JUMPDEST DUP1 PUSH4 0xA0325191 GT PUSH2 0x192 JUMPI DUP1 PUSH4 0xAB033EA9 GT PUSH2 0x161 JUMPI DUP1 PUSH4 0xAB033EA9 EQ PUSH2 0x882 JUMPI DUP1 PUSH4 0xABB353A4 EQ PUSH2 0x8A8 JUMPI DUP1 PUSH4 0xB15706AB EQ PUSH2 0x8D5 JUMPI DUP1 PUSH4 0xBA9467C1 EQ PUSH2 0x8F2 JUMPI PUSH2 0x3AE JUMP JUMPDEST DUP1 PUSH4 0xA0325191 EQ PUSH2 0x82F JUMPI DUP1 PUSH4 0xA54B2A73 EQ PUSH2 0x837 JUMPI DUP1 PUSH4 0xA694FC3A EQ PUSH2 0x83F JUMPI DUP1 PUSH4 0xA7BD3E9D EQ PUSH2 0x85C JUMPI PUSH2 0x3AE JUMP JUMPDEST DUP1 PUSH4 0x80FAA57D GT PUSH2 0x1CE JUMPI DUP1 PUSH4 0x80FAA57D EQ PUSH2 0x7F1 JUMPI DUP1 PUSH4 0x90B5BB88 EQ PUSH2 0x7F9 JUMPI DUP1 PUSH4 0x927B26B9 EQ PUSH2 0x81F JUMPI DUP1 PUSH4 0x975097FE EQ PUSH2 0x827 JUMPI PUSH2 0x3AE JUMP JUMPDEST DUP1 PUSH4 0x7A97FC4A EQ PUSH2 0x7AF JUMPI DUP1 PUSH4 0x7AAE690A EQ PUSH2 0x7B7 JUMPI DUP1 PUSH4 0x7F8661A1 EQ PUSH2 0x7D4 JUMPI PUSH2 0x3AE JUMP JUMPDEST DUP1 PUSH4 0x39D4B373 GT PUSH2 0x2D9 JUMPI DUP1 PUSH4 0x59927044 GT PUSH2 0x277 JUMPI DUP1 PUSH4 0x6ADAFAB5 GT PUSH2 0x246 JUMPI DUP1 PUSH4 0x6ADAFAB5 EQ PUSH2 0x74A JUMPI DUP1 PUSH4 0x6D1A505B EQ PUSH2 0x752 JUMPI DUP1 PUSH4 0x70A08231 EQ PUSH2 0x75A JUMPI DUP1 PUSH4 0x747CEF22 EQ PUSH2 0x780 JUMPI PUSH2 0x3AE JUMP JUMPDEST DUP1 PUSH4 0x59927044 EQ PUSH2 0x701 JUMPI DUP1 PUSH4 0x64C2A9A5 EQ PUSH2 0x709 JUMPI DUP1 PUSH4 0x68612782 EQ PUSH2 0x726 JUMPI DUP1 PUSH4 0x68FD25CD EQ PUSH2 0x742 JUMPI PUSH2 0x3AE JUMP JUMPDEST DUP1 PUSH4 0x4436153E GT PUSH2 0x2B3 JUMPI DUP1 PUSH4 0x4436153E EQ PUSH2 0x6C6 JUMPI DUP1 PUSH4 0x52F7C988 EQ PUSH2 0x6CE JUMPI DUP1 PUSH4 0x54CF428A EQ PUSH2 0x6F1 JUMPI DUP1 PUSH4 0x5941B3D8 EQ PUSH2 0x6F9 JUMPI PUSH2 0x3AE JUMP JUMPDEST DUP1 PUSH4 0x39D4B373 EQ PUSH2 0x669 JUMPI DUP1 PUSH4 0x3A2B9626 EQ PUSH2 0x6B6 JUMPI DUP1 PUSH4 0x3D18B912 EQ PUSH2 0x6BE JUMPI PUSH2 0x3AE JUMP JUMPDEST DUP1 PUSH4 0x18160DDD GT PUSH2 0x351 JUMPI DUP1 PUSH4 0x1E830F88 GT PUSH2 0x320 JUMPI DUP1 PUSH4 0x1E830F88 EQ PUSH2 0x5EA JUMPI DUP1 PUSH4 0x224961BB EQ PUSH2 0x618 JUMPI DUP1 PUSH4 0x2E1A7D4D EQ PUSH2 0x644 JUMPI DUP1 PUSH4 0x30D172D5 EQ PUSH2 0x661 JUMPI PUSH2 0x3AE JUMP JUMPDEST DUP1 PUSH4 0x18160DDD EQ PUSH2 0x565 JUMPI DUP1 PUSH4 0x1959A002 EQ PUSH2 0x56D JUMPI DUP1 PUSH4 0x1BE05289 EQ PUSH2 0x5BE JUMPI DUP1 PUSH4 0x1C2F3E3D EQ PUSH2 0x5C6 JUMPI PUSH2 0x3AE JUMP JUMPDEST DUP1 PUSH4 0x121544B9 GT PUSH2 0x38D JUMPI DUP1 PUSH4 0x121544B9 EQ PUSH2 0x454 JUMPI DUP1 PUSH4 0x13A73EE6 EQ PUSH2 0x45C JUMPI DUP1 PUSH4 0x1407C664 EQ PUSH2 0x47A JUMPI DUP1 PUSH4 0x150B7A02 EQ PUSH2 0x482 JUMPI PUSH2 0x3AE JUMP JUMPDEST DUP1 PUSH3 0x8CC262 EQ PUSH2 0x3B3 JUMPI DUP1 PUSH4 0x381A212 EQ PUSH2 0x3EB JUMPI DUP1 PUSH4 0xBA86F05 EQ PUSH2 0x437 JUMPI JUMPDEST PUSH1 0x0 DUP1 REVERT JUMPDEST PUSH2 0x3D9 PUSH1 0x4 DUP1 CALLDATASIZE SUB PUSH1 0x20 DUP2 LT ISZERO PUSH2 0x3C9 JUMPI PUSH1 0x0 DUP1 REVERT JUMPDEST POP CALLDATALOAD PUSH1 0x1 PUSH1 0x1 PUSH1 0xA0 SHL SUB AND PUSH2 0xA67 JUMP JUMPDEST PUSH1 0x40 DUP1 MLOAD SWAP2 DUP3 MSTORE MLOAD SWAP1 DUP2 SWAP1 SUB PUSH1 0x20 ADD SWAP1 RETURN JUMPDEST PUSH2 0x435 PUSH1 0x4 DUP1 CALLDATASIZE SUB PUSH1 0xE0 DUP2 LT ISZERO PUSH2 0x401 JUMPI PUSH1 0x0 DUP1 REVERT JUMPDEST POP PUSH1 0x1 PUSH1 0x1 PUSH1 0xA0 SHL SUB DUP2 CALLDATALOAD AND SWAP1 PUSH1 0x20 DUP2 ADD CALLDATALOAD SWAP1 PUSH1 0x40 DUP2 ADD CALLDATALOAD SWAP1 PUSH1 0x60 DUP2 ADD CALLDATALOAD SWAP1 PUSH1 0x80 DUP2 ADD CALLDATALOAD SWAP1 PUSH1 0xA0 DUP2 ADD CALLDATALOAD SWAP1 PUSH1 0xC0 ADD CALLDATALOAD PUSH2 0xAD1 JUMP JUMPDEST STOP JUMPDEST PUSH2 0x435 PUSH1 0x4 DUP1 CALLDATASIZE SUB PUSH1 0x20 DUP2 LT ISZERO PUSH2 0x44D JUMPI PUSH1 0x0 DUP1 REVERT JUMPDEST POP CALLDATALOAD PUSH2 0xB9E JUMP JUMPDEST PUSH2 0x3D9 PUSH2 0xBF3 JUMP JUMPDEST PUSH2 0x464 PUSH2 0xBF9 JUMP JUMPDEST PUSH1 0x40 DUP1 MLOAD PUSH1 0xFF SWAP1 SWAP3 AND DUP3 MSTORE MLOAD SWAP1 DUP2 SWAP1 SUB PUSH1 0x20 ADD SWAP1 RETURN JUMPDEST PUSH2 0x3D9 PUSH2 0xBFE JUMP JUMPDEST PUSH2 0x548 PUSH1 0x4 DUP1 CALLDATASIZE SUB PUSH1 0x80 DUP2 LT ISZERO PUSH2 0x498 JUMPI PUSH1 0x0 DUP1 REVERT JUMPDEST PUSH1 0x1 PUSH1 0x1 PUSH1 0xA0 SHL SUB DUP3 CALLDATALOAD DUP2 AND SWAP3 PUSH1 0x20 DUP2 ADD CALLDATALOAD SWAP1 SWAP2 AND SWAP2 PUSH1 0x40 DUP3 ADD CALLDATALOAD SWAP2 SWAP1 DUP2 ADD SWAP1 PUSH1 0x80 DUP2 ADD PUSH1 0x60 DUP3 ADD CALLDATALOAD PUSH5 0x100000000 DUP2 GT ISZERO PUSH2 0x4D3 JUMPI PUSH1 0x0 DUP1 REVERT JUMPDEST DUP3 ADD DUP4 PUSH1 0x20 DUP3 ADD GT ISZERO PUSH2 0x4E5 JUMPI PUSH1 0x0 DUP1 REVERT JUMPDEST DUP1 CALLDATALOAD SWAP1 PUSH1 0x20 ADD SWAP2 DUP5 PUSH1 0x1 DUP4 MUL DUP5 ADD GT PUSH5 0x100000000 DUP4 GT OR ISZERO PUSH2 0x507 JUMPI PUSH1 0x0 DUP1 REVERT JUMPDEST SWAP2 SWAP1 DUP1 DUP1 PUSH1 0x1F ADD PUSH1 0x20 DUP1 SWAP2 DIV MUL PUSH1 0x20 ADD PUSH1 0x40 MLOAD SWAP1 DUP2 ADD PUSH1 0x40 MSTORE DUP1 SWAP4 SWAP3 SWAP2 SWAP1 DUP2 DUP2 MSTORE PUSH1 0x20 ADD DUP4 DUP4 DUP1 DUP3 DUP5 CALLDATACOPY PUSH1 0x0 SWAP3 ADD SWAP2 SWAP1 SWAP2 MSTORE POP SWAP3 SWAP6 POP PUSH2 0xC04 SWAP5 POP POP POP POP POP JUMP JUMPDEST PUSH1 0x40 DUP1 MLOAD PUSH1 0x1 PUSH1 0x1 PUSH1 0xE0 SHL SUB NOT SWAP1 SWAP3 AND DUP3 MSTORE MLOAD SWAP1 DUP2 SWAP1 SUB PUSH1 0x20 ADD SWAP1 RETURN JUMPDEST PUSH2 0x3D9 PUSH2 0xD07 JUMP JUMPDEST PUSH2 0x593 PUSH1 0x4 DUP1 CALLDATASIZE SUB PUSH1 0x20 DUP2 LT ISZERO PUSH2 0x583 JUMPI PUSH1 0x0 DUP1 REVERT JUMPDEST POP CALLDATALOAD PUSH1 0x1 PUSH1 0x1 PUSH1 0xA0 SHL SUB AND PUSH2 0xD0E JUMP JUMPDEST PUSH1 0x40 DUP1 MLOAD SWAP6 DUP7 MSTORE PUSH1 0x20 DUP7 ADD SWAP5 SWAP1 SWAP5 MSTORE DUP5 DUP5 ADD SWAP3 SWAP1 SWAP3 MSTORE PUSH1 0x60 DUP5 ADD MSTORE PUSH1 0x80 DUP4 ADD MSTORE MLOAD SWAP1 DUP2 SWAP1 SUB PUSH1 0xA0 ADD SWAP1 RETURN JUMPDEST PUSH2 0x3D9 PUSH2 0xD3D JUMP JUMPDEST PUSH2 0x5CE PUSH2 0xD44 JUMP JUMPDEST PUSH1 0x40 DUP1 MLOAD PUSH1 0x1 PUSH1 0x1 PUSH1 0xA0 SHL SUB SWAP1 SWAP3 AND DUP3 MSTORE MLOAD SWAP1 DUP2 SWAP1 SUB PUSH1 0x20 ADD SWAP1 RETURN JUMPDEST PUSH2 0x435 PUSH1 0x4 DUP1 CALLDATASIZE SUB PUSH1 0x40 DUP2 LT ISZERO PUSH2 0x600 JUMPI PUSH1 0x0 DUP1 REVERT JUMPDEST POP PUSH1 0x1 PUSH1 0x1 PUSH1 0xA0 SHL SUB DUP2 CALLDATALOAD DUP2 AND SWAP2 PUSH1 0x20 ADD CALLDATALOAD AND PUSH2 0xD53 JUMP JUMPDEST PUSH2 0x435 PUSH1 0x4 DUP1 CALLDATASIZE SUB PUSH1 0x40 DUP2 LT ISZERO PUSH2 0x62E JUMPI PUSH1 0x0 DUP1 REVERT JUMPDEST POP DUP1 CALLDATALOAD SWAP1 PUSH1 0x20 ADD CALLDATALOAD PUSH1 0x1 PUSH1 0x1 PUSH1 0xA0 SHL SUB AND PUSH2 0xDD1 JUMP JUMPDEST PUSH2 0x435 PUSH1 0x4 DUP1 CALLDATASIZE SUB PUSH1 0x20 DUP2 LT ISZERO PUSH2 0x65A JUMPI PUSH1 0x0 DUP1 REVERT JUMPDEST POP CALLDATALOAD PUSH2 0xE38 JUMP JUMPDEST PUSH2 0x5CE PUSH2 0x11EC JUMP JUMPDEST PUSH2 0x698 PUSH1 0x4 DUP1 CALLDATASIZE SUB PUSH1 0x40 DUP2 LT ISZERO PUSH2 0x67F JUMPI PUSH1 0x0 DUP1 REVERT JUMPDEST POP DUP1 CALLDATALOAD PUSH1 0x1 PUSH1 0x1 PUSH1 0xA0 SHL SUB AND SWAP1 PUSH1 0x20 ADD CALLDATALOAD PUSH1 0xFF AND PUSH2 0x11FB JUMP JUMPDEST PUSH1 0x40 DUP1 MLOAD SWAP4 DUP5 MSTORE PUSH1 0x20 DUP5 ADD SWAP3 SWAP1 SWAP3 MSTORE DUP3 DUP3 ADD MSTORE MLOAD SWAP1 DUP2 SWAP1 SUB PUSH1 0x60 ADD SWAP1 RETURN JUMPDEST PUSH2 0x5CE PUSH2 0x1227 JUMP JUMPDEST PUSH2 0x435 PUSH2 0x1236 JUMP JUMPDEST PUSH2 0x3D9 PUSH2 0x1593 JUMP JUMPDEST PUSH2 0x435 PUSH1 0x4 DUP1 CALLDATASIZE SUB PUSH1 0x40 DUP2 LT ISZERO PUSH2 0x6E4 JUMPI PUSH1 0x0 DUP1 REVERT JUMPDEST POP DUP1 CALLDATALOAD SWAP1 PUSH1 0x20 ADD CALLDATALOAD PUSH2 0x1599 JUMP JUMPDEST PUSH2 0x5CE PUSH2 0x15F4 JUMP JUMPDEST PUSH2 0x5CE PUSH2 0x160A JUMP JUMPDEST PUSH2 0x5CE PUSH2 0x1619 JUMP JUMPDEST PUSH2 0x435 PUSH1 0x4 DUP1 CALLDATASIZE SUB PUSH1 0x20 DUP2 LT ISZERO PUSH2 0x71F JUMPI PUSH1 0x0 DUP1 REVERT JUMPDEST POP CALLDATALOAD PUSH2 0x1628 JUMP JUMPDEST PUSH2 0x72E PUSH2 0x167D JUMP JUMPDEST PUSH1 0x40 DUP1 MLOAD SWAP2 ISZERO ISZERO DUP3 MSTORE MLOAD SWAP1 DUP2 SWAP1 SUB PUSH1 0x20 ADD SWAP1 RETURN JUMPDEST PUSH2 0x3D9 PUSH2 0x168C JUMP JUMPDEST PUSH2 0x3D9 PUSH2 0x1692 JUMP JUMPDEST PUSH2 0x3D9 PUSH2 0x1698 JUMP JUMPDEST PUSH2 0x3D9 PUSH1 0x4 DUP1 CALLDATASIZE SUB PUSH1 0x20 DUP2 LT ISZERO PUSH2 0x770 JUMPI PUSH1 0x0 DUP1 REVERT JUMPDEST POP CALLDATALOAD PUSH1 0x1 PUSH1 0x1 PUSH1 0xA0 SHL SUB AND PUSH2 0x169E JUMP JUMPDEST PUSH2 0x3D9 PUSH1 0x4 DUP1 CALLDATASIZE SUB PUSH1 0x40 DUP2 LT ISZERO PUSH2 0x796 JUMPI PUSH1 0x0 DUP1 REVERT JUMPDEST POP DUP1 CALLDATALOAD PUSH1 0x1 PUSH1 0x1 PUSH1 0xA0 SHL SUB AND SWAP1 PUSH1 0x20 ADD CALLDATALOAD PUSH1 0xFF AND PUSH2 0x16B9 JUMP JUMPDEST PUSH2 0x3D9 PUSH2 0x1788 JUMP JUMPDEST PUSH2 0x435 PUSH1 0x4 DUP1 CALLDATASIZE SUB PUSH1 0x20 DUP2 LT ISZERO PUSH2 0x7CD JUMPI PUSH1 0x0 DUP1 REVERT JUMPDEST POP CALLDATALOAD PUSH2 0x178E JUMP JUMPDEST PUSH2 0x435 PUSH1 0x4 DUP1 CALLDATASIZE SUB PUSH1 0x20 DUP2 LT ISZERO PUSH2 0x7EA JUMPI PUSH1 0x0 DUP1 REVERT JUMPDEST POP CALLDATALOAD PUSH2 0x17E3 JUMP JUMPDEST PUSH2 0x3D9 PUSH2 0x17F7 JUMP JUMPDEST PUSH2 0x435 PUSH1 0x4 DUP1 CALLDATASIZE SUB PUSH1 0x20 DUP2 LT ISZERO PUSH2 0x80F JUMPI PUSH1 0x0 DUP1 REVERT JUMPDEST POP CALLDATALOAD PUSH1 0x1 PUSH1 0x1 PUSH1 0xA0 SHL SUB AND PUSH2 0x180A JUMP JUMPDEST PUSH2 0x3D9 PUSH2 0x19F9 JUMP JUMPDEST PUSH2 0x5CE PUSH2 0x19FF JUMP JUMPDEST PUSH2 0x3D9 PUSH2 0x1A0E JUMP JUMPDEST PUSH2 0x5CE PUSH2 0x1A14 JUMP JUMPDEST PUSH2 0x435 PUSH1 0x4 DUP1 CALLDATASIZE SUB PUSH1 0x20 DUP2 LT ISZERO PUSH2 0x855 JUMPI PUSH1 0x0 DUP1 REVERT JUMPDEST POP CALLDATALOAD PUSH2 0x1A23 JUMP JUMPDEST PUSH2 0x435 PUSH1 0x4 DUP1 CALLDATASIZE SUB PUSH1 0x20 DUP2 LT ISZERO PUSH2 0x872 JUMPI PUSH1 0x0 DUP1 REVERT JUMPDEST POP CALLDATALOAD PUSH1 0x1 PUSH1 0x1 PUSH1 0xA0 SHL SUB AND PUSH2 0x1E94 JUMP JUMPDEST PUSH2 0x435 PUSH1 0x4 DUP1 CALLDATASIZE SUB PUSH1 0x20 DUP2 LT ISZERO PUSH2 0x898 JUMPI PUSH1 0x0 DUP1 REVERT JUMPDEST POP CALLDATALOAD PUSH1 0x1 PUSH1 0x1 PUSH1 0xA0 SHL SUB AND PUSH2 0x1F06 JUMP JUMPDEST PUSH2 0x435 PUSH1 0x4 DUP1 CALLDATASIZE SUB PUSH1 0x60 DUP2 LT ISZERO PUSH2 0x8BE JUMPI PUSH1 0x0 DUP1 REVERT JUMPDEST POP DUP1 CALLDATALOAD ISZERO ISZERO SWAP1 PUSH1 0x20 DUP2 ADD CALLDATALOAD SWAP1 PUSH1 0x40 ADD CALLDATALOAD ISZERO ISZERO PUSH2 0x200C JUMP JUMPDEST PUSH2 0x3D9 PUSH1 0x4 DUP1 CALLDATASIZE SUB PUSH1 0x20 DUP2 LT ISZERO PUSH2 0x8EB JUMPI PUSH1 0x0 DUP1 REVERT JUMPDEST POP CALLDATALOAD PUSH2 0x208E JUMP JUMPDEST PUSH2 0x435 PUSH1 0x4 DUP1 CALLDATASIZE SUB PUSH1 0x20 DUP2 LT ISZERO PUSH2 0x908 JUMPI PUSH1 0x0 DUP1 REVERT JUMPDEST POP CALLDATALOAD PUSH2 0x20A2 JUMP JUMPDEST PUSH2 0x5CE PUSH2 0x22A8 JUMP JUMPDEST PUSH2 0x72E PUSH2 0x22B7 JUMP JUMPDEST PUSH2 0x435 PUSH1 0x4 DUP1 CALLDATASIZE SUB PUSH1 0x20 DUP2 LT ISZERO PUSH2 0x935 JUMPI PUSH1 0x0 DUP1 REVERT JUMPDEST POP CALLDATALOAD PUSH1 0x1 PUSH1 0x1 PUSH1 0xA0 SHL SUB AND PUSH2 0x22C5 JUMP JUMPDEST PUSH2 0x435 PUSH1 0x4 DUP1 CALLDATASIZE SUB PUSH1 0x20 DUP2 LT ISZERO PUSH2 0x95B JUMPI PUSH1 0x0 DUP1 REVERT JUMPDEST POP CALLDATALOAD PUSH2 0x2341 JUMP JUMPDEST PUSH2 0x3D9 PUSH2 0x2651 JUMP JUMPDEST PUSH2 0x3D9 PUSH2 0x2657 JUMP JUMPDEST PUSH2 0x435 PUSH2 0x26B3 JUMP JUMPDEST PUSH2 0x3D9 PUSH1 0x4 DUP1 CALLDATASIZE SUB PUSH1 0x40 DUP2 LT ISZERO PUSH2 0x990 JUMPI PUSH1 0x0 DUP1 REVERT JUMPDEST POP DUP1 CALLDATALOAD PUSH1 0x1 PUSH1 0x1 PUSH1 0xA0 SHL SUB AND SWAP1 PUSH1 0x20 ADD CALLDATALOAD PUSH1 0xFF AND PUSH2 0x26C6 JUMP JUMPDEST PUSH2 0x72E PUSH2 0x273C JUMP JUMPDEST PUSH2 0x3D9 PUSH1 0x4 DUP1 CALLDATASIZE SUB PUSH1 0x20 DUP2 LT ISZERO PUSH2 0x9C7 JUMPI PUSH1 0x0 DUP1 REVERT JUMPDEST POP CALLDATALOAD PUSH1 0x1 PUSH1 0x1 PUSH1 0xA0 SHL SUB AND PUSH2 0x2745 JUMP JUMPDEST PUSH2 0x435 PUSH1 0x4 DUP1 CALLDATASIZE SUB PUSH1 0x40 DUP2 LT ISZERO PUSH2 0x9ED JUMPI PUSH1 0x0 DUP1 REVERT JUMPDEST POP PUSH1 0x1 PUSH1 0x1 PUSH1 0xA0 SHL SUB DUP2 CALLDATALOAD AND SWAP1 PUSH1 0x20 ADD CALLDATALOAD PUSH2 0x2763 JUMP JUMPDEST PUSH2 0x435 PUSH1 0x4 DUP1 CALLDATASIZE SUB PUSH1 0x20 DUP2 LT ISZERO PUSH2 0xA19 JUMPI PUSH1 0x0 DUP1 REVERT JUMPDEST POP CALLDATALOAD PUSH2 0x27CD JUMP JUMPDEST PUSH2 0x3D9 PUSH2 0x2822 JUMP JUMPDEST PUSH2 0x435 PUSH1 0x4 DUP1 CALLDATASIZE SUB PUSH1 0x80 DUP2 LT ISZERO PUSH2 0xA3E JUMPI PUSH1 0x0 DUP1 REVERT JUMPDEST POP DUP1 CALLDATALOAD SWAP1 PUSH1 0x20 DUP2 ADD CALLDATALOAD SWAP1 PUSH1 0x40 DUP2 ADD CALLDATALOAD SWAP1 PUSH1 0x60 ADD CALLDATALOAD PUSH2 0x2828 JUMP JUMPDEST PUSH2 0x3D9 PUSH2 0x2895 JUMP JUMPDEST PUSH2 0x3D9 PUSH2 0x289B JUMP JUMPDEST PUSH1 0x1 PUSH1 0x1 PUSH1 0xA0 SHL SUB DUP2 AND PUSH1 0x0 SWAP1 DUP2 MSTORE PUSH1 0x16 PUSH1 0x20 MSTORE PUSH1 0x40 DUP2 KECCAK256 PUSH1 0x1 DUP2 ADD SLOAD SWAP1 SLOAD PUSH2 0xACB SWAP2 SWAP1 PUSH2 0xAC5 SWAP1 PUSH9 0x3635C9ADC5DEA00000 SWAP1 PUSH2 0xABF SWAP1 PUSH2 0xAB0 SWAP1 PUSH2 0xAAA PUSH2 0x2657 JUMP JUMPDEST SWAP1 PUSH2 0x28A1 JUMP JUMPDEST PUSH2 0xAB9 DUP9 PUSH2 0x2745 JUMP JUMPDEST SWAP1 PUSH2 0x28E3 JUMP JUMPDEST SWAP1 PUSH2 0x293C JUMP JUMPDEST SWAP1 PUSH2 0x297E JUMP JUMPDEST SWAP3 SWAP2 POP POP JUMP JUMPDEST PUSH1 0x1C SLOAD PUSH4 0x1000000 SWAP1 DIV PUSH1 0x1 PUSH1 0x1 PUSH1 0xA0 SHL SUB AND CALLER EQ PUSH2 0xB2A JUMPI PUSH1 0x40 DUP1 MLOAD PUSH3 0x461BCD PUSH1 0xE5 SHL DUP2 MSTORE PUSH1 0x20 PUSH1 0x4 DUP3 ADD MSTORE PUSH1 0x10 PUSH1 0x24 DUP3 ADD MSTORE PUSH16 0x696E76616C6964206164647265737321 PUSH1 0x80 SHL PUSH1 0x44 DUP3 ADD MSTORE SWAP1 MLOAD SWAP1 DUP2 SWAP1 SUB PUSH1 0x64 ADD SWAP1 REVERT JUMPDEST PUSH1 0x1 PUSH1 0x1 PUSH1 0xA0 SHL SUB DUP8 AND PUSH1 0x0 SWAP1 DUP2 MSTORE PUSH1 0x16 PUSH1 0x20 MSTORE PUSH1 0x40 SWAP1 KECCAK256 DUP7 DUP2 SSTORE PUSH1 0x1 DUP2 ADD DUP7 SWAP1 SSTORE PUSH1 0x2 DUP2 ADD DUP6 SWAP1 SSTORE PUSH1 0x3 DUP2 ADD DUP5 SWAP1 SSTORE PUSH1 0x4 ADD DUP3 SWAP1 SSTORE PUSH2 0xB6A DUP2 DUP9 PUSH2 0xDD1 JUMP JUMPDEST PUSH1 0x1 PUSH1 0x1 PUSH1 0xA0 SHL SUB DUP8 AND PUSH1 0x0 SWAP1 DUP2 MSTORE PUSH1 0x16 PUSH1 0x20 MSTORE PUSH1 0x40 SWAP1 KECCAK256 PUSH1 0x3 ADD SLOAD PUSH1 0x18 SLOAD PUSH2 0xB92 SWAP2 PUSH2 0x297E JUMP JUMPDEST PUSH1 0x18 SSTORE POP POP POP POP POP POP POP JUMP JUMPDEST PUSH1 0x0 SLOAD PUSH1 0x1 PUSH1 0x1 PUSH1 0xA0 SHL SUB AND CALLER EQ PUSH2 0xBEE JUMPI PUSH1 0x40 DUP1 MLOAD PUSH3 0x461BCD PUSH1 0xE5 SHL DUP2 MSTORE PUSH1 0x20 PUSH1 0x4 DUP3 ADD MSTORE PUSH1 0xE PUSH1 0x24 DUP3 ADD MSTORE PUSH14 0x6E6F7420676F7665726E616E6365 PUSH1 0x90 SHL PUSH1 0x44 DUP3 ADD MSTORE SWAP1 MLOAD SWAP1 DUP2 SWAP1 SUB PUSH1 0x64 ADD SWAP1 REVERT JUMPDEST PUSH1 0x14 SSTORE JUMP JUMPDEST PUSH1 0xF SLOAD DUP2 JUMP JUMPDEST PUSH1 0x1 DUP2 JUMP JUMPDEST PUSH1 0xC SLOAD DUP2 JUMP JUMPDEST PUSH1 0x1C SLOAD PUSH1 0x0 SWAP1 PUSH1 0xFF AND PUSH2 0xC19 JUMPI POP PUSH1 0x0 PUSH2 0xCFF JUMP JUMPDEST PUSH32 0x1D823CDC8F0514A95B53538DF2D2F3DEAF98D1C534C6E750DAA593173C27F8F0 DUP6 DUP6 DUP6 DUP6 PUSH1 0x40 MLOAD DUP1 DUP6 PUSH1 0x1 PUSH1 0x1 PUSH1 0xA0 SHL SUB AND DUP2 MSTORE PUSH1 0x20 ADD DUP5 PUSH1 0x1 PUSH1 0x1 PUSH1 0xA0 SHL SUB AND DUP2 MSTORE PUSH1 0x20 ADD DUP4 DUP2 MSTORE PUSH1 0x20 ADD DUP1 PUSH1 0x20 ADD DUP3 DUP2 SUB DUP3 MSTORE DUP4 DUP2 DUP2 MLOAD DUP2 MSTORE PUSH1 0x20 ADD SWAP2 POP DUP1 MLOAD SWAP1 PUSH1 0x20 ADD SWAP1 DUP1 DUP4 DUP4 PUSH1 0x0 JUMPDEST DUP4 DUP2 LT ISZERO PUSH2 0xC9F JUMPI DUP2 DUP2 ADD MLOAD DUP4 DUP3 ADD MSTORE PUSH1 0x20 ADD PUSH2 0xC87 JUMP JUMPDEST POP POP POP POP SWAP1 POP SWAP1 DUP2 ADD SWAP1 PUSH1 0x1F AND DUP1 ISZERO PUSH2 0xCCC JUMPI DUP1 DUP3 SUB DUP1 MLOAD PUSH1 0x1 DUP4 PUSH1 0x20 SUB PUSH2 0x100 EXP SUB NOT AND DUP2 MSTORE PUSH1 0x20 ADD SWAP2 POP JUMPDEST POP SWAP6 POP POP POP POP POP POP PUSH1 0x40 MLOAD DUP1 SWAP2 SUB SWAP1 LOG1 POP PUSH32 0x150B7A023D4804D13E8C85FB27262CB750CF6BA9F9DD3BB30D90F482CEEB4B1F JUMPDEST SWAP5 SWAP4 POP POP POP POP JUMP JUMPDEST PUSH1 0x1 SLOAD JUMPDEST SWAP1 JUMP JUMPDEST PUSH1 0x16 PUSH1 0x20 MSTORE PUSH1 0x0 SWAP1 DUP2 MSTORE PUSH1 0x40 SWAP1 KECCAK256 DUP1 SLOAD PUSH1 0x1 DUP3 ADD SLOAD PUSH1 0x2 DUP4 ADD SLOAD PUSH1 0x3 DUP5 ADD SLOAD PUSH1 0x4 SWAP1 SWAP5 ADD SLOAD SWAP3 SWAP4 SWAP2 SWAP3 SWAP1 SWAP2 SWAP1 DUP6 JUMP JUMPDEST PUSH3 0x127500 DUP2 JUMP JUMPDEST PUSH1 0x0 SLOAD PUSH1 0x1 PUSH1 0x1 PUSH1 0xA0 SHL SUB AND DUP2 JUMP JUMPDEST PUSH1 0x0 SLOAD PUSH1 0x1 PUSH1 0x1 PUSH1 0xA0 SHL SUB AND CALLER EQ PUSH2 0xDA3 JUMPI PUSH1 0x40 DUP1 MLOAD PUSH3 0x461BCD PUSH1 0xE5 SHL DUP2 MSTORE PUSH1 0x20 PUSH1 0x4 DUP3 ADD MSTORE PUSH1 0xE PUSH1 0x24 DUP3 ADD MSTORE PUSH14 0x6E6F7420676F7665726E616E6365 PUSH1 0x90 SHL PUSH1 0x44 DUP3 ADD MSTORE SWAP1 MLOAD SWAP1 DUP2 SWAP1 SUB PUSH1 0x64 ADD SWAP1 REVERT JUMPDEST PUSH1 0x6 DUP1 SLOAD PUSH1 0x1 PUSH1 0x1 PUSH1 0xA0 SHL SUB SWAP4 DUP5 AND PUSH1 0x1 PUSH1 0x1 PUSH1 0xA0 SHL SUB NOT SWAP2 DUP3 AND OR SWAP1 SWAP2 SSTORE PUSH1 0x5 DUP1 SLOAD SWAP3 SWAP1 SWAP4 AND SWAP2 AND OR SWAP1 SSTORE JUMP JUMPDEST PUSH1 0x1C SLOAD PUSH4 0x1000000 SWAP1 DIV PUSH1 0x1 PUSH1 0x1 PUSH1 0xA0 SHL SUB AND CALLER EQ PUSH2 0xE2A JUMPI PUSH1 0x40 DUP1 MLOAD PUSH3 0x461BCD PUSH1 0xE5 SHL DUP2 MSTORE PUSH1 0x20 PUSH1 0x4 DUP3 ADD MSTORE PUSH1 0x10 PUSH1 0x24 DUP3 ADD MSTORE PUSH16 0x696E76616C6964206164647265737321 PUSH1 0x80 SHL PUSH1 0x44 DUP3 ADD MSTORE SWAP1 MLOAD SWAP1 DUP2 SWAP1 SUB PUSH1 0x64 ADD SWAP1 REVERT JUMPDEST PUSH2 0xE34 DUP3 DUP3 PUSH2 0x29D8 JUMP JUMPDEST POP POP JUMP JUMPDEST CALLER PUSH2 0xE41 PUSH2 0x2657 JUMP JUMPDEST PUSH1 0xF SSTORE PUSH2 0xE4C PUSH2 0x17F7 JUMP JUMPDEST PUSH1 0xE SSTORE PUSH1 0x1 PUSH1 0x1 PUSH1 0xA0 SHL SUB DUP2 AND ISZERO PUSH2 0xE8D JUMPI PUSH2 0xE67 DUP2 PUSH2 0xA67 JUMP JUMPDEST PUSH1 0x1 PUSH1 0x1 PUSH1 0xA0 SHL SUB DUP3 AND PUSH1 0x0 SWAP1 DUP2 MSTORE PUSH1 0x16 PUSH1 0x20 MSTORE PUSH1 0x40 SWAP1 KECCAK256 PUSH1 0x1 DUP2 ADD SWAP2 SWAP1 SWAP2 SSTORE PUSH1 0xF SLOAD SWAP1 SSTORE JUMPDEST PUSH1 0xC SLOAD TIMESTAMP LT ISZERO DUP1 ISZERO PUSH2 0xEAD JUMPI POP PUSH1 0x1C SLOAD PUSH3 0x10000 SWAP1 DIV PUSH1 0xFF AND ISZERO ISZERO PUSH1 0x1 EQ ISZERO JUMPDEST ISZERO PUSH2 0x1004 JUMPI PUSH1 0x3 SLOAD PUSH1 0x9 SLOAD PUSH1 0x40 DUP1 MLOAD PUSH4 0x70A08231 PUSH1 0xE0 SHL DUP2 MSTORE PUSH1 0x1 PUSH1 0x1 PUSH1 0xA0 SHL SUB SWAP3 DUP4 AND PUSH1 0x4 DUP3 ADD MSTORE SWAP1 MLOAD PUSH1 0x0 SWAP4 PUSH2 0xF46 SWAP4 PUSH1 0x64 SWAP4 PUSH2 0xABF SWAP4 PUSH1 0x32 SWAP4 SWAP3 SWAP1 SWAP3 AND SWAP2 PUSH4 0x70A08231 SWAP2 PUSH1 0x24 DUP1 DUP3 ADD SWAP3 PUSH1 0x20 SWAP3 SWAP1 SWAP2 SWAP1 DUP3 SWAP1 SUB ADD DUP2 DUP7 DUP1 EXTCODESIZE ISZERO DUP1 ISZERO PUSH2 0xF14 JUMPI PUSH1 0x0 DUP1 REVERT JUMPDEST POP GAS STATICCALL ISZERO DUP1 ISZERO PUSH2 0xF28 JUMPI RETURNDATASIZE PUSH1 0x0 DUP1 RETURNDATACOPY RETURNDATASIZE PUSH1 0x0 REVERT JUMPDEST POP POP POP POP PUSH1 0x40 MLOAD RETURNDATASIZE PUSH1 0x20 DUP2 LT ISZERO PUSH2 0xF3E JUMPI PUSH1 0x0 DUP1 REVERT JUMPDEST POP MLOAD SWAP1 PUSH2 0x28E3 JUMP JUMPDEST SWAP1 POP PUSH1 0x0 PUSH2 0xF65 PUSH2 0x2710 PUSH2 0xABF PUSH1 0x1A SLOAD DUP6 PUSH2 0x28E3 SWAP1 SWAP2 SWAP1 PUSH4 0xFFFFFFFF AND JUMP JUMPDEST SWAP1 POP PUSH1 0x0 PUSH2 0xF84 PUSH2 0x2710 PUSH2 0xABF PUSH1 0x19 SLOAD DUP7 PUSH2 0x28E3 SWAP1 SWAP2 SWAP1 PUSH4 0xFFFFFFFF AND JUMP JUMPDEST SWAP1 POP PUSH1 0x0 PUSH2 0xF96 DUP4 PUSH2 0xAAA DUP7 DUP6 PUSH2 0x28A1 JUMP JUMPDEST PUSH1 0x9 SLOAD PUSH1 0x3 SLOAD SWAP2 SWAP3 POP PUSH2 0xFB7 SWAP2 PUSH1 0x1 PUSH1 0x1 PUSH1 0xA0 SHL SUB SWAP1 DUP2 AND SWAP2 AND ADDRESS DUP8 PUSH2 0x2A28 JUMP JUMPDEST PUSH1 0xA DUP2 SWAP1 SSTORE PUSH2 0xFC9 DUP2 PUSH3 0x127500 PUSH2 0x293C JUMP JUMPDEST PUSH1 0xD SSTORE PUSH2 0xFD9 TIMESTAMP PUSH3 0x127500 PUSH2 0x297E JUMP JUMPDEST PUSH1 0xC SSTORE PUSH1 0xA SLOAD PUSH1 0x40 DUP1 MLOAD SWAP2 DUP3 MSTORE MLOAD PUSH1 0x0 DUP1 MLOAD PUSH1 0x20 PUSH2 0x2FBF DUP4 CODECOPY DUP2 MLOAD SWAP2 MSTORE SWAP2 DUP2 SWAP1 SUB PUSH1 0x20 ADD SWAP1 LOG1 POP POP POP POP JUMPDEST PUSH1 0xB SLOAD TIMESTAMP GT PUSH2 0x1046 JUMPI PUSH1 0x40 DUP1 MLOAD PUSH3 0x461BCD PUSH1 0xE5 SHL DUP2 MSTORE PUSH1 0x20 PUSH1 0x4 DUP3 ADD MSTORE PUSH1 0x9 PUSH1 0x24 DUP3 ADD MSTORE PUSH9 0x1B9BDD081CDD185C9D PUSH1 0xBA SHL PUSH1 0x44 DUP3 ADD MSTORE SWAP1 MLOAD SWAP1 DUP2 SWAP1 SUB PUSH1 0x64 ADD SWAP1 REVERT JUMPDEST PUSH1 0x0 DUP3 GT PUSH2 0x108F JUMPI PUSH1 0x40 DUP1 MLOAD PUSH3 0x461BCD PUSH1 0xE5 SHL DUP2 MSTORE PUSH1 0x20 PUSH1 0x4 DUP3 ADD MSTORE PUSH1 0x11 PUSH1 0x24 DUP3 ADD MSTORE PUSH17 0x43616E6E6F74207769746864726177203 PUSH1 0x7C SHL PUSH1 0x44 DUP3 ADD MSTORE SWAP1 MLOAD SWAP1 DUP2 SWAP1 SUB PUSH1 0x64 ADD SWAP1 REVERT JUMPDEST PUSH1 0x4 DUP1 SLOAD PUSH1 0x40 DUP1 MLOAD PUSH4 0x70A08231 PUSH1 0xE0 SHL DUP2 MSTORE CALLER SWAP4 DUP2 ADD SWAP4 SWAP1 SWAP4 MSTORE MLOAD DUP5 SWAP3 PUSH1 0x1 PUSH1 0x1 PUSH1 0xA0 SHL SUB SWAP1 SWAP3 AND SWAP2 PUSH4 0x70A08231 SWAP2 PUSH1 0x24 DUP1 DUP4 ADD SWAP3 PUSH1 0x20 SWAP3 SWAP2 SWAP1 DUP3 SWAP1 SUB ADD DUP2 DUP7 DUP1 EXTCODESIZE ISZERO DUP1 ISZERO PUSH2 0x10DD JUMPI PUSH1 0x0 DUP1 REVERT JUMPDEST POP GAS STATICCALL ISZERO DUP1 ISZERO PUSH2 0x10F1 JUMPI RETURNDATASIZE PUSH1 0x0 DUP1 RETURNDATACOPY RETURNDATASIZE PUSH1 0x0 REVERT JUMPDEST POP POP POP POP PUSH1 0x40 MLOAD RETURNDATASIZE PUSH1 0x20 DUP2 LT ISZERO PUSH2 0x1107 JUMPI PUSH1 0x0 DUP1 REVERT JUMPDEST POP MLOAD LT ISZERO PUSH2 0x1114 JUMPI PUSH1 0x0 DUP1 REVERT JUMPDEST PUSH2 0x111D DUP3 PUSH2 0x2A82 JUMP JUMPDEST PUSH1 0x3 SLOAD PUSH2 0x1134 SWAP1 PUSH1 0x1 PUSH1 0x1 PUSH1 0xA0 SHL SUB AND CALLER DUP5 PUSH2 0x2B00 JUMP JUMPDEST PUSH1 0x8 SLOAD PUSH1 0x4 SLOAD PUSH2 0x1153 SWAP2 PUSH1 0x1 PUSH1 0x1 PUSH1 0xA0 SHL SUB SWAP2 DUP3 AND SWAP2 CALLER SWAP2 AND DUP6 PUSH2 0x2A28 JUMP JUMPDEST CALLER PUSH1 0x0 SWAP1 DUP2 MSTORE PUSH1 0x16 PUSH1 0x20 MSTORE PUSH1 0x40 SWAP1 KECCAK256 PUSH1 0x3 ADD SLOAD PUSH1 0x18 SLOAD PUSH2 0x1172 SWAP2 PUSH2 0x28A1 JUMP JUMPDEST PUSH1 0x18 SSTORE PUSH1 0x0 PUSH2 0x1182 CALLER PUSH1 0x1 PUSH2 0x26C6 JUMP JUMPDEST SWAP1 POP PUSH2 0x118F CALLER TIMESTAMP DUP4 PUSH2 0x2B57 JUMP JUMPDEST CALLER PUSH1 0x0 SWAP1 DUP2 MSTORE PUSH1 0x16 PUSH1 0x20 MSTORE PUSH1 0x40 SWAP1 KECCAK256 PUSH1 0x3 ADD SLOAD PUSH1 0x18 SLOAD PUSH2 0x11AE SWAP2 PUSH2 0x297E JUMP JUMPDEST PUSH1 0x18 SSTORE PUSH1 0x40 DUP1 MLOAD DUP5 DUP2 MSTORE SWAP1 MLOAD CALLER SWAP2 PUSH32 0x884EDAD9CE6FA2440D8A54CC123490EB96D2768479D49FF9C7366125A9424364 SWAP2 SWAP1 DUP2 SWAP1 SUB PUSH1 0x20 ADD SWAP1 LOG2 POP POP POP JUMP JUMPDEST PUSH1 0x9 SLOAD PUSH1 0x1 PUSH1 0x1 PUSH1 0xA0 SHL SUB AND DUP2 JUMP JUMPDEST PUSH1 0x1B PUSH1 0x20 SWAP1 DUP2 MSTORE PUSH1 0x0 SWAP3 DUP4 MSTORE PUSH1 0x40 DUP1 DUP5 KECCAK256 SWAP1 SWAP2 MSTORE SWAP1 DUP3 MSTORE SWAP1 KECCAK256 DUP1 SLOAD PUSH1 0x1 DUP3 ADD SLOAD PUSH1 0x2 SWAP1 SWAP3 ADD SLOAD SWAP1 SWAP2 SWAP1 DUP4 JUMP JUMPDEST PUSH1 0x4 SLOAD PUSH1 0x1 PUSH1 0x1 PUSH1 0xA0 SHL SUB AND DUP2 JUMP JUMPDEST CALLER PUSH2 0x123F PUSH2 0x2657 JUMP JUMPDEST PUSH1 0xF SSTORE PUSH2 0x124A PUSH2 0x17F7 JUMP JUMPDEST PUSH1 0xE SSTORE PUSH1 0x1 PUSH1 0x1 PUSH1 0xA0 SHL SUB DUP2 AND ISZERO PUSH2 0x128B JUMPI PUSH2 0x1265 DUP2 PUSH2 0xA67 JUMP JUMPDEST PUSH1 0x1 PUSH1 0x1 PUSH1 0xA0 SHL SUB DUP3 AND PUSH1 0x0 SWAP1 DUP2 MSTORE PUSH1 0x16 PUSH1 0x20 MSTORE PUSH1 0x40 SWAP1 KECCAK256 PUSH1 0x1 DUP2 ADD SWAP2 SWAP1 SWAP2 SSTORE PUSH1 0xF SLOAD SWAP1 SSTORE JUMPDEST PUSH1 0xC SLOAD TIMESTAMP LT ISZERO DUP1 ISZERO PUSH2 0x12AB JUMPI POP PUSH1 0x1C SLOAD PUSH3 0x10000 SWAP1 DIV PUSH1 0xFF AND ISZERO ISZERO PUSH1 0x1 EQ ISZERO JUMPDEST ISZERO PUSH2 0x13D0 JUMPI PUSH1 0x3 SLOAD PUSH1 0x9 SLOAD PUSH1 0x40 DUP1 MLOAD PUSH4 0x70A08231 PUSH1 0xE0 SHL DUP2 MSTORE PUSH1 0x1 PUSH1 0x1 PUSH1 0xA0 SHL SUB SWAP3 DUP4 AND PUSH1 0x4 DUP3 ADD MSTORE SWAP1 MLOAD PUSH1 0x0 SWAP4 PUSH2 0x1312 SWAP4 PUSH1 0x64 SWAP4 PUSH2 0xABF SWAP4 PUSH1 0x32 SWAP4 SWAP3 SWAP1 SWAP3 AND SWAP2 PUSH4 0x70A08231 SWAP2 PUSH1 0x24 DUP1 DUP3 ADD SWAP3 PUSH1 0x20 SWAP3 SWAP1 SWAP2 SWAP1 DUP3 SWAP1 SUB ADD DUP2 DUP7 DUP1 EXTCODESIZE ISZERO DUP1 ISZERO PUSH2 0xF14 JUMPI PUSH1 0x0 DUP1 REVERT JUMPDEST SWAP1 POP PUSH1 0x0 PUSH2 0x1331 PUSH2 0x2710 PUSH2 0xABF PUSH1 0x1A SLOAD DUP6 PUSH2 0x28E3 SWAP1 SWAP2 SWAP1 PUSH4 0xFFFFFFFF AND JUMP JUMPDEST SWAP1 POP PUSH1 0x0 PUSH2 0x1350 PUSH2 0x2710 PUSH2 0xABF PUSH1 0x19 SLOAD DUP7 PUSH2 0x28E3 SWAP1 SWAP2 SWAP1 PUSH4 0xFFFFFFFF AND JUMP JUMPDEST SWAP1 POP PUSH1 0x0 PUSH2 0x1362 DUP4 PUSH2 0xAAA DUP7 DUP6 PUSH2 0x28A1 JUMP JUMPDEST PUSH1 0x9 SLOAD PUSH1 0x3 SLOAD SWAP2 SWAP3 POP PUSH2 0x1383 SWAP2 PUSH1 0x1 PUSH1 0x1 PUSH1 0xA0 SHL SUB SWAP1 DUP2 AND SWAP2 AND ADDRESS DUP8 PUSH2 0x2A28 JUMP JUMPDEST PUSH1 0xA DUP2 SWAP1 SSTORE PUSH2 0x1395 DUP2 PUSH3 0x127500 PUSH2 0x293C JUMP JUMPDEST PUSH1 0xD SSTORE PUSH2 0x13A5 TIMESTAMP PUSH3 0x127500 PUSH2 0x297E JUMP JUMPDEST PUSH1 0xC SSTORE PUSH1 0xA SLOAD PUSH1 0x40 DUP1 MLOAD SWAP2 DUP3 MSTORE MLOAD PUSH1 0x0 DUP1 MLOAD PUSH1 0x20 PUSH2 0x2FBF DUP4 CODECOPY DUP2 MLOAD SWAP2 MSTORE SWAP2 DUP2 SWAP1 SUB PUSH1 0x20 ADD SWAP1 LOG1 POP POP POP POP JUMPDEST PUSH1 0xB SLOAD TIMESTAMP GT PUSH2 0x1412 JUMPI PUSH1 0x40 DUP1 MLOAD PUSH3 0x461BCD PUSH1 0xE5 SHL DUP2 MSTORE PUSH1 0x20 PUSH1 0x4 DUP3 ADD MSTORE PUSH1 0x9 PUSH1 0x24 DUP3 ADD MSTORE PUSH9 0x1B9BDD081CDD185C9D PUSH1 0xBA SHL PUSH1 0x44 DUP3 ADD MSTORE SWAP1 MLOAD SWAP1 DUP2 SWAP1 SUB PUSH1 0x64 ADD SWAP1 REVERT JUMPDEST PUSH1 0x1C SLOAD PUSH3 0x10000 SWAP1 DIV PUSH1 0xFF AND ISZERO ISZERO PUSH1 0x1 EQ ISZERO PUSH2 0x146A JUMPI PUSH1 0x40 DUP1 MLOAD PUSH3 0x461BCD PUSH1 0xE5 SHL DUP2 MSTORE PUSH1 0x20 PUSH1 0x4 DUP3 ADD MSTORE PUSH1 0x12 PUSH1 0x24 DUP3 ADD MSTORE PUSH18 0x1C995DD85C99081A185CC81CDD1BDC1C1959 PUSH1 0x72 SHL PUSH1 0x44 DUP3 ADD MSTORE SWAP1 MLOAD SWAP1 DUP2 SWAP1 SUB PUSH1 0x64 ADD SWAP1 REVERT JUMPDEST PUSH1 0x0 PUSH2 0x1475 CALLER PUSH2 0xA67 JUMP JUMPDEST SWAP1 POP DUP1 ISZERO PUSH2 0xE34 JUMPI CALLER PUSH1 0x0 SWAP1 DUP2 MSTORE PUSH1 0x16 PUSH1 0x20 MSTORE PUSH1 0x40 DUP2 KECCAK256 PUSH1 0x1 ADD DUP2 SWAP1 SSTORE PUSH1 0x15 SLOAD PUSH1 0x14 SLOAD PUSH2 0x14A8 SWAP2 SWAP1 PUSH2 0xABF SWAP1 DUP6 SWAP1 PUSH2 0x28E3 JUMP JUMPDEST SWAP1 POP DUP1 ISZERO PUSH2 0x14CD JUMPI PUSH1 0x7 SLOAD PUSH1 0x3 SLOAD PUSH2 0x14CD SWAP2 PUSH1 0x1 PUSH1 0x1 PUSH1 0xA0 SHL SUB SWAP2 DUP3 AND SWAP2 AND DUP4 PUSH2 0x2B00 JUMP JUMPDEST PUSH1 0x0 PUSH2 0x14D9 DUP4 DUP4 PUSH2 0x28A1 JUMP JUMPDEST SWAP1 POP DUP1 ISZERO PUSH2 0x14F8 JUMPI PUSH1 0x3 SLOAD PUSH2 0x14F8 SWAP1 PUSH1 0x1 PUSH1 0x1 PUSH1 0xA0 SHL SUB AND CALLER DUP4 PUSH2 0x2B00 JUMP JUMPDEST CALLER PUSH1 0x0 SWAP1 DUP2 MSTORE PUSH1 0x16 PUSH1 0x20 MSTORE PUSH1 0x40 SWAP1 KECCAK256 PUSH1 0x3 ADD SLOAD PUSH1 0x18 SLOAD PUSH2 0x1517 SWAP2 PUSH2 0x28A1 JUMP JUMPDEST PUSH1 0x18 SSTORE PUSH1 0x0 PUSH2 0x1527 CALLER PUSH1 0x1 PUSH2 0x26C6 JUMP JUMPDEST SWAP1 POP PUSH2 0x1534 CALLER TIMESTAMP DUP4 PUSH2 0x2B57 JUMP JUMPDEST CALLER PUSH1 0x0 SWAP1 DUP2 MSTORE PUSH1 0x16 PUSH1 0x20 MSTORE PUSH1 0x40 SWAP1 KECCAK256 PUSH1 0x3 ADD SLOAD PUSH1 0x18 SLOAD PUSH2 0x1553 SWAP2 PUSH2 0x297E JUMP JUMPDEST PUSH1 0x18 SSTORE PUSH1 0x40 DUP1 MLOAD DUP6 DUP2 MSTORE SWAP1 MLOAD CALLER SWAP2 PUSH32 0xE2403640BA68FED3A2F88B7557551D1993F84B99BB10FF833F0CF8DB0C5E0486 SWAP2 SWAP1 DUP2 SWAP1 SUB PUSH1 0x20 ADD SWAP1 LOG2 POP POP POP POP POP JUMP JUMPDEST PUSH1 0x13 SLOAD DUP2 JUMP JUMPDEST PUSH1 0x0 SLOAD PUSH1 0x1 PUSH1 0x1 PUSH1 0xA0 SHL SUB AND CALLER EQ PUSH2 0x15E9 JUMPI PUSH1 0x40 DUP1 MLOAD PUSH3 0x461BCD PUSH1 0xE5 SHL DUP2 MSTORE PUSH1 0x20 PUSH1 0x4 DUP3 ADD MSTORE PUSH1 0xE PUSH1 0x24 DUP3 ADD MSTORE PUSH14 0x6E6F7420676F7665726E616E6365 PUSH1 0x90 SHL PUSH1 0x44 DUP3 ADD MSTORE SWAP1 MLOAD SWAP1 DUP2 SWAP1 SUB PUSH1 0x64 ADD SWAP1 REVERT JUMPDEST PUSH1 0x19 SWAP2 SWAP1 SWAP2 SSTORE PUSH1 0x1A SSTORE JUMP JUMPDEST PUSH1 0x1C SLOAD PUSH4 0x1000000 SWAP1 DIV PUSH1 0x1 PUSH1 0x1 PUSH1 0xA0 SHL SUB AND DUP2 JUMP JUMPDEST PUSH1 0x5 SLOAD PUSH1 0x1 PUSH1 0x1 PUSH1 0xA0 SHL SUB AND DUP2 JUMP JUMPDEST PUSH1 0x7 SLOAD PUSH1 0x1 PUSH1 0x1 PUSH1 0xA0 SHL SUB AND DUP2 JUMP JUMPDEST PUSH1 0x0 SLOAD PUSH1 0x1 PUSH1 0x1 PUSH1 0xA0 SHL SUB AND CALLER EQ PUSH2 0x1678 JUMPI PUSH1 0x40 DUP1 MLOAD PUSH3 0x461BCD PUSH1 0xE5 SHL DUP2 MSTORE PUSH1 0x20 PUSH1 0x4 DUP3 ADD MSTORE PUSH1 0xE PUSH1 0x24 DUP3 ADD MSTORE PUSH14 0x6E6F7420676F7665726E616E6365 PUSH1 0x90 SHL PUSH1 0x44 DUP3 ADD MSTORE SWAP1 MLOAD SWAP1 DUP2 SWAP1 SUB PUSH1 0x64 ADD SWAP1 REVERT JUMPDEST PUSH1 0x17 SSTORE JUMP JUMPDEST PUSH1 0x1C SLOAD PUSH3 0x10000 SWAP1 DIV PUSH1 0xFF AND DUP2 JUMP JUMPDEST PUSH1 0xD SLOAD DUP2 JUMP JUMPDEST PUSH1 0xE SLOAD DUP2 JUMP JUMPDEST PUSH1 0x18 SLOAD DUP2 JUMP JUMPDEST PUSH1 0x1 PUSH1 0x1 PUSH1 0xA0 SHL SUB AND PUSH1 0x0 SWAP1 DUP2 MSTORE PUSH1 0x2 PUSH1 0x20 MSTORE PUSH1 0x40 SWAP1 KECCAK256 SLOAD SWAP1 JUMP JUMPDEST PUSH1 0x1 PUSH1 0x1 PUSH1 0xA0 SHL SUB DUP3 AND PUSH1 0x0 SWAP1 DUP2 MSTORE PUSH1 0x1B PUSH1 0x20 SWAP1 DUP2 MSTORE PUSH1 0x40 DUP1 DUP4 KECCAK256 PUSH1 0xFF DUP6 AND DUP5 MSTORE SWAP1 SWAP2 MSTORE DUP2 KECCAK256 SLOAD ISZERO DUP1 ISZERO SWAP1 PUSH2 0x1728 JUMPI POP PUSH1 0x1 PUSH1 0x1 PUSH1 0xA0 SHL SUB DUP4 AND PUSH1 0x0 SWAP1 DUP2 MSTORE PUSH1 0x1B PUSH1 0x20 SWAP1 DUP2 MSTORE PUSH1 0x40 DUP1 DUP4 KECCAK256 PUSH1 0xFF DUP7 AND DUP5 MSTORE SWAP1 SWAP2 MSTORE DUP2 KECCAK256 PUSH1 0x2 ADD SLOAD PUSH2 0x1726 SWAP1 PUSH2 0x7080 SWAP1 PUSH2 0xABF SWAP1 TIMESTAMP SWAP1 PUSH2 0x28A1 JUMP JUMPDEST GT JUMPDEST ISZERO PUSH2 0x177F JUMPI DUP2 PUSH1 0xFF AND PUSH1 0x3 EQ DUP1 PUSH2 0x1742 JUMPI POP DUP2 PUSH1 0xFF AND PUSH1 0x1 EQ JUMPDEST ISZERO PUSH2 0x174F JUMPI POP PUSH1 0x0 PUSH2 0xACB JUMP JUMPDEST POP PUSH1 0x1 PUSH1 0x1 PUSH1 0xA0 SHL SUB DUP3 AND PUSH1 0x0 SWAP1 DUP2 MSTORE PUSH1 0x1B PUSH1 0x20 SWAP1 DUP2 MSTORE PUSH1 0x40 DUP1 DUP4 KECCAK256 PUSH1 0xFF DUP6 AND DUP5 MSTORE SWAP1 SWAP2 MSTORE SWAP1 KECCAK256 PUSH1 0x1 ADD SLOAD PUSH2 0xACB JUMP JUMPDEST POP PUSH1 0x0 SWAP3 SWAP2 POP POP JUMP JUMPDEST PUSH1 0x19 SLOAD DUP2 JUMP JUMPDEST PUSH1 0x0 SLOAD PUSH1 0x1 PUSH1 0x1 PUSH1 0xA0 SHL SUB AND CALLER EQ PUSH2 0x17DE JUMPI PUSH1 0x40 DUP1 MLOAD PUSH3 0x461BCD PUSH1 0xE5 SHL DUP2 MSTORE PUSH1 0x20 PUSH1 0x4 DUP3 ADD MSTORE PUSH1 0xE PUSH1 0x24 DUP3 ADD MSTORE PUSH14 0x6E6F7420676F7665726E616E6365 PUSH1 0x90 SHL PUSH1 0x44 DUP3 ADD MSTORE SWAP1 MLOAD SWAP1 DUP2 SWAP1 SUB PUSH1 0x64 ADD SWAP1 REVERT JUMPDEST PUSH1 0xA SSTORE JUMP JUMPDEST PUSH2 0x17EC DUP2 PUSH2 0xE38 JUMP JUMPDEST PUSH2 0x17F4 PUSH2 0x1236 JUMP JUMPDEST POP JUMP JUMPDEST PUSH1 0x0 PUSH2 0x1805 TIMESTAMP PUSH1 0xC SLOAD PUSH2 0x2BAD JUMP JUMPDEST SWAP1 POP SWAP1 JUMP JUMPDEST DUP1 PUSH2 0x1813 PUSH2 0x2657 JUMP JUMPDEST PUSH1 0xF SSTORE PUSH2 0x181E PUSH2 0x17F7 JUMP JUMPDEST PUSH1 0xE SSTORE PUSH1 0x1 PUSH1 0x1 PUSH1 0xA0 SHL SUB DUP2 AND ISZERO PUSH2 0x185F JUMPI PUSH2 0x1839 DUP2 PUSH2 0xA67 JUMP JUMPDEST PUSH1 0x1 PUSH1 0x1 PUSH1 0xA0 SHL SUB DUP3 AND PUSH1 0x0 SWAP1 DUP2 MSTORE PUSH1 0x16 PUSH1 0x20 MSTORE PUSH1 0x40 SWAP1 KECCAK256 PUSH1 0x1 DUP2 ADD SWAP2 SWAP1 SWAP2 SSTORE PUSH1 0xF SLOAD SWAP1 SSTORE JUMPDEST PUSH1 0x1 PUSH1 0x1 PUSH1 0xA0 SHL SUB DUP3 AND PUSH1 0x0 SWAP1 DUP2 MSTORE PUSH1 0x16 PUSH1 0x20 MSTORE PUSH1 0x40 DUP2 KECCAK256 PUSH1 0x4 ADD SLOAD PUSH2 0x188E SWAP1 PUSH2 0x7080 SWAP1 PUSH2 0xABF SWAP1 TIMESTAMP SWAP1 PUSH2 0x28A1 JUMP JUMPDEST SWAP1 POP PUSH1 0x0 PUSH2 0x189D DUP5 PUSH1 0x3 PUSH2 0x26C6 JUMP JUMPDEST SWAP1 POP DUP2 ISZERO PUSH2 0x19F3 JUMPI PUSH1 0x1 PUSH1 0x1 PUSH1 0xA0 SHL SUB DUP5 AND PUSH1 0x0 SWAP1 DUP2 MSTORE PUSH1 0x16 PUSH1 0x20 MSTORE PUSH1 0x40 SWAP1 KECCAK256 PUSH1 0x3 ADD SLOAD PUSH1 0x18 SLOAD PUSH2 0x18CD SWAP2 PUSH2 0x28A1 JUMP JUMPDEST PUSH1 0x18 SSTORE PUSH1 0x1 PUSH1 0x1 PUSH1 0xA0 SHL SUB DUP5 AND PUSH1 0x0 SWAP1 DUP2 MSTORE PUSH1 0x16 PUSH1 0x20 MSTORE PUSH1 0x40 DUP2 KECCAK256 PUSH1 0x2 SWAP1 DUP2 ADD SLOAD SWAP2 SWAP1 PUSH2 0x18FB SWAP1 DUP8 SWAP1 PUSH2 0x26C6 JUMP JUMPDEST SWAP1 POP PUSH1 0x0 JUMPDEST DUP5 DUP2 PUSH1 0xFF AND LT ISZERO PUSH2 0x193E JUMPI PUSH2 0x1924 PUSH2 0x191D PUSH1 0x64 PUSH2 0xABF DUP6 DUP8 PUSH2 0x28E3 JUMP JUMPDEST DUP5 SWAP1 PUSH2 0x297E JUMP JUMPDEST SWAP3 POP DUP3 DUP5 LT ISZERO PUSH2 0x1936 JUMPI DUP4 SWAP3 POP PUSH2 0x193E JUMP JUMPDEST PUSH1 0x1 ADD PUSH2 0x1900 JUMP JUMPDEST POP PUSH1 0x1 PUSH1 0x1 PUSH1 0xA0 SHL SUB DUP7 AND PUSH1 0x0 SWAP1 DUP2 MSTORE PUSH1 0x16 PUSH1 0x20 MSTORE PUSH1 0x40 SWAP1 KECCAK256 PUSH1 0x2 ADD DUP3 SWAP1 SSTORE PUSH2 0x1970 PUSH2 0x1969 DUP8 PUSH2 0x169E JUMP JUMPDEST DUP4 SWAP1 PUSH2 0x28E3 JUMP JUMPDEST PUSH1 0x1 PUSH1 0x1 PUSH1 0xA0 SHL SUB DUP8 AND PUSH1 0x0 SWAP1 DUP2 MSTORE PUSH1 0x16 PUSH1 0x20 MSTORE PUSH1 0x40 SWAP1 KECCAK256 PUSH1 0x3 ADD SSTORE PUSH2 0x19BD PUSH2 0x199B DUP6 PUSH2 0x7080 PUSH2 0x28E3 JUMP JUMPDEST PUSH1 0x1 PUSH1 0x1 PUSH1 0xA0 SHL SUB DUP9 AND PUSH1 0x0 SWAP1 DUP2 MSTORE PUSH1 0x16 PUSH1 0x20 MSTORE PUSH1 0x40 SWAP1 KECCAK256 PUSH1 0x4 ADD SLOAD SWAP1 PUSH2 0x297E JUMP JUMPDEST PUSH1 0x1 PUSH1 0x1 PUSH1 0xA0 SHL SUB DUP8 AND PUSH1 0x0 SWAP1 DUP2 MSTORE PUSH1 0x16 PUSH1 0x20 MSTORE PUSH1 0x40 SWAP1 KECCAK256 PUSH1 0x4 DUP2 ADD SWAP2 SWAP1 SWAP2 SSTORE PUSH1 0x3 ADD SLOAD PUSH1 0x18 SLOAD PUSH2 0x19ED SWAP2 PUSH2 0x297E JUMP JUMPDEST PUSH1 0x18 SSTORE POP POP JUMPDEST POP POP POP POP JUMP JUMPDEST PUSH1 0x15 SLOAD DUP2 JUMP JUMPDEST PUSH1 0x6 SLOAD PUSH1 0x1 PUSH1 0x1 PUSH1 0xA0 SHL SUB AND DUP2 JUMP JUMPDEST PUSH1 0x17 SLOAD DUP2 JUMP JUMPDEST PUSH1 0x8 SLOAD PUSH1 0x1 PUSH1 0x1 PUSH1 0xA0 SHL SUB AND DUP2 JUMP JUMPDEST CALLER PUSH2 0x1A2C PUSH2 0x2657 JUMP JUMPDEST PUSH1 0xF SSTORE PUSH2 0x1A37 PUSH2 0x17F7 JUMP JUMPDEST PUSH1 0xE SSTORE PUSH1 0x1 PUSH1 0x1 PUSH1 0xA0 SHL SUB DUP2 AND ISZERO PUSH2 0x1A78 JUMPI PUSH2 0x1A52 DUP2 PUSH2 0xA67 JUMP JUMPDEST PUSH1 0x1 PUSH1 0x1 PUSH1 0xA0 SHL SUB DUP3 AND PUSH1 0x0 SWAP1 DUP2 MSTORE PUSH1 0x16 PUSH1 0x20 MSTORE PUSH1 0x40 SWAP1 KECCAK256 PUSH1 0x1 DUP2 ADD SWAP2 SWAP1 SWAP2 SSTORE PUSH1 0xF SLOAD SWAP1 SSTORE JUMPDEST PUSH1 0xC SLOAD TIMESTAMP LT ISZERO DUP1 ISZERO PUSH2 0x1A98 JUMPI POP PUSH1 0x1C SLOAD PUSH3 0x10000 SWAP1 DIV PUSH1 0xFF AND ISZERO ISZERO PUSH1 0x1 EQ ISZERO JUMPDEST ISZERO PUSH2 0x1BBD JUMPI PUSH1 0x3 SLOAD PUSH1 0x9 SLOAD PUSH1 0x40 DUP1 MLOAD PUSH4 0x70A08231 PUSH1 0xE0 SHL DUP2 MSTORE PUSH1 0x1 PUSH1 0x1 PUSH1 0xA0 SHL SUB SWAP3 DUP4 AND PUSH1 0x4 DUP3 ADD MSTORE SWAP1 MLOAD PUSH1 0x0 SWAP4 PUSH2 0x1AFF SWAP4 PUSH1 0x64 SWAP4 PUSH2 0xABF SWAP4 PUSH1 0x32 SWAP4 SWAP3 SWAP1 SWAP3 AND SWAP2 PUSH4 0x70A08231 SWAP2 PUSH1 0x24 DUP1 DUP3 ADD SWAP3 PUSH1 0x20 SWAP3 SWAP1 SWAP2 SWAP1 DUP3 SWAP1 SUB ADD DUP2 DUP7 DUP1 EXTCODESIZE ISZERO DUP1 ISZERO PUSH2 0xF14 JUMPI PUSH1 0x0 DUP1 REVERT JUMPDEST SWAP1 POP PUSH1 0x0 PUSH2 0x1B1E PUSH2 0x2710 PUSH2 0xABF PUSH1 0x1A SLOAD DUP6 PUSH2 0x28E3 SWAP1 SWAP2 SWAP1 PUSH4 0xFFFFFFFF AND JUMP JUMPDEST SWAP1 POP PUSH1 0x0 PUSH2 0x1B3D PUSH2 0x2710 PUSH2 0xABF PUSH1 0x19 SLOAD DUP7 PUSH2 0x28E3 SWAP1 SWAP2 SWAP1 PUSH4 0xFFFFFFFF AND JUMP JUMPDEST SWAP1 POP PUSH1 0x0 PUSH2 0x1B4F DUP4 PUSH2 0xAAA DUP7 DUP6 PUSH2 0x28A1 JUMP JUMPDEST PUSH1 0x9 SLOAD PUSH1 0x3 SLOAD SWAP2 SWAP3 POP PUSH2 0x1B70 SWAP2 PUSH1 0x1 PUSH1 0x1 PUSH1 0xA0 SHL SUB SWAP1 DUP2 AND SWAP2 AND ADDRESS DUP8 PUSH2 0x2A28 JUMP JUMPDEST PUSH1 0xA DUP2 SWAP1 SSTORE PUSH2 0x1B82 DUP2 PUSH3 0x127500 PUSH2 0x293C JUMP JUMPDEST PUSH1 0xD SSTORE PUSH2 0x1B92 TIMESTAMP PUSH3 0x127500 PUSH2 0x297E JUMP JUMPDEST PUSH1 0xC SSTORE PUSH1 0xA SLOAD PUSH1 0x40 DUP1 MLOAD SWAP2 DUP3 MSTORE MLOAD PUSH1 0x0 DUP1 MLOAD PUSH1 0x20 PUSH2 0x2FBF DUP4 CODECOPY DUP2 MLOAD SWAP2 MSTORE SWAP2 DUP2 SWAP1 SUB PUSH1 0x20 ADD SWAP1 LOG1 POP POP POP POP JUMPDEST PUSH1 0xB SLOAD TIMESTAMP GT PUSH2 0x1BFF JUMPI PUSH1 0x40 DUP1 MLOAD PUSH3 0x461BCD PUSH1 0xE5 SHL DUP2 MSTORE PUSH1 0x20 PUSH1 0x4 DUP3 ADD MSTORE PUSH1 0x9 PUSH1 0x24 DUP3 ADD MSTORE PUSH9 0x1B9BDD081CDD185C9D PUSH1 0xBA SHL PUSH1 0x44 DUP3 ADD MSTORE SWAP1 MLOAD SWAP1 DUP2 SWAP1 SUB PUSH1 0x64 ADD SWAP1 REVERT JUMPDEST PUSH1 0x1C SLOAD PUSH1 0xFF PUSH2 0x100 SWAP1 SWAP2 DIV AND ISZERO ISZERO PUSH1 0x1 EQ ISZERO PUSH2 0x1C4B JUMPI PUSH1 0x40 DUP1 MLOAD PUSH3 0x461BCD PUSH1 0xE5 SHL DUP2 MSTORE PUSH1 0x20 PUSH1 0x4 DUP1 DUP4 ADD SWAP2 SWAP1 SWAP2 MSTORE PUSH1 0x24 DUP3 ADD MSTORE PUSH4 0x73746F7 PUSH1 0xE4 SHL PUSH1 0x44 DUP3 ADD MSTORE SWAP1 MLOAD SWAP1 DUP2 SWAP1 SUB PUSH1 0x64 ADD SWAP1 REVERT JUMPDEST PUSH1 0x0 DUP3 GT PUSH2 0x1C91 JUMPI PUSH1 0x40 DUP1 MLOAD PUSH3 0x461BCD PUSH1 0xE5 SHL DUP2 MSTORE PUSH1 0x20 PUSH1 0x4 DUP3 ADD MSTORE PUSH1 0xE PUSH1 0x24 DUP3 ADD MSTORE PUSH14 0x43616E6E6F74207374616B65203 PUSH1 0x94 SHL PUSH1 0x44 DUP3 ADD MSTORE SWAP1 MLOAD SWAP1 DUP2 SWAP1 SUB PUSH1 0x64 ADD SWAP1 REVERT JUMPDEST PUSH1 0x0 PUSH2 0x1C9C CALLER PUSH2 0x169E JUMP JUMPDEST SWAP1 POP PUSH1 0x0 PUSH2 0x1CBB PUSH2 0x2710 PUSH2 0xABF PUSH1 0x1A SLOAD DUP8 PUSH2 0x28E3 SWAP1 SWAP2 SWAP1 PUSH4 0xFFFFFFFF AND JUMP JUMPDEST SWAP1 POP PUSH1 0x0 PUSH2 0x1CDA PUSH2 0x2710 PUSH2 0xABF PUSH1 0x19 SLOAD DUP9 PUSH2 0x28E3 SWAP1 SWAP2 SWAP1 PUSH4 0xFFFFFFFF AND JUMP JUMPDEST SWAP1 POP PUSH1 0x0 PUSH2 0x1CEC DUP4 PUSH2 0xAAA DUP9 DUP6 PUSH2 0x28A1 JUMP JUMPDEST SWAP1 POP PUSH2 0x1CF7 DUP2 PUSH2 0x2BC3 JUMP JUMPDEST PUSH1 0x3 SLOAD PUSH2 0x1D0F SWAP1 PUSH1 0x1 PUSH1 0x1 PUSH1 0xA0 SHL SUB AND CALLER ADDRESS DUP10 PUSH2 0x2A28 JUMP JUMPDEST PUSH1 0x4 DUP1 SLOAD PUSH1 0x40 DUP1 MLOAD PUSH4 0x40C10F19 PUSH1 0xE0 SHL DUP2 MSTORE CALLER SWAP4 DUP2 ADD SWAP4 SWAP1 SWAP4 MSTORE PUSH1 0x24 DUP4 ADD DUP5 SWAP1 MSTORE MLOAD PUSH1 0x1 PUSH1 0x1 PUSH1 0xA0 SHL SUB SWAP1 SWAP2 AND SWAP2 PUSH4 0x40C10F19 SWAP2 PUSH1 0x44 DUP1 DUP4 ADD SWAP3 PUSH1 0x0 SWAP3 SWAP2 SWAP1 DUP3 SWAP1 SUB ADD DUP2 DUP4 DUP8 DUP1 EXTCODESIZE ISZERO DUP1 ISZERO PUSH2 0x1D63 JUMPI PUSH1 0x0 DUP1 REVERT JUMPDEST POP GAS CALL ISZERO DUP1 ISZERO PUSH2 0x1D77 JUMPI RETURNDATASIZE PUSH1 0x0 DUP1 RETURNDATACOPY RETURNDATASIZE PUSH1 0x0 REVERT JUMPDEST POP POP POP POP PUSH1 0x0 PUSH2 0x1D88 CALLER PUSH1 0x1 PUSH2 0x26C6 JUMP JUMPDEST SWAP1 POP DUP5 PUSH2 0x1DBE JUMPI PUSH1 0x0 PUSH2 0x1D9B DUP4 DUP4 PUSH2 0x28E3 JUMP JUMPDEST SWAP1 POP PUSH2 0x1DA8 CALLER TIMESTAMP DUP5 PUSH2 0x2B57 JUMP JUMPDEST PUSH1 0x18 SLOAD PUSH2 0x1DB5 SWAP1 DUP3 PUSH2 0x297E JUMP JUMPDEST PUSH1 0x18 SSTORE POP PUSH2 0x1E55 JUMP JUMPDEST CALLER PUSH1 0x0 SWAP1 DUP2 MSTORE PUSH1 0x16 PUSH1 0x20 MSTORE PUSH1 0x40 SWAP1 KECCAK256 PUSH1 0x3 ADD SLOAD PUSH1 0x18 SLOAD PUSH2 0x1DDD SWAP2 PUSH2 0x28A1 JUMP JUMPDEST PUSH1 0x18 SSTORE PUSH1 0x0 PUSH2 0x1E0C PUSH2 0x1DEF DUP5 DUP5 PUSH2 0x28E3 JUMP JUMPDEST CALLER PUSH1 0x0 SWAP1 DUP2 MSTORE PUSH1 0x16 PUSH1 0x20 MSTORE PUSH1 0x40 SWAP1 KECCAK256 PUSH1 0x2 ADD SLOAD PUSH2 0xAC5 SWAP1 DUP10 PUSH2 0x28E3 JUMP JUMPDEST SWAP1 POP PUSH1 0x0 PUSH2 0x1E23 PUSH2 0x1E1C CALLER PUSH2 0x169E JUMP JUMPDEST DUP4 SWAP1 PUSH2 0x293C JUMP JUMPDEST SWAP1 POP PUSH2 0x1E30 CALLER TIMESTAMP DUP4 PUSH2 0x2B57 JUMP JUMPDEST CALLER PUSH1 0x0 SWAP1 DUP2 MSTORE PUSH1 0x16 PUSH1 0x20 MSTORE PUSH1 0x40 SWAP1 KECCAK256 PUSH1 0x3 ADD SLOAD PUSH1 0x18 SLOAD PUSH2 0x1E4F SWAP2 PUSH2 0x297E JUMP JUMPDEST PUSH1 0x18 SSTORE POP POP JUMPDEST PUSH1 0x40 DUP1 MLOAD DUP9 DUP2 MSTORE SWAP1 MLOAD CALLER SWAP2 PUSH32 0x9E71BC8EEA02A63969F509818F2DAFB9254532904319F9DBDA79B67BD34A5F3D SWAP2 SWAP1 DUP2 SWAP1 SUB PUSH1 0x20 ADD SWAP1 LOG2 POP POP POP POP POP POP POP JUMP JUMPDEST PUSH1 0x0 SLOAD PUSH1 0x1 PUSH1 0x1 PUSH1 0xA0 SHL SUB AND CALLER EQ PUSH2 0x1EE4 JUMPI PUSH1 0x40 DUP1 MLOAD PUSH3 0x461BCD PUSH1 0xE5 SHL DUP2 MSTORE PUSH1 0x20 PUSH1 0x4 DUP3 ADD MSTORE PUSH1 0xE PUSH1 0x24 DUP3 ADD MSTORE PUSH14 0x6E6F7420676F7665726E616E6365 PUSH1 0x90 SHL PUSH1 0x44 DUP3 ADD MSTORE SWAP1 MLOAD SWAP1 DUP2 SWAP1 SUB PUSH1 0x64 ADD SWAP1 REVERT JUMPDEST PUSH1 0x9 DUP1 SLOAD PUSH1 0x1 PUSH1 0x1 PUSH1 0xA0 SHL SUB NOT AND PUSH1 0x1 PUSH1 0x1 PUSH1 0xA0 SHL SUB SWAP3 SWAP1 SWAP3 AND SWAP2 SWAP1 SWAP2 OR SWAP1 SSTORE JUMP JUMPDEST PUSH1 0x0 SLOAD PUSH1 0x1 PUSH1 0x1 PUSH1 0xA0 SHL SUB AND CALLER EQ PUSH2 0x1F56 JUMPI PUSH1 0x40 DUP1 MLOAD PUSH3 0x461BCD PUSH1 0xE5 SHL DUP2 MSTORE PUSH1 0x20 PUSH1 0x4 DUP3 ADD MSTORE PUSH1 0xE PUSH1 0x24 DUP3 ADD MSTORE PUSH14 0x6E6F7420676F7665726E616E6365 PUSH1 0x90 SHL PUSH1 0x44 DUP3 ADD MSTORE SWAP1 MLOAD SWAP1 DUP2 SWAP1 SUB PUSH1 0x64 ADD SWAP1 REVERT JUMPDEST PUSH1 0x1 PUSH1 0x1 PUSH1 0xA0 SHL SUB DUP2 AND PUSH2 0x1FB1 JUMPI PUSH1 0x40 DUP1 MLOAD PUSH3 0x461BCD PUSH1 0xE5 SHL DUP2 MSTORE PUSH1 0x20 PUSH1 0x4 DUP3 ADD MSTORE PUSH1 0x1F PUSH1 0x24 DUP3 ADD MSTORE PUSH32 0x6E657720676F7665726E616E636520746865207A65726F206164647265737300 PUSH1 0x44 DUP3 ADD MSTORE SWAP1 MLOAD SWAP1 DUP2 SWAP1 SUB PUSH1 0x64 ADD SWAP1 REVERT JUMPDEST PUSH1 0x0 DUP1 SLOAD PUSH1 0x40 MLOAD PUSH1 0x1 PUSH1 0x1 PUSH1 0xA0 SHL SUB DUP1 DUP6 AND SWAP4 SWAP3 AND SWAP2 PUSH32 0x5F56BEE8CFFBE9A78652A74A60705EDEDE02AF10B0BBB888CA44B79A0D42CE80 SWAP2 LOG3 PUSH1 0x0 DUP1 SLOAD PUSH1 0x1 PUSH1 0x1 PUSH1 0xA0 SHL SUB NOT AND PUSH1 0x1 PUSH1 0x1 PUSH1 0xA0 SHL SUB SWAP3 SWAP1 SWAP3 AND SWAP2 SWAP1 SWAP2 OR SWAP1 SSTORE JUMP JUMPDEST PUSH1 0x0 SLOAD PUSH1 0x1 PUSH1 0x1 PUSH1 0xA0 SHL SUB AND CALLER EQ PUSH2 0x205C JUMPI PUSH1 0x40 DUP1 MLOAD PUSH3 0x461BCD PUSH1 0xE5 SHL DUP2 MSTORE PUSH1 0x20 PUSH1 0x4 DUP3 ADD MSTORE PUSH1 0xE PUSH1 0x24 DUP3 ADD MSTORE PUSH14 0x6E6F7420676F7665726E616E6365 PUSH1 0x90 SHL PUSH1 0x44 DUP3 ADD MSTORE SWAP1 MLOAD SWAP1 DUP2 SWAP1 SUB PUSH1 0x64 ADD SWAP1 REVERT JUMPDEST PUSH1 0x1C DUP1 SLOAD PUSH1 0xD SWAP4 SWAP1 SWAP4 SSTORE SWAP1 ISZERO ISZERO PUSH2 0x100 MUL PUSH2 0xFF00 NOT SWAP4 ISZERO ISZERO PUSH3 0x10000 MUL PUSH3 0xFF0000 NOT SWAP1 SWAP4 AND SWAP3 SWAP1 SWAP3 OR SWAP3 SWAP1 SWAP3 AND OR SWAP1 SSTORE JUMP JUMPDEST PUSH1 0x10 DUP2 PUSH1 0x3 DUP2 LT PUSH2 0x209B JUMPI INVALID JUMPDEST ADD SLOAD SWAP1 POP DUP2 JUMP JUMPDEST PUSH1 0x5 SLOAD PUSH1 0x1 PUSH1 0x1 PUSH1 0xA0 SHL SUB AND ISZERO DUP1 ISZERO SWAP1 PUSH2 0x20C6 JUMPI POP PUSH1 0x6 SLOAD PUSH1 0x1 PUSH1 0x1 PUSH1 0xA0 SHL SUB AND ISZERO ISZERO JUMPDEST PUSH2 0x2100 JUMPI PUSH1 0x40 DUP1 MLOAD PUSH3 0x461BCD PUSH1 0xE5 SHL DUP2 MSTORE PUSH1 0x20 PUSH1 0x4 DUP3 ADD MSTORE PUSH1 0x6 PUSH1 0x24 DUP3 ADD MSTORE PUSH6 0x1B9BC8139195 PUSH1 0xD2 SHL PUSH1 0x44 DUP3 ADD MSTORE SWAP1 MLOAD SWAP1 DUP2 SWAP1 SUB PUSH1 0x64 ADD SWAP1 REVERT JUMPDEST PUSH1 0xB SLOAD TIMESTAMP GT PUSH2 0x2142 JUMPI PUSH1 0x40 DUP1 MLOAD PUSH3 0x461BCD PUSH1 0xE5 SHL DUP2 MSTORE PUSH1 0x20 PUSH1 0x4 DUP3 ADD MSTORE PUSH1 0x9 PUSH1 0x24 DUP3 ADD MSTORE PUSH9 0x1B9BDD081CDD185C9D PUSH1 0xBA SHL PUSH1 0x44 DUP3 ADD MSTORE SWAP1 MLOAD SWAP1 DUP2 SWAP1 SUB PUSH1 0x64 ADD SWAP1 REVERT JUMPDEST PUSH1 0x5 SLOAD PUSH1 0x40 DUP1 MLOAD PUSH4 0x5071F25 PUSH1 0xE5 SHL DUP2 MSTORE PUSH1 0x4 DUP2 ADD DUP5 SWAP1 MSTORE DUP2 MLOAD PUSH1 0x0 SWAP4 DUP5 SWAP4 PUSH1 0x1 PUSH1 0x1 PUSH1 0xA0 SHL SUB SWAP1 SWAP2 AND SWAP3 PUSH4 0xA0E3E4A0 SWAP3 PUSH1 0x24 DUP1 DUP4 ADD SWAP4 SWAP3 DUP3 SWAP1 SUB ADD DUP2 DUP7 DUP1 EXTCODESIZE ISZERO DUP1 ISZERO PUSH2 0x218E JUMPI PUSH1 0x0 DUP1 REVERT JUMPDEST POP GAS STATICCALL ISZERO DUP1 ISZERO PUSH2 0x21A2 JUMPI RETURNDATASIZE PUSH1 0x0 DUP1 RETURNDATACOPY RETURNDATASIZE PUSH1 0x0 REVERT JUMPDEST POP POP POP POP PUSH1 0x40 MLOAD RETURNDATASIZE PUSH1 0x40 DUP2 LT ISZERO PUSH2 0x21B8 JUMPI PUSH1 0x0 DUP1 REVERT JUMPDEST POP DUP1 MLOAD PUSH1 0x20 SWAP2 DUP3 ADD MLOAD CALLER PUSH1 0x0 DUP2 DUP2 MSTORE PUSH1 0x1B DUP6 MSTORE PUSH1 0x40 DUP1 DUP3 KECCAK256 PUSH1 0xFF DUP7 AND DUP4 MSTORE SWAP1 SWAP6 MSTORE DUP5 DUP2 KECCAK256 DUP2 DUP2 SSTORE PUSH1 0x1 DUP2 ADD DUP3 SWAP1 SSTORE PUSH1 0x2 ADD DUP2 SWAP1 SSTORE PUSH1 0x6 SLOAD DUP6 MLOAD PUSH4 0x21421707 PUSH1 0xE1 SHL DUP2 MSTORE ADDRESS PUSH1 0x4 DUP3 ADD MSTORE PUSH1 0x24 DUP2 ADD SWAP4 SWAP1 SWAP4 MSTORE PUSH1 0x44 DUP4 ADD DUP10 SWAP1 MSTORE SWAP5 MLOAD SWAP4 SWAP7 POP SWAP2 SWAP5 POP PUSH1 0x1 PUSH1 0x1 PUSH1 0xA0 SHL SUB SWAP1 SWAP4 AND SWAP3 PUSH4 0x42842E0E SWAP3 PUSH1 0x64 DUP1 DUP4 ADD SWAP4 SWAP3 DUP3 SWAP1 SUB ADD DUP2 DUP4 DUP8 DUP1 EXTCODESIZE ISZERO DUP1 ISZERO PUSH2 0x2246 JUMPI PUSH1 0x0 DUP1 REVERT JUMPDEST POP GAS CALL ISZERO DUP1 ISZERO PUSH2 0x225A JUMPI RETURNDATASIZE PUSH1 0x0 DUP1 RETURNDATACOPY RETURNDATASIZE PUSH1 0x0 REVERT JUMPDEST POP POP PUSH1 0x40 DUP1 MLOAD DUP7 DUP2 MSTORE PUSH1 0xFF DUP7 AND PUSH1 0x20 DUP3 ADD MSTORE DUP1 DUP3 ADD DUP6 SWAP1 MSTORE SWAP1 MLOAD CALLER SWAP4 POP PUSH32 0x8879B57F28B5A3495EBEEFA33F2099BA45A5EAE291A22B161EDC2F96E51A5650 SWAP3 POP SWAP1 DUP2 SWAP1 SUB PUSH1 0x60 ADD SWAP1 LOG2 POP POP POP JUMP JUMPDEST PUSH1 0x3 SLOAD PUSH1 0x1 PUSH1 0x1 PUSH1 0xA0 SHL SUB AND DUP2 JUMP JUMPDEST PUSH1 0x1C SLOAD PUSH2 0x100 SWAP1 DIV PUSH1 0xFF AND DUP2 JUMP JUMPDEST PUSH1 0x0 SLOAD PUSH1 0x1 PUSH1 0x1 PUSH1 0xA0 SHL SUB AND CALLER EQ PUSH2 0x2315 JUMPI PUSH1 0x40 DUP1 MLOAD PUSH3 0x461BCD PUSH1 0xE5 SHL DUP2 MSTORE PUSH1 0x20 PUSH1 0x4 DUP3 ADD MSTORE PUSH1 0xE PUSH1 0x24 DUP3 ADD MSTORE PUSH14 0x6E6F7420676F7665726E616E6365 PUSH1 0x90 SHL PUSH1 0x44 DUP3 ADD MSTORE SWAP1 MLOAD SWAP1 DUP2 SWAP1 SUB PUSH1 0x64 ADD SWAP1 REVERT JUMPDEST PUSH1 0x1C DUP1 SLOAD PUSH1 0x1 PUSH1 0x1 PUSH1 0xA0 SHL SUB SWAP1 SWAP3 AND PUSH4 0x1000000 MUL PUSH4 0x1000000 PUSH1 0x1 PUSH1 0xB8 SHL SUB NOT SWAP1 SWAP3 AND SWAP2 SWAP1 SWAP2 OR SWAP1 SSTORE JUMP JUMPDEST PUSH1 0x5 SLOAD PUSH1 0x1 PUSH1 0x1 PUSH1 0xA0 SHL SUB AND ISZERO DUP1 ISZERO SWAP1 PUSH2 0x2365 JUMPI POP PUSH1 0x6 SLOAD PUSH1 0x1 PUSH1 0x1 PUSH1 0xA0 SHL SUB AND ISZERO ISZERO JUMPDEST PUSH2 0x239F JUMPI PUSH1 0x40 DUP1 MLOAD PUSH3 0x461BCD PUSH1 0xE5 SHL DUP2 MSTORE PUSH1 0x20 PUSH1 0x4 DUP3 ADD MSTORE PUSH1 0x6 PUSH1 0x24 DUP3 ADD MSTORE PUSH6 0x1B9BC8139195 PUSH1 0xD2 SHL PUSH1 0x44 DUP3 ADD MSTORE SWAP1 MLOAD SWAP1 DUP2 SWAP1 SUB PUSH1 0x64 ADD SWAP1 REVERT JUMPDEST PUSH1 0xB SLOAD TIMESTAMP GT PUSH2 0x23E1 JUMPI PUSH1 0x40 DUP1 MLOAD PUSH3 0x461BCD PUSH1 0xE5 SHL DUP2 MSTORE PUSH1 0x20 PUSH1 0x4 DUP3 ADD MSTORE PUSH1 0x9 PUSH1 0x24 DUP3 ADD MSTORE PUSH9 0x1B9BDD081CDD185C9D PUSH1 0xBA SHL PUSH1 0x44 DUP3 ADD MSTORE SWAP1 MLOAD SWAP1 DUP2 SWAP1 SUB PUSH1 0x64 ADD SWAP1 REVERT JUMPDEST PUSH1 0x5 SLOAD PUSH1 0x40 DUP1 MLOAD PUSH4 0x5071F25 PUSH1 0xE5 SHL DUP2 MSTORE PUSH1 0x4 DUP2 ADD DUP5 SWAP1 MSTORE DUP2 MLOAD PUSH1 0x0 SWAP4 DUP5 SWAP4 PUSH1 0x1 PUSH1 0x1 PUSH1 0xA0 SHL SUB SWAP1 SWAP2 AND SWAP3 PUSH4 0xA0E3E4A0 SWAP3 PUSH1 0x24 DUP1 DUP4 ADD SWAP4 SWAP3 DUP3 SWAP1 SUB ADD DUP2 DUP7 DUP1 EXTCODESIZE ISZERO DUP1 ISZERO PUSH2 0x242D JUMPI PUSH1 0x0 DUP1 REVERT JUMPDEST POP GAS STATICCALL ISZERO DUP1 ISZERO PUSH2 0x2441 JUMPI RETURNDATASIZE PUSH1 0x0 DUP1 RETURNDATACOPY RETURNDATASIZE PUSH1 0x0 REVERT JUMPDEST POP POP POP POP PUSH1 0x40 MLOAD RETURNDATASIZE PUSH1 0x40 DUP2 LT ISZERO PUSH2 0x2457 JUMPI PUSH1 0x0 DUP1 REVERT JUMPDEST POP DUP1 MLOAD PUSH1 0x20 SWAP1 SWAP2 ADD MLOAD SWAP1 SWAP3 POP SWAP1 POP PUSH1 0x3 PUSH1 0xFF DUP4 AND EQ DUP1 PUSH2 0x247A JUMPI POP DUP2 PUSH1 0xFF AND PUSH1 0x1 EQ JUMPDEST ISZERO PUSH2 0x24BE JUMPI PUSH1 0x40 DUP1 MLOAD PUSH3 0x461BCD PUSH1 0xE5 SHL DUP2 MSTORE PUSH1 0x20 PUSH1 0x4 DUP3 ADD MSTORE PUSH1 0xF PUSH1 0x24 DUP3 ADD MSTORE PUSH15 0xA4C2DCCECA40DCDEE840DAC2E8C6D PUSH1 0x8B SHL PUSH1 0x44 DUP3 ADD MSTORE SWAP1 MLOAD SWAP1 DUP2 SWAP1 SUB PUSH1 0x64 ADD SWAP1 REVERT JUMPDEST CALLER PUSH1 0x0 SWAP1 DUP2 MSTORE PUSH1 0x1B PUSH1 0x20 SWAP1 DUP2 MSTORE PUSH1 0x40 DUP1 DUP4 KECCAK256 PUSH1 0xFF DUP7 AND DUP5 MSTORE SWAP1 SWAP2 MSTORE SWAP1 KECCAK256 SLOAD ISZERO PUSH2 0x256B JUMPI PUSH1 0x6 SLOAD CALLER PUSH1 0x0 DUP2 DUP2 MSTORE PUSH1 0x1B PUSH1 0x20 SWAP1 DUP2 MSTORE PUSH1 0x40 DUP1 DUP4 KECCAK256 PUSH1 0xFF DUP9 AND DUP5 MSTORE SWAP1 SWAP2 MSTORE DUP1 DUP3 KECCAK256 SLOAD DUP2 MLOAD PUSH4 0x21421707 PUSH1 0xE1 SHL DUP2 MSTORE ADDRESS PUSH1 0x4 DUP3 ADD MSTORE PUSH1 0x24 DUP2 ADD SWAP5 SWAP1 SWAP5 MSTORE PUSH1 0x44 DUP5 ADD MSTORE MLOAD PUSH1 0x1 PUSH1 0x1 PUSH1 0xA0 SHL SUB SWAP1 SWAP4 AND SWAP3 PUSH4 0x42842E0E SWAP3 PUSH1 0x64 DUP1 DUP3 ADD SWAP4 SWAP3 SWAP2 DUP3 SWAP1 SUB ADD DUP2 DUP4 DUP8 DUP1 EXTCODESIZE ISZERO DUP1 ISZERO PUSH2 0x2552 JUMPI PUSH1 0x0 DUP1 REVERT JUMPDEST POP GAS CALL ISZERO DUP1 ISZERO PUSH2 0x2566 JUMPI RETURNDATASIZE PUSH1 0x0 DUP1 RETURNDATACOPY RETURNDATASIZE PUSH1 0x0 REVERT JUMPDEST POP POP POP POP JUMPDEST CALLER PUSH1 0x0 DUP2 DUP2 MSTORE PUSH1 0x1B PUSH1 0x20 SWAP1 DUP2 MSTORE PUSH1 0x40 DUP1 DUP4 KECCAK256 PUSH1 0xFF DUP8 AND DUP5 MSTORE SWAP1 SWAP2 MSTORE DUP1 DUP3 KECCAK256 DUP7 DUP2 SSTORE PUSH1 0x1 DUP2 ADD DUP6 SWAP1 SSTORE TIMESTAMP PUSH1 0x2 SWAP1 SWAP2 ADD SSTORE PUSH1 0x6 SLOAD DUP2 MLOAD PUSH4 0x21421707 PUSH1 0xE1 SHL DUP2 MSTORE PUSH1 0x4 DUP2 ADD SWAP5 SWAP1 SWAP5 MSTORE ADDRESS PUSH1 0x24 DUP6 ADD MSTORE PUSH1 0x44 DUP5 ADD DUP8 SWAP1 MSTORE SWAP1 MLOAD PUSH1 0x1 PUSH1 0x1 PUSH1 0xA0 SHL SUB SWAP1 SWAP2 AND SWAP3 PUSH4 0x42842E0E SWAP3 PUSH1 0x64 DUP1 DUP4 ADD SWAP4 SWAP2 SWAP3 DUP3 SWAP1 SUB ADD DUP2 DUP4 DUP8 DUP1 EXTCODESIZE ISZERO DUP1 ISZERO PUSH2 0x25EF JUMPI PUSH1 0x0 DUP1 REVERT JUMPDEST POP GAS CALL ISZERO DUP1 ISZERO PUSH2 0x2603 JUMPI RETURNDATASIZE PUSH1 0x0 DUP1 RETURNDATACOPY RETURNDATASIZE PUSH1 0x0 REVERT JUMPDEST POP POP PUSH1 0x40 DUP1 MLOAD DUP7 DUP2 MSTORE PUSH1 0xFF DUP7 AND PUSH1 0x20 DUP3 ADD MSTORE DUP1 DUP3 ADD DUP6 SWAP1 MSTORE SWAP1 MLOAD CALLER SWAP4 POP PUSH32 0x4E58F730EF77C715507362AAA447B0969DF6DFF451B1F433296B83D8781485CB SWAP3 POP SWAP1 DUP2 SWAP1 SUB PUSH1 0x60 ADD SWAP1 LOG2 POP POP POP JUMP JUMPDEST PUSH1 0x1A SLOAD DUP2 JUMP JUMPDEST PUSH1 0x0 PUSH1 0x18 SLOAD PUSH1 0x0 EQ ISZERO PUSH2 0x266D JUMPI POP PUSH1 0xF SLOAD PUSH2 0xD0B JUMP JUMPDEST PUSH2 0x1805 PUSH2 0x26AA PUSH2 0x268A PUSH2 0x3E8 PUSH1 0x18 SLOAD PUSH2 0x293C SWAP1 SWAP2 SWAP1 PUSH4 0xFFFFFFFF AND JUMP JUMPDEST PUSH2 0xABF PUSH8 0xDE0B6B3A7640000 PUSH2 0xAB9 PUSH1 0xD SLOAD PUSH2 0xAB9 PUSH1 0xE SLOAD PUSH2 0xAAA PUSH2 0x17F7 JUMP JUMPDEST PUSH1 0xF SLOAD SWAP1 PUSH2 0x297E JUMP JUMPDEST PUSH2 0x26C4 PUSH2 0x26BF CALLER PUSH2 0x169E JUMP JUMPDEST PUSH2 0xE38 JUMP JUMPDEST JUMP JUMPDEST PUSH1 0x17 SLOAD PUSH1 0x0 SWAP1 PUSH1 0x2 PUSH1 0xFF DUP5 AND EQ ISZERO PUSH2 0x26E1 JUMPI POP PUSH1 0x13 SLOAD PUSH2 0x26F2 JUMP JUMPDEST DUP3 PUSH1 0xFF AND PUSH1 0x3 EQ ISZERO PUSH2 0x26F2 JUMPI POP PUSH1 0x11 SLOAD JUMPDEST PUSH1 0x5 SLOAD PUSH1 0x1 PUSH1 0x1 PUSH1 0xA0 SHL SUB AND ISZERO DUP1 ISZERO SWAP1 PUSH2 0x2716 JUMPI POP PUSH1 0x6 SLOAD PUSH1 0x1 PUSH1 0x1 PUSH1 0xA0 SHL SUB AND ISZERO ISZERO JUMPDEST ISZERO PUSH2 0x2735 JUMPI PUSH1 0x0 PUSH2 0x2727 DUP6 DUP6 PUSH2 0x16B9 JUMP JUMPDEST SWAP1 POP DUP1 ISZERO PUSH2 0x2733 JUMPI DUP1 SWAP2 POP JUMPDEST POP JUMPDEST SWAP4 SWAP3 POP POP POP JUMP JUMPDEST PUSH1 0x1C SLOAD PUSH1 0xFF AND DUP2 JUMP JUMPDEST PUSH1 0x1 PUSH1 0x1 PUSH1 0xA0 SHL SUB AND PUSH1 0x0 SWAP1 DUP2 MSTORE PUSH1 0x16 PUSH1 0x20 MSTORE PUSH1 0x40 SWAP1 KECCAK256 PUSH1 0x3 ADD SLOAD SWAP1 JUMP JUMPDEST PUSH1 0x0 SLOAD PUSH1 0x1 PUSH1 0x1 PUSH1 0xA0 SHL SUB AND CALLER EQ PUSH2 0x27B3 JUMPI PUSH1 0x40 DUP1 MLOAD PUSH3 0x461BCD PUSH1 0xE5 SHL DUP2 MSTORE PUSH1 0x20 PUSH1 0x4 DUP3 ADD MSTORE PUSH1 0xE PUSH1 0x24 DUP3 ADD MSTORE PUSH14 0x6E6F7420676F7665726E616E6365 PUSH1 0x90 SHL PUSH1 0x44 DUP3 ADD MSTORE SWAP1 MLOAD SWAP1 DUP2 SWAP1 SUB PUSH1 0x64 ADD SWAP1 REVERT JUMPDEST PUSH1 0x0 SLOAD PUSH2 0xE34 SWAP1 PUSH1 0x1 PUSH1 0x1 PUSH1 0xA0 SHL SUB DUP5 DUP2 AND SWAP2 AND DUP4 PUSH2 0x2B00 JUMP JUMPDEST PUSH1 0x0 SLOAD PUSH1 0x1 PUSH1 0x1 PUSH1 0xA0 SHL SUB AND CALLER EQ PUSH2 0x281D JUMPI PUSH1 0x40 DUP1 MLOAD PUSH3 0x461BCD PUSH1 0xE5 SHL DUP2 MSTORE PUSH1 0x20 PUSH1 0x4 DUP3 ADD MSTORE PUSH1 0xE PUSH1 0x24 DUP3 ADD MSTORE PUSH14 0x6E6F7420676F7665726E616E6365 PUSH1 0x90 SHL PUSH1 0x44 DUP3 ADD MSTORE SWAP1 MLOAD SWAP1 DUP2 SWAP1 SUB PUSH1 0x64 ADD SWAP1 REVERT JUMPDEST PUSH1 0x13 SSTORE JUMP JUMPDEST PUSH1 0x14 SLOAD DUP2 JUMP JUMPDEST PUSH1 0x1C SLOAD PUSH4 0x1000000 SWAP1 DIV PUSH1 0x1 PUSH1 0x1 PUSH1 0xA0 SHL SUB AND CALLER EQ PUSH2 0x2881 JUMPI PUSH1 0x40 DUP1 MLOAD PUSH3 0x461BCD PUSH1 0xE5 SHL DUP2 MSTORE PUSH1 0x20 PUSH1 0x4 DUP3 ADD MSTORE PUSH1 0x10 PUSH1 0x24 DUP3 ADD MSTORE PUSH16 0x696E76616C6964206164647265737321 PUSH1 0x80 SHL PUSH1 0x44 DUP3 ADD MSTORE SWAP1 MLOAD SWAP1 DUP2 SWAP1 SUB PUSH1 0x64 ADD SWAP1 REVERT JUMPDEST PUSH1 0xE DUP5 SWAP1 SSTORE PUSH1 0xF DUP4 SWAP1 SSTORE PUSH2 0x19F3 DUP3 DUP3 PUSH2 0x2BED JUMP JUMPDEST PUSH1 0xB SLOAD DUP2 JUMP JUMPDEST PUSH1 0xA SLOAD DUP2 JUMP JUMPDEST PUSH1 0x0 PUSH2 0x2735 DUP4 DUP4 PUSH1 0x40 MLOAD DUP1 PUSH1 0x40 ADD PUSH1 0x40 MSTORE DUP1 PUSH1 0x1E DUP2 MSTORE PUSH1 0x20 ADD PUSH32 0x536166654D6174683A207375627472616374696F6E206F766572666C6F770000 DUP2 MSTORE POP PUSH2 0x2C94 JUMP JUMPDEST PUSH1 0x0 DUP3 PUSH2 0x28F2 JUMPI POP PUSH1 0x0 PUSH2 0xACB JUMP JUMPDEST DUP3 DUP3 MUL DUP3 DUP5 DUP3 DUP2 PUSH2 0x28FF JUMPI INVALID JUMPDEST DIV EQ PUSH2 0x2735 JUMPI PUSH1 0x40 MLOAD PUSH3 0x461BCD PUSH1 0xE5 SHL DUP2 MSTORE PUSH1 0x4 ADD DUP1 DUP1 PUSH1 0x20 ADD DUP3 DUP2 SUB DUP3 MSTORE PUSH1 0x21 DUP2 MSTORE PUSH1 0x20 ADD DUP1 PUSH2 0x2FDF PUSH1 0x21 SWAP2 CODECOPY PUSH1 0x40 ADD SWAP2 POP POP PUSH1 0x40 MLOAD DUP1 SWAP2 SUB SWAP1 REVERT JUMPDEST PUSH1 0x0 PUSH2 0x2735 DUP4 DUP4 PUSH1 0x40 MLOAD DUP1 PUSH1 0x40 ADD PUSH1 0x40 MSTORE DUP1 PUSH1 0x1A DUP2 MSTORE PUSH1 0x20 ADD PUSH32 0x536166654D6174683A206469766973696F6E206279207A65726F000000000000 DUP2 MSTORE POP PUSH2 0x2D2B JUMP JUMPDEST PUSH1 0x0 DUP3 DUP3 ADD DUP4 DUP2 LT ISZERO PUSH2 0x2735 JUMPI PUSH1 0x40 DUP1 MLOAD PUSH3 0x461BCD PUSH1 0xE5 SHL DUP2 MSTORE PUSH1 0x20 PUSH1 0x4 DUP3 ADD MSTORE PUSH1 0x1B PUSH1 0x24 DUP3 ADD MSTORE PUSH32 0x536166654D6174683A206164646974696F6E206F766572666C6F770000000000 PUSH1 0x44 DUP3 ADD MSTORE SWAP1 MLOAD SWAP1 DUP2 SWAP1 SUB PUSH1 0x64 ADD SWAP1 REVERT JUMPDEST PUSH1 0x1 SLOAD PUSH2 0x29E5 SWAP1 DUP4 PUSH2 0x297E JUMP JUMPDEST PUSH1 0x1 SSTORE PUSH1 0x1 PUSH1 0x1 PUSH1 0xA0 SHL SUB DUP2 AND PUSH1 0x0 SWAP1 DUP2 MSTORE PUSH1 0x2 PUSH1 0x20 MSTORE PUSH1 0x40 SWAP1 KECCAK256 SLOAD PUSH2 0x2A0B SWAP1 DUP4 PUSH2 0x297E JUMP JUMPDEST PUSH1 0x1 PUSH1 0x1 PUSH1 0xA0 SHL SUB SWAP1 SWAP2 AND PUSH1 0x0 SWAP1 DUP2 MSTORE PUSH1 0x2 PUSH1 0x20 MSTORE PUSH1 0x40 SWAP1 KECCAK256 SSTORE POP JUMP JUMPDEST PUSH1 0x40 DUP1 MLOAD PUSH1 0x1 PUSH1 0x1 PUSH1 0xA0 SHL SUB DUP1 DUP7 AND PUSH1 0x24 DUP4 ADD MSTORE DUP5 AND PUSH1 0x44 DUP3 ADD MSTORE PUSH1 0x64 DUP1 DUP3 ADD DUP5 SWAP1 MSTORE DUP3 MLOAD DUP1 DUP4 SUB SWAP1 SWAP2 ADD DUP2 MSTORE PUSH1 0x84 SWAP1 SWAP2 ADD SWAP1 SWAP2 MSTORE PUSH1 0x20 DUP2 ADD DUP1 MLOAD PUSH1 0x1 PUSH1 0x1 PUSH1 0xE0 SHL SUB AND PUSH4 0x23B872DD PUSH1 0xE0 SHL OR SWAP1 MSTORE PUSH2 0x19F3 SWAP1 DUP6 SWAP1 PUSH2 0x2D90 JUMP JUMPDEST PUSH1 0x0 DUP2 GT PUSH2 0x2AC3 JUMPI PUSH1 0x40 DUP1 MLOAD PUSH3 0x461BCD PUSH1 0xE5 SHL DUP2 MSTORE PUSH1 0x20 PUSH1 0x4 DUP3 ADD MSTORE PUSH1 0x9 PUSH1 0x24 DUP3 ADD MSTORE PUSH9 0x616D6F7574203E203 PUSH1 0xBC SHL PUSH1 0x44 DUP3 ADD MSTORE SWAP1 MLOAD SWAP1 DUP2 SWAP1 SUB PUSH1 0x64 ADD SWAP1 REVERT JUMPDEST PUSH1 0x1 SLOAD PUSH2 0x2AD0 SWAP1 DUP3 PUSH2 0x28A1 JUMP JUMPDEST PUSH1 0x1 SSTORE CALLER PUSH1 0x0 SWAP1 DUP2 MSTORE PUSH1 0x2 PUSH1 0x20 MSTORE PUSH1 0x40 SWAP1 KECCAK256 SLOAD PUSH2 0x2AED SWAP1 DUP3 PUSH2 0x28A1 JUMP JUMPDEST CALLER PUSH1 0x0 SWAP1 DUP2 MSTORE PUSH1 0x2 PUSH1 0x20 MSTORE PUSH1 0x40 SWAP1 KECCAK256 SSTORE POP JUMP JUMPDEST PUSH1 0x40 DUP1 MLOAD PUSH1 0x1 PUSH1 0x1 PUSH1 0xA0 SHL SUB DUP5 AND PUSH1 0x24 DUP3 ADD MSTORE PUSH1 0x44 DUP1 DUP3 ADD DUP5 SWAP1 MSTORE DUP3 MLOAD DUP1 DUP4 SUB SWAP1 SWAP2 ADD DUP2 MSTORE PUSH1 0x64 SWAP1 SWAP2 ADD SWAP1 SWAP2 MSTORE PUSH1 0x20 DUP2 ADD DUP1 MLOAD PUSH1 0x1 PUSH1 0x1 PUSH1 0xE0 SHL SUB AND PUSH4 0xA9059CBB PUSH1 0xE0 SHL OR SWAP1 MSTORE PUSH2 0x2B52 SWAP1 DUP5 SWAP1 PUSH2 0x2D90 JUMP JUMPDEST POP POP POP JUMP JUMPDEST PUSH1 0x1 PUSH1 0x1 PUSH1 0xA0 SHL SUB DUP4 AND PUSH1 0x0 SWAP1 DUP2 MSTORE PUSH1 0x16 PUSH1 0x20 MSTORE PUSH1 0x40 SWAP1 KECCAK256 PUSH1 0x4 DUP2 ADD DUP4 SWAP1 SSTORE PUSH1 0x2 ADD DUP2 SWAP1 SSTORE PUSH2 0x2B89 DUP2 PUSH2 0xAB9 CALLER PUSH2 0x169E JUMP JUMPDEST PUSH1 0x1 PUSH1 0x1 PUSH1 0xA0 SHL SUB SWAP1 SWAP4 AND PUSH1 0x0 SWAP1 DUP2 MSTORE PUSH1 0x16 PUSH1 0x20 MSTORE PUSH1 0x40 SWAP1 KECCAK256 PUSH1 0x3 ADD SWAP3 SWAP1 SWAP3 SSTORE POP POP JUMP JUMPDEST PUSH1 0x0 DUP2 DUP4 LT PUSH2 0x2BBC JUMPI DUP2 PUSH2 0x2735 JUMP JUMPDEST POP SWAP1 SWAP2 SWAP1 POP JUMP JUMPDEST PUSH1 0x1 SLOAD PUSH2 0x2BD0 SWAP1 DUP3 PUSH2 0x297E JUMP JUMPDEST PUSH1 0x1 SSTORE CALLER PUSH1 0x0 SWAP1 DUP2 MSTORE PUSH1 0x2 PUSH1 0x20 MSTORE PUSH1 0x40 SWAP1 KECCAK256 SLOAD PUSH2 0x2AED SWAP1 DUP3 PUSH2 0x297E JUMP JUMPDEST PUSH1 0x1C SLOAD PUSH1 0xFF AND ISZERO PUSH2 0x2C33 JUMPI PUSH1 0x40 DUP1 MLOAD PUSH3 0x461BCD PUSH1 0xE5 SHL DUP2 MSTORE PUSH1 0x20 PUSH1 0x4 DUP3 ADD MSTORE PUSH1 0xB PUSH1 0x24 DUP3 ADD MSTORE PUSH11 0x1A185CC81CDD185C9D1959 PUSH1 0xAA SHL PUSH1 0x44 DUP3 ADD MSTORE SWAP1 MLOAD SWAP1 DUP2 SWAP1 SUB PUSH1 0x64 ADD SWAP1 REVERT JUMPDEST PUSH1 0x1C DUP1 SLOAD PUSH1 0xFF NOT AND PUSH1 0x1 OR SWAP1 SSTORE PUSH1 0xB DUP3 SWAP1 SSTORE PUSH1 0xA DUP2 SWAP1 SSTORE PUSH2 0x2C57 DUP2 PUSH3 0x127500 PUSH2 0x293C JUMP JUMPDEST PUSH1 0xD SSTORE PUSH1 0xB SLOAD PUSH2 0x2C6A SWAP1 PUSH3 0x127500 PUSH2 0x297E JUMP JUMPDEST PUSH1 0xC SSTORE PUSH1 0xA SLOAD PUSH1 0x40 DUP1 MLOAD SWAP2 DUP3 MSTORE MLOAD PUSH1 0x0 DUP1 MLOAD PUSH1 0x20 PUSH2 0x2FBF DUP4 CODECOPY DUP2 MLOAD SWAP2 MSTORE SWAP2 DUP2 SWAP1 SUB PUSH1 0x20 ADD SWAP1 LOG1 POP POP JUMP JUMPDEST PUSH1 0x0 DUP2 DUP5 DUP5 GT ISZERO PUSH2 0x2D23 JUMPI PUSH1 0x40 MLOAD PUSH3 0x461BCD PUSH1 0xE5 SHL DUP2 MSTORE PUSH1 0x4 ADD DUP1 DUP1 PUSH1 0x20 ADD DUP3 DUP2 SUB DUP3 MSTORE DUP4 DUP2 DUP2 MLOAD DUP2 MSTORE PUSH1 0x20 ADD SWAP2 POP DUP1 MLOAD SWAP1 PUSH1 0x20 ADD SWAP1 DUP1 DUP4 DUP4 PUSH1 0x0 JUMPDEST DUP4 DUP2 LT ISZERO PUSH2 0x2CE8 JUMPI DUP2 DUP2 ADD MLOAD DUP4 DUP3 ADD MSTORE PUSH1 0x20 ADD PUSH2 0x2CD0 JUMP JUMPDEST POP POP POP POP SWAP1 POP SWAP1 DUP2 ADD SWAP1 PUSH1 0x1F AND DUP1 ISZERO PUSH2 0x2D15 JUMPI DUP1 DUP3 SUB DUP1 MLOAD PUSH1 0x1 DUP4 PUSH1 0x20 SUB PUSH2 0x100 EXP SUB NOT AND DUP2 MSTORE PUSH1 0x20 ADD SWAP2 POP JUMPDEST POP SWAP3 POP POP POP PUSH1 0x40 MLOAD DUP1 SWAP2 SUB SWAP1 REVERT JUMPDEST POP POP POP SWAP1 SUB SWAP1 JUMP JUMPDEST PUSH1 0x0 DUP2 DUP4 PUSH2 0x2D7A JUMPI PUSH1 0x40 MLOAD PUSH3 0x461BCD PUSH1 0xE5 SHL DUP2 MSTORE PUSH1 0x20 PUSH1 0x4 DUP3 ADD DUP2 DUP2 MSTORE DUP4 MLOAD PUSH1 0x24 DUP5 ADD MSTORE DUP4 MLOAD SWAP1 SWAP3 DUP4 SWAP3 PUSH1 0x44 SWAP1 SWAP2 ADD SWAP2 SWAP1 DUP6 ADD SWAP1 DUP1 DUP4 DUP4 PUSH1 0x0 DUP4 ISZERO PUSH2 0x2CE8 JUMPI DUP2 DUP2 ADD MLOAD DUP4 DUP3 ADD MSTORE PUSH1 0x20 ADD PUSH2 0x2CD0 JUMP JUMPDEST POP PUSH1 0x0 DUP4 DUP6 DUP2 PUSH2 0x2D86 JUMPI INVALID JUMPDEST DIV SWAP6 SWAP5 POP POP POP POP POP JUMP JUMPDEST PUSH1 0x60 PUSH2 0x2DE5 DUP3 PUSH1 0x40 MLOAD DUP1 PUSH1 0x40 ADD PUSH1 0x40 MSTORE DUP1 PUSH1 0x20 DUP2 MSTORE PUSH1 0x20 ADD PUSH32 0x5361666545524332303A206C6F772D6C6576656C2063616C6C206661696C6564 DUP2 MSTORE POP DUP6 PUSH1 0x1 PUSH1 0x1 PUSH1 0xA0 SHL SUB AND PUSH2 0x2E41 SWAP1 SWAP3 SWAP2 SWAP1 PUSH4 0xFFFFFFFF AND JUMP JUMPDEST DUP1 MLOAD SWAP1 SWAP2 POP ISZERO PUSH2 0x2B52 JUMPI DUP1 DUP1 PUSH1 0x20 ADD SWAP1 MLOAD PUSH1 0x20 DUP2 LT ISZERO PUSH2 0x2E04 JUMPI PUSH1 0x0 DUP1 REVERT JUMPDEST POP MLOAD PUSH2 0x2B52 JUMPI PUSH1 0x40 MLOAD PUSH3 0x461BCD PUSH1 0xE5 SHL DUP2 MSTORE PUSH1 0x4 ADD DUP1 DUP1 PUSH1 0x20 ADD DUP3 DUP2 SUB DUP3 MSTORE PUSH1 0x2A DUP2 MSTORE PUSH1 0x20 ADD DUP1 PUSH2 0x3000 PUSH1 0x2A SWAP2 CODECOPY PUSH1 0x40 ADD SWAP2 POP POP PUSH1 0x40 MLOAD DUP1 SWAP2 SUB SWAP1 REVERT JUMPDEST PUSH1 0x60 PUSH2 0xCFF DUP5 DUP5 PUSH1 0x0 DUP6 PUSH1 0x60 PUSH2 0x2E56 DUP6 PUSH2 0x2FB8 JUMP JUMPDEST PUSH2 0x2EA7 JUMPI PUSH1 0x40 DUP1 MLOAD PUSH3 0x461BCD PUSH1 0xE5 SHL DUP2 MSTORE PUSH1 0x20 PUSH1 0x4 DUP3 ADD MSTORE PUSH1 0x1D PUSH1 0x24 DUP3 ADD MSTORE PUSH32 0x416464726573733A2063616C6C20746F206E6F6E2D636F6E7472616374000000 PUSH1 0x44 DUP3 ADD MSTORE SWAP1 MLOAD SWAP1 DUP2 SWAP1 SUB PUSH1 0x64 ADD SWAP1 REVERT JUMPDEST PUSH1 0x0 PUSH1 0x60 DUP7 PUSH1 0x1 PUSH1 0x1 PUSH1 0xA0 SHL SUB AND DUP6 DUP8 PUSH1 0x40 MLOAD DUP1 DUP3 DUP1 MLOAD SWAP1 PUSH1 0x20 ADD SWAP1 DUP1 DUP4 DUP4 JUMPDEST PUSH1 0x20 DUP4 LT PUSH2 0x2EE6 JUMPI DUP1 MLOAD DUP3 MSTORE PUSH1 0x1F NOT SWAP1 SWAP3 ADD SWAP2 PUSH1 0x20 SWAP2 DUP3 ADD SWAP2 ADD PUSH2 0x2EC7 JUMP JUMPDEST PUSH1 0x1 DUP4 PUSH1 0x20 SUB PUSH2 0x100 EXP SUB DUP1 NOT DUP3 MLOAD AND DUP2 DUP5 MLOAD AND DUP1 DUP3 OR DUP6 MSTORE POP POP POP POP POP POP SWAP1 POP ADD SWAP2 POP POP PUSH1 0x0 PUSH1 0x40 MLOAD DUP1 DUP4 SUB DUP2 DUP6 DUP8 GAS CALL SWAP3 POP POP POP RETURNDATASIZE DUP1 PUSH1 0x0 DUP2 EQ PUSH2 0x2F48 JUMPI PUSH1 0x40 MLOAD SWAP2 POP PUSH1 0x1F NOT PUSH1 0x3F RETURNDATASIZE ADD AND DUP3 ADD PUSH1 0x40 MSTORE RETURNDATASIZE DUP3 MSTORE RETURNDATASIZE PUSH1 0x0 PUSH1 0x20 DUP5 ADD RETURNDATACOPY PUSH2 0x2F4D JUMP JUMPDEST PUSH1 0x60 SWAP2 POP JUMPDEST POP SWAP2 POP SWAP2 POP DUP2 ISZERO PUSH2 0x2F61 JUMPI SWAP2 POP PUSH2 0xCFF SWAP1 POP JUMP JUMPDEST DUP1 MLOAD ISZERO PUSH2 0x2F71 JUMPI DUP1 MLOAD DUP1 DUP3 PUSH1 0x20 ADD REVERT JUMPDEST PUSH1 0x40 MLOAD PUSH3 0x461BCD PUSH1 0xE5 SHL DUP2 MSTORE PUSH1 0x20 PUSH1 0x4 DUP3 ADD DUP2 DUP2 MSTORE DUP7 MLOAD PUSH1 0x24 DUP5 ADD MSTORE DUP7 MLOAD DUP8 SWAP4 SWAP2 SWAP3 DUP4 SWAP3 PUSH1 0x44 ADD SWAP2 SWAP1 DUP6 ADD SWAP1 DUP1 DUP4 DUP4 PUSH1 0x0 DUP4 ISZERO PUSH2 0x2CE8 JUMPI DUP2 DUP2 ADD MLOAD DUP4 DUP3 ADD MSTORE PUSH1 0x20 ADD PUSH2 0x2CD0 JUMP JUMPDEST EXTCODESIZE ISZERO ISZERO SWAP1 JUMP INVALID 0xDE DUP9 0xA9 0x22 0xE0 0xD3 0xB8 DUP12 0x24 0xE9 PUSH3 0x3EFEB4 PUSH5 0x919C6BF9F6 PUSH9 0x57A65E2BFCF2CE87A9 NUMBER RETURNDATASIZE MSTORE8 PUSH2 0x6665 0x4D PUSH2 0x7468 GASPRICE KECCAK256 PUSH14 0x756C7469706C69636174696F6E20 PUSH16 0x766572666C6F77536166654552433230 GASPRICE KECCAK256 GASLIMIT MSTORE NUMBER ORIGIN ADDRESS KECCAK256 PUSH16 0x7065726174696F6E20646964206E6F74 KECCAK256 PUSH20 0x756363656564A26469706673582212206601F0AF DUP3 0xC6 GASPRICE REVERT 0xB2 DUP2 0xE4 CALLDATACOPY PUSH12 0x773C41F0A999003C957426ED DUP15 MULMOD DIV 0x1E PUSH4 0xA5796473 PUSH16 0x6C634300060C00330000000000000000 "
    }
  },
  "interface": [
    {
      "inputs": [
        {
          "internalType": "address",
          "name": "_zero",
          "type": "address"
        },
        {
          "internalType": "address",
          "name": "_snow",
          "type": "address"
        },
        {
          "internalType": "address",
          "name": "_teamWallet",
          "type": "address"
        }
      ],
      "stateMutability": "nonpayable",
      "type": "constructor"
    },
    {
      "anonymous": false,
      "inputs": [
        {
          "indexed": true,
          "internalType": "address",
          "name": "previousOwner",
          "type": "address"
        },
        {
          "indexed": true,
          "internalType": "address",
          "name": "newOwner",
          "type": "address"
        }
      ],
      "name": "GovernanceTransferred",
      "type": "event"
    },
    {
      "anonymous": false,
      "inputs": [
        {
          "indexed": false,
          "internalType": "address",
          "name": "operator",
          "type": "address"
        },
        {
          "indexed": false,
          "internalType": "address",
          "name": "from",
          "type": "address"
        },
        {
          "indexed": false,
          "internalType": "uint256",
          "name": "tokenId",
          "type": "uint256"
        },
        {
          "indexed": false,
          "internalType": "bytes",
          "name": "data",
          "type": "bytes"
        }
      ],
      "name": "NFTReceived",
      "type": "event"
    },
    {
      "anonymous": false,
      "inputs": [
        {
          "indexed": true,
          "internalType": "address",
          "name": "user",
          "type": "address"
        },
        {
          "indexed": false,
          "internalType": "uint256",
          "name": "amount",
          "type": "uint256"
        },
        {
          "indexed": false,
          "internalType": "uint256",
          "name": "types",
          "type": "uint256"
        },
        {
          "indexed": false,
          "internalType": "uint256",
          "name": "skill",
          "type": "uint256"
        }
      ],
      "name": "RemoveNcard",
      "type": "event"
    },
    {
      "anonymous": false,
      "inputs": [
        {
          "indexed": false,
          "internalType": "uint256",
          "name": "reward",
          "type": "uint256"
        }
      ],
      "name": "RewardAdded",
      "type": "event"
    },
    {
      "anonymous": false,
      "inputs": [
        {
          "indexed": true,
          "internalType": "address",
          "name": "user",
          "type": "address"
        },
        {
          "indexed": false,
          "internalType": "uint256",
          "name": "reward",
          "type": "uint256"
        }
      ],
      "name": "RewardPaid",
      "type": "event"
    },
    {
      "anonymous": false,
      "inputs": [
        {
          "indexed": true,
          "internalType": "address",
          "name": "user",
          "type": "address"
        },
        {
          "indexed": false,
          "internalType": "uint256",
          "name": "amount",
          "type": "uint256"
        },
        {
          "indexed": false,
          "internalType": "uint256",
          "name": "types",
          "type": "uint256"
        },
        {
          "indexed": false,
          "internalType": "uint256",
          "name": "skill",
          "type": "uint256"
        }
      ],
      "name": "SetNcard",
      "type": "event"
    },
    {
      "anonymous": false,
      "inputs": [
        {
          "indexed": true,
          "internalType": "address",
          "name": "user",
          "type": "address"
        },
        {
          "indexed": false,
          "internalType": "uint256",
          "name": "amount",
          "type": "uint256"
        }
      ],
      "name": "Staked",
      "type": "event"
    },
    {
      "anonymous": false,
      "inputs": [
        {
          "indexed": true,
          "internalType": "address",
          "name": "user",
          "type": "address"
        },
        {
          "indexed": false,
          "internalType": "uint256",
          "name": "amount",
          "type": "uint256"
        }
      ],
      "name": "Withdraw",
      "type": "event"
    },
    {
      "inputs": [],
      "name": "DURATION",
      "outputs": [
        {
          "internalType": "uint256",
          "name": "",
          "type": "uint256"
        }
      ],
      "stateMutability": "view",
      "type": "function"
    },
    {
      "inputs": [],
      "name": "_baseRate",
      "outputs": [
        {
          "internalType": "uint256",
          "name": "",
          "type": "uint256"
        }
      ],
      "stateMutability": "view",
      "type": "function"
    },
    {
      "inputs": [],
      "name": "_emergencyStop",
      "outputs": [
        {
          "internalType": "bool",
          "name": "",
          "type": "bool"
        }
      ],
      "stateMutability": "view",
      "type": "function"
    },
    {
      "inputs": [],
      "name": "_governance",
      "outputs": [
        {
          "internalType": "address",
          "name": "",
          "type": "address"
        }
      ],
      "stateMutability": "view",
      "type": "function"
    },
    {
      "inputs": [],
      "name": "_hasStart",
      "outputs": [
        {
          "internalType": "bool",
          "name": "",
          "type": "bool"
        }
      ],
      "stateMutability": "view",
      "type": "function"
    },
    {
      "inputs": [],
      "name": "_initChronos",
      "outputs": [
        {
          "internalType": "uint256",
          "name": "",
          "type": "uint256"
        }
      ],
      "stateMutability": "view",
      "type": "function"
    },
    {
      "inputs": [],
      "name": "_initReward",
      "outputs": [
        {
          "internalType": "uint256",
          "name": "",
          "type": "uint256"
        }
      ],
      "stateMutability": "view",
      "type": "function"
    },
    {
      "inputs": [],
      "name": "_lastUpdateTime",
      "outputs": [
        {
          "internalType": "uint256",
          "name": "",
          "type": "uint256"
        }
      ],
      "stateMutability": "view",
      "type": "function"
    },
    {
      "inputs": [
        {
          "internalType": "uint256",
          "name": "",
          "type": "uint256"
        }
      ],
      "name": "_maxChronos",
      "outputs": [
        {
          "internalType": "uint256",
          "name": "",
          "type": "uint256"
        }
      ],
      "stateMutability": "view",
      "type": "function"
    },
    {
      "inputs": [],
      "name": "_nullCardFactory",
      "outputs": [
        {
          "internalType": "contract INullCardFactory",
          "name": "",
          "type": "address"
        }
      ],
      "stateMutability": "view",
      "type": "function"
    },
    {
      "inputs": [],
      "name": "_nullCardToken",
      "outputs": [
        {
          "internalType": "contract INullCardToken",
          "name": "",
          "type": "address"
        }
      ],
      "stateMutability": "view",
      "type": "function"
    },
    {
      "inputs": [],
      "name": "_periodFinish",
      "outputs": [
        {
          "internalType": "uint256",
          "name": "",
          "type": "uint256"
        }
      ],
      "stateMutability": "view",
      "type": "function"
    },
    {
      "inputs": [],
      "name": "_rewardPerTokenStored",
      "outputs": [
        {
          "internalType": "uint256",
          "name": "",
          "type": "uint256"
        }
      ],
      "stateMutability": "view",
      "type": "function"
    },
    {
      "inputs": [],
      "name": "_rewardRate",
      "outputs": [
        {
          "internalType": "uint256",
          "name": "",
          "type": "uint256"
        }
      ],
      "stateMutability": "view",
      "type": "function"
    },
    {
      "inputs": [],
      "name": "_rule",
      "outputs": [
        {
          "internalType": "uint8",
          "name": "",
          "type": "uint8"
        }
      ],
      "stateMutability": "view",
      "type": "function"
    },
    {
      "inputs": [],
      "name": "_startTime",
      "outputs": [
        {
          "internalType": "uint256",
          "name": "",
          "type": "uint256"
        }
      ],
      "stateMutability": "view",
      "type": "function"
    },
    {
      "inputs": [],
      "name": "_stepChronos",
      "outputs": [
        {
          "internalType": "uint256",
          "name": "",
          "type": "uint256"
        }
      ],
      "stateMutability": "view",
      "type": "function"
    },
    {
      "inputs": [],
      "name": "_stop",
      "outputs": [
        {
          "internalType": "bool",
          "name": "",
          "type": "bool"
        }
      ],
      "stateMutability": "view",
      "type": "function"
    },
    {
      "inputs": [],
      "name": "_teamRewardRate",
      "outputs": [
        {
          "internalType": "uint256",
          "name": "",
          "type": "uint256"
        }
      ],
      "stateMutability": "view",
      "type": "function"
    },
    {
      "inputs": [],
      "name": "_totalSkills",
      "outputs": [
        {
          "internalType": "uint256",
          "name": "",
          "type": "uint256"
        }
      ],
      "stateMutability": "view",
      "type": "function"
    },
    {
      "inputs": [
        {
          "internalType": "address",
          "name": "account",
          "type": "address"
        }
      ],
      "name": "balanceOf",
      "outputs": [
        {
          "internalType": "uint256",
          "name": "",
          "type": "uint256"
        }
      ],
      "stateMutability": "view",
      "type": "function"
    },
    {
      "inputs": [],
      "name": "burnPool",
      "outputs": [
        {
          "internalType": "address",
          "name": "",
          "type": "address"
        }
      ],
      "stateMutability": "view",
      "type": "function"
    },
    {
      "inputs": [],
      "name": "contractCaller",
      "outputs": [
        {
          "internalType": "address",
          "name": "",
          "type": "address"
        }
      ],
      "stateMutability": "view",
      "type": "function"
    },
    {
      "inputs": [],
      "name": "dividendPool",
      "outputs": [
        {
          "internalType": "address",
          "name": "",
          "type": "address"
        }
      ],
      "stateMutability": "view",
      "type": "function"
    },
    {
      "inputs": [
        {
          "internalType": "address",
          "name": "account",
          "type": "address"
        }
      ],
      "name": "earned",
      "outputs": [
        {
          "internalType": "uint256",
          "name": "",
          "type": "uint256"
        }
      ],
      "stateMutability": "view",
      "type": "function"
    },
    {
      "inputs": [],
      "name": "emergencyWithdraw",
      "outputs": [],
      "stateMutability": "nonpayable",
      "type": "function"
    },
    {
      "inputs": [
        {
          "internalType": "uint256",
          "name": "amount",
          "type": "uint256"
        }
      ],
      "name": "exit",
      "outputs": [],
      "stateMutability": "nonpayable",
      "type": "function"
    },
    {
      "inputs": [],
      "name": "feeBurnRate",
      "outputs": [
        {
          "internalType": "uint256",
          "name": "",
          "type": "uint256"
        }
      ],
      "stateMutability": "view",
      "type": "function"
    },
    {
      "inputs": [],
      "name": "feeRewardRate",
      "outputs": [
        {
          "internalType": "uint256",
          "name": "",
          "type": "uint256"
        }
      ],
      "stateMutability": "view",
      "type": "function"
    },
    {
      "inputs": [
        {
          "internalType": "address",
          "name": "account",
          "type": "address"
        },
        {
          "internalType": "uint8",
          "name": "types",
          "type": "uint8"
        }
      ],
      "name": "getNcardRate",
      "outputs": [
        {
          "internalType": "uint256",
          "name": "",
          "type": "uint256"
        }
      ],
      "stateMutability": "view",
      "type": "function"
    },
    {
      "inputs": [],
      "name": "getReward",
      "outputs": [],
      "stateMutability": "nonpayable",
      "type": "function"
    },
    {
      "inputs": [
        {
          "internalType": "address",
          "name": "account",
          "type": "address"
        }
      ],
      "name": "getSkills",
      "outputs": [
        {
          "internalType": "uint256",
          "name": "",
          "type": "uint256"
        }
      ],
      "stateMutability": "view",
      "type": "function"
    },
    {
      "inputs": [
        {
          "internalType": "address",
          "name": "account",
          "type": "address"
        },
        {
          "internalType": "uint8",
          "name": "types",
          "type": "uint8"
        }
      ],
      "name": "getSkillsOfNcard",
      "outputs": [
        {
          "internalType": "uint256",
          "name": "",
          "type": "uint256"
        }
      ],
      "stateMutability": "view",
      "type": "function"
    },
    {
      "inputs": [],
      "name": "lastTimeRewardApplicable",
      "outputs": [
        {
          "internalType": "uint256",
          "name": "",
          "type": "uint256"
        }
      ],
      "stateMutability": "view",
      "type": "function"
    },
    {
      "inputs": [
        {
          "internalType": "address",
          "name": "",
          "type": "address"
        },
        {
          "internalType": "uint8",
          "name": "",
          "type": "uint8"
        }
      ],
      "name": "nCard",
      "outputs": [
        {
          "internalType": "uint256",
          "name": "tokenIndex",
          "type": "uint256"
        },
        {
          "internalType": "uint256",
          "name": "skills",
          "type": "uint256"
        },
        {
          "internalType": "uint256",
          "name": "timeStamp",
          "type": "uint256"
        }
      ],
      "stateMutability": "view",
      "type": "function"
    },
    {
      "inputs": [
        {
          "internalType": "address",
          "name": "operator",
          "type": "address"
        },
        {
          "internalType": "address",
          "name": "from",
          "type": "address"
        },
        {
          "internalType": "uint256",
          "name": "tokenId",
          "type": "uint256"
        },
        {
          "internalType": "bytes",
          "name": "data",
          "type": "bytes"
        }
      ],
      "name": "onERC721Received",
      "outputs": [
        {
          "internalType": "bytes4",
          "name": "",
          "type": "bytes4"
        }
      ],
      "stateMutability": "nonpayable",
      "type": "function"
    },
    {
      "inputs": [
        {
          "internalType": "uint256",
          "name": "nftId",
          "type": "uint256"
        }
      ],
      "name": "removeNcard",
      "outputs": [],
      "stateMutability": "nonpayable",
      "type": "function"
    },
    {
      "inputs": [],
      "name": "rewardPerToken",
      "outputs": [
        {
          "internalType": "uint256",
          "name": "",
          "type": "uint256"
        }
      ],
      "stateMutability": "view",
      "type": "function"
    },
    {
      "inputs": [
        {
          "internalType": "contract IERC20",
          "name": "token",
          "type": "address"
        },
        {
          "internalType": "uint256",
          "name": "amount",
          "type": "uint256"
        }
      ],
      "name": "seize",
      "outputs": [],
      "stateMutability": "nonpayable",
      "type": "function"
    },
    {
      "inputs": [
        {
          "internalType": "address",
          "name": "_contractCaller",
          "type": "address"
        }
      ],
      "name": "setCaller",
      "outputs": [],
      "stateMutability": "nonpayable",
      "type": "function"
    },
    {
      "inputs": [
        {
          "internalType": "address",
          "name": "_dividendPool",
          "type": "address"
        }
      ],
      "name": "setDividendPool",
      "outputs": [],
      "stateMutability": "nonpayable",
      "type": "function"
    },
    {
      "inputs": [
        {
          "internalType": "bool",
          "name": "stop",
          "type": "bool"
        },
        {
          "internalType": "uint256",
          "name": "rewardRate",
          "type": "uint256"
        },
        {
          "internalType": "bool",
          "name": "stopStake",
          "type": "bool"
        }
      ],
      "name": "setEmergencyStop",
      "outputs": [],
      "stateMutability": "nonpayable",
      "type": "function"
    },
    {
      "inputs": [
        {
          "internalType": "uint256",
          "name": "_feeReward",
          "type": "uint256"
        },
        {
          "internalType": "uint256",
          "name": "_feeBurn",
          "type": "uint256"
        }
      ],
      "name": "setFee",
      "outputs": [],
      "stateMutability": "nonpayable",
      "type": "function"
    },
    {
      "inputs": [
        {
          "internalType": "address",
          "name": "governance",
          "type": "address"
        }
      ],
      "name": "setGovernance",
      "outputs": [],
      "stateMutability": "nonpayable",
      "type": "function"
    },
    {
      "inputs": [
        {
          "internalType": "uint256",
          "name": "initChronos",
          "type": "uint256"
        }
      ],
      "name": "setInitChronos",
      "outputs": [],
      "stateMutability": "nonpayable",
      "type": "function"
    },
    {
      "inputs": [
        {
          "internalType": "uint256",
          "name": "initReward",
          "type": "uint256"
        }
      ],
      "name": "setInitReward",
      "outputs": [],
      "stateMutability": "nonpayable",
      "type": "function"
    },
    {
      "inputs": [
        {
          "internalType": "uint256",
          "name": "lastUpdateTime",
          "type": "uint256"
        },
        {
          "internalType": "uint256",
          "name": "rewardPerTokenStored",
          "type": "uint256"
        },
        {
          "internalType": "uint256",
          "name": "startTime",
          "type": "uint256"
        },
        {
          "internalType": "uint256",
          "name": "initReward",
          "type": "uint256"
        }
      ],
      "name": "setInitValue",
      "outputs": [],
      "stateMutability": "nonpayable",
      "type": "function"
    },
    {
      "inputs": [
        {
          "internalType": "uint256",
          "name": "nftId",
          "type": "uint256"
        }
      ],
      "name": "setNcard",
      "outputs": [],
      "stateMutability": "nonpayable",
      "type": "function"
    },
    {
      "inputs": [
        {
          "internalType": "contract INullCardToken",
          "name": "nullCardToken",
          "type": "address"
        },
        {
          "internalType": "contract INullCardFactory",
          "name": "nullCardFactory",
          "type": "address"
        }
      ],
      "name": "setNft",
      "outputs": [],
      "stateMutability": "nonpayable",
      "type": "function"
    },
    {
      "inputs": [
        {
          "internalType": "uint256",
          "name": "amount",
          "type": "uint256"
        },
        {
          "internalType": "address",
          "name": "account",
          "type": "address"
        }
      ],
      "name": "setStake",
      "outputs": [],
      "stateMutability": "nonpayable",
      "type": "function"
    },
    {
      "inputs": [
        {
          "internalType": "uint256",
          "name": "stepChronos",
          "type": "uint256"
        }
      ],
      "name": "setStepChronos",
      "outputs": [],
      "stateMutability": "nonpayable",
      "type": "function"
    },
    {
      "inputs": [
        {
          "internalType": "uint256",
          "name": "teamRewardRate",
          "type": "uint256"
        }
      ],
      "name": "setTeamRewardRate",
      "outputs": [],
      "stateMutability": "nonpayable",
      "type": "function"
    },
    {
      "inputs": [
        {
          "internalType": "address",
          "name": "addressUser",
          "type": "address"
        },
        {
          "internalType": "uint256",
          "name": "userRewardPerTokenPaidOld",
          "type": "uint256"
        },
        {
          "internalType": "uint256",
          "name": "rewardsOld",
          "type": "uint256"
        },
        {
          "internalType": "uint256",
          "name": "currentChronosOld",
          "type": "uint256"
        },
        {
          "internalType": "uint256",
          "name": "currentSkillsOld",
          "type": "uint256"
        },
        {
          "internalType": "uint256",
          "name": "timeStampOld",
          "type": "uint256"
        },
        {
          "internalType": "uint256",
          "name": "amountOld",
          "type": "uint256"
        }
      ],
      "name": "setUser",
      "outputs": [],
      "stateMutability": "nonpayable",
      "type": "function"
    },
    {
      "inputs": [],
      "name": "snow",
      "outputs": [
        {
          "internalType": "contract IERC20",
          "name": "",
          "type": "address"
        }
      ],
      "stateMutability": "view",
      "type": "function"
    },
    {
      "inputs": [
        {
          "internalType": "uint256",
          "name": "amount",
          "type": "uint256"
        }
      ],
      "name": "stake",
      "outputs": [],
      "stateMutability": "nonpayable",
      "type": "function"
    },
    {
      "inputs": [],
      "name": "teamWallet",
      "outputs": [
        {
          "internalType": "address",
          "name": "",
          "type": "address"
        }
      ],
      "stateMutability": "view",
      "type": "function"
    },
    {
      "inputs": [],
      "name": "totalSupply",
      "outputs": [
        {
          "internalType": "uint256",
          "name": "",
          "type": "uint256"
        }
      ],
      "stateMutability": "view",
      "type": "function"
    },
    {
      "inputs": [
        {
          "internalType": "address",
          "name": "account",
          "type": "address"
        }
      ],
      "name": "updateChronos",
      "outputs": [],
      "stateMutability": "nonpayable",
      "type": "function"
    },
    {
      "inputs": [
        {
          "internalType": "address",
          "name": "",
          "type": "address"
        }
      ],
      "name": "userInfo",
      "outputs": [
        {
          "internalType": "uint256",
          "name": "userRewardPerTokenPaid",
          "type": "uint256"
        },
        {
          "internalType": "uint256",
          "name": "rewards",
          "type": "uint256"
        },
        {
          "internalType": "uint256",
          "name": "currentChronos",
          "type": "uint256"
        },
        {
          "internalType": "uint256",
          "name": "currentSkills",
          "type": "uint256"
        },
        {
          "internalType": "uint256",
          "name": "timeStamp",
          "type": "uint256"
        }
      ],
      "stateMutability": "view",
      "type": "function"
    },
    {
      "inputs": [
        {
          "internalType": "uint256",
          "name": "amount",
          "type": "uint256"
        }
      ],
      "name": "withdraw",
      "outputs": [],
      "stateMutability": "nonpayable",
      "type": "function"
    },
    {
      "inputs": [],
      "name": "zero",
      "outputs": [
        {
          "internalType": "contract IERC20",
          "name": "",
          "type": "address"
        }
      ],
      "stateMutability": "view",
      "type": "function"
    }
  ]
}