{
  "abi": [
    {
      "inputs": [
        {
          "internalType": "contract NFTsCardToken",
          "name": "_nullCardToken",
          "type": "address"
        },
        {
          "internalType": "contract ERC20",
          "name": "_leonToken",
          "type": "address"
        },
        {
          "internalType": "uint256",
          "name": "_dailyTime",
          "type": "uint256"
        }
      ],
      "stateMutability": "nonpayable",
      "type": "constructor"
    },
    {
      "anonymous": false,
      "inputs": [
        {
          "indexed": false,
          "internalType": "uint256",
          "name": "tokenId",
          "type": "uint256"
        },
        {
          "indexed": false,
          "internalType": "uint8",
          "name": "types",
          "type": "uint8"
        },
        {
          "indexed": false,
          "internalType": "uint256",
          "name": "skills",
          "type": "uint256"
        },
        {
          "indexed": false,
          "internalType": "uint8",
          "name": "rank",
          "type": "uint8"
        },
        {
          "indexed": false,
          "internalType": "uint256",
          "name": "blockNum",
          "type": "uint256"
        },
        {
          "indexed": false,
          "internalType": "address",
          "name": "author",
          "type": "address"
        }
      ],
      "name": "CreateCard",
      "type": "event"
    },
    {
      "anonymous": false,
      "inputs": [
        {
          "indexed": false,
          "internalType": "address",
          "name": "previousOwner",
          "type": "address"
        },
        {
          "indexed": false,
          "internalType": "address",
          "name": "newOwner",
          "type": "address"
        }
      ],
      "name": "GovernanceTransferred",
      "type": "event"
    },
    {
      "inputs": [],
      "name": "DURATION",
      "outputs": [
        {
          "internalType": "uint256",
          "name": "",
          "type": "uint256"
        }
      ],
      "stateMutability": "view",
      "type": "function"
    },
    {
      "inputs": [],
      "name": "_governance",
      "outputs": [
        {
          "internalType": "address",
          "name": "",
          "type": "address"
        }
      ],
      "stateMutability": "view",
      "type": "function"
    },
    {
      "inputs": [
        {
          "internalType": "uint8",
          "name": "_types",
          "type": "uint8"
        },
        {
          "internalType": "uint256",
          "name": "_skills",
          "type": "uint256"
        },
        {
          "internalType": "uint8",
          "name": "_rank",
          "type": "uint8"
        },
        {
          "internalType": "uint16",
          "name": "_startRange",
          "type": "uint16"
        },
        {
          "internalType": "uint16",
          "name": "_endRange",
          "type": "uint16"
        },
        {
          "internalType": "uint16",
          "name": "_weight",
          "type": "uint16"
        }
      ],
      "name": "addCardInfo",
      "outputs": [],
      "stateMutability": "nonpayable",
      "type": "function"
    },
    {
      "inputs": [
        {
          "internalType": "address",
          "name": "_payToken",
          "type": "address"
        },
        {
          "internalType": "uint256",
          "name": "_amount",
          "type": "uint256"
        }
      ],
      "name": "addPayment",
      "outputs": [],
      "stateMutability": "nonpayable",
      "type": "function"
    },
    {
      "inputs": [],
      "name": "burnPool",
      "outputs": [
        {
          "internalType": "address",
          "name": "",
          "type": "address"
        }
      ],
      "stateMutability": "view",
      "type": "function"
    },
    {
      "inputs": [
        {
          "internalType": "uint256",
          "name": "",
          "type": "uint256"
        }
      ],
      "name": "cardIndex",
      "outputs": [
        {
          "internalType": "uint8",
          "name": "types",
          "type": "uint8"
        },
        {
          "internalType": "uint256",
          "name": "skills",
          "type": "uint256"
        },
        {
          "internalType": "uint8",
          "name": "rank",
          "type": "uint8"
        }
      ],
      "stateMutability": "view",
      "type": "function"
    },
    {
      "inputs": [
        {
          "internalType": "uint256",
          "name": "",
          "type": "uint256"
        }
      ],
      "name": "cardsInfo",
      "outputs": [
        {
          "internalType": "uint8",
          "name": "types",
          "type": "uint8"
        },
        {
          "internalType": "uint256",
          "name": "skills",
          "type": "uint256"
        },
        {
          "internalType": "uint8",
          "name": "rank",
          "type": "uint8"
        },
        {
          "internalType": "uint16",
          "name": "startRange",
          "type": "uint16"
        },
        {
          "internalType": "uint16",
          "name": "endRange",
          "type": "uint16"
        },
        {
          "internalType": "uint16",
          "name": "weight",
          "type": "uint16"
        }
      ],
      "stateMutability": "view",
      "type": "function"
    },
    {
      "inputs": [
        {
          "internalType": "uint256",
          "name": "_pid",
          "type": "uint256"
        }
      ],
      "name": "createCard",
      "outputs": [],
      "stateMutability": "nonpayable",
      "type": "function"
    },
    {
      "inputs": [],
      "name": "dailyTime",
      "outputs": [
        {
          "internalType": "uint256",
          "name": "",
          "type": "uint256"
        }
      ],
      "stateMutability": "view",
      "type": "function"
    },
    {
      "inputs": [
        {
          "internalType": "uint256",
          "name": "_cid",
          "type": "uint256"
        },
        {
          "internalType": "uint8",
          "name": "_types",
          "type": "uint8"
        },
        {
          "internalType": "uint256",
          "name": "_skills",
          "type": "uint256"
        },
        {
          "internalType": "uint8",
          "name": "_rank",
          "type": "uint8"
        },
        {
          "internalType": "uint16",
          "name": "_startRange",
          "type": "uint16"
        },
        {
          "internalType": "uint16",
          "name": "_endRange",
          "type": "uint16"
        },
        {
          "internalType": "uint16",
          "name": "_weight",
          "type": "uint16"
        }
      ],
      "name": "editCardInfo",
      "outputs": [],
      "stateMutability": "nonpayable",
      "type": "function"
    },
    {
      "inputs": [
        {
          "internalType": "uint256",
          "name": "_pid",
          "type": "uint256"
        },
        {
          "internalType": "uint256",
          "name": "_amount",
          "type": "uint256"
        }
      ],
      "name": "editPayment",
      "outputs": [],
      "stateMutability": "nonpayable",
      "type": "function"
    },
    {
      "inputs": [
        {
          "internalType": "uint256",
          "name": "tokenid",
          "type": "uint256"
        }
      ],
      "name": "getNullCard",
      "outputs": [
        {
          "internalType": "uint8",
          "name": "",
          "type": "uint8"
        },
        {
          "internalType": "uint256",
          "name": "",
          "type": "uint256"
        }
      ],
      "stateMutability": "view",
      "type": "function"
    },
    {
      "inputs": [
        {
          "internalType": "address",
          "name": "_account",
          "type": "address"
        },
        {
          "internalType": "uint256",
          "name": "_pid",
          "type": "uint256"
        }
      ],
      "name": "getPayment",
      "outputs": [
        {
          "internalType": "uint256",
          "name": "",
          "type": "uint256"
        }
      ],
      "stateMutability": "view",
      "type": "function"
    },
    {
      "inputs": [
        {
          "internalType": "address[]",
          "name": "_investorss",
          "type": "address[]"
        },
        {
          "internalType": "uint256[]",
          "name": "_tokenIds",
          "type": "uint256[]"
        },
        {
          "internalType": "uint8",
          "name": "_types",
          "type": "uint8"
        },
        {
          "internalType": "uint256[]",
          "name": "_skills",
          "type": "uint256[]"
        },
        {
          "internalType": "uint8",
          "name": "_rank",
          "type": "uint8"
        }
      ],
      "name": "nCardGeneration",
      "outputs": [
        {
          "internalType": "bool",
          "name": "",
          "type": "bool"
        }
      ],
      "stateMutability": "nonpayable",
      "type": "function"
    },
    {
      "inputs": [],
      "name": "nullCardToken",
      "outputs": [
        {
          "internalType": "contract NFTsCardToken",
          "name": "",
          "type": "address"
        }
      ],
      "stateMutability": "view",
      "type": "function"
    },
    {
      "inputs": [
        {
          "internalType": "uint256",
          "name": "",
          "type": "uint256"
        }
      ],
      "name": "paymentsInfo",
      "outputs": [
        {
          "internalType": "address",
          "name": "payToken",
          "type": "address"
        },
        {
          "internalType": "uint256",
          "name": "amount",
          "type": "uint256"
        }
      ],
      "stateMutability": "view",
      "type": "function"
    },
    {
      "inputs": [
        {
          "internalType": "address",
          "name": "governance",
          "type": "address"
        }
      ],
      "name": "setGovernance",
      "outputs": [],
      "stateMutability": "nonpayable",
      "type": "function"
    },
    {
      "inputs": [
        {
          "internalType": "uint256",
          "name": "_tokenId",
          "type": "uint256"
        },
        {
          "internalType": "uint8",
          "name": "_types",
          "type": "uint8"
        },
        {
          "internalType": "uint256",
          "name": "_skills",
          "type": "uint256"
        },
        {
          "internalType": "uint8",
          "name": "_rank",
          "type": "uint8"
        }
      ],
      "name": "setNcardIndex",
      "outputs": [],
      "stateMutability": "nonpayable",
      "type": "function"
    },
    {
      "inputs": [],
      "name": "totalWeight",
      "outputs": [
        {
          "internalType": "uint16",
          "name": "",
          "type": "uint16"
        }
      ],
      "stateMutability": "view",
      "type": "function"
    },
    {
      "inputs": [],
      "name": "updateTime",
      "outputs": [],
      "stateMutability": "nonpayable",
      "type": "function"
    },
    {
      "inputs": [
        {
          "internalType": "uint256",
          "name": "",
          "type": "uint256"
        }
      ],
      "name": "usersLog",
      "outputs": [
        {
          "internalType": "address",
          "name": "",
          "type": "address"
        }
      ],
      "stateMutability": "view",
      "type": "function"
    }
  ],
  "evm": {
    "bytecode": {
      "linkReferences": {},
      "object": "6080604052600180546001600160a01b03191673696969696969696969696969696969696969696917905534801561003657600080fd5b5060405161176a38038061176a8339818101604052606081101561005957600080fd5b5080516020820151604090920151600080546001600160a01b03199081163317909155600580546001600160a01b0394851690831617905560068054939094169216919091179091556004556116b6806100b46000396000f3fe608060405234801561001057600080fd5b50600436106101375760003560e01c8063a54b2a73116100b8578063d296d0a11161007c578063d296d0a11461036d578063d81e61c7146103b7578063dc555090146103f7578063e0794af0146103ff578063e407c3d214610422578063f78e1bcb1461048157610137565b8063a54b2a7314610290578063ab033ea914610298578063ab0d1856146102be578063b74dd1a4146102db578063ca89f4e41461032b57610137565b806361e2dce8116100ff57806361e2dce8146101a957806385bac237146101df57806396c82e571461020b578063977a767c1461022a578063a0e3e4a01461025657610137565b806303ddbe891461013c5780631be05289146101605780631c2f3e3d1461017a5780631ce49974146101825780634b45b97d146101a1575b600080fd5b6101446105b3565b604080516001600160a01b039092168252519081900360200190f35b6101686105c2565b60408051918252519081900360200190f35b6101446105c9565b61019f6004803603602081101561019857600080fd5b50356105d8565b005b6101686109e8565b61019f600480360360808110156101bf57600080fd5b5080359060ff6020820135811691604081013591606090910135166109ee565b61019f600480360360408110156101f557600080fd5b506001600160a01b038135169060200135610a50565b610213610b35565b6040805161ffff9092168252519081900360200190f35b6101686004803603604081101561024057600080fd5b506001600160a01b038135169060200135610b84565b6102736004803603602081101561026c57600080fd5b5035610beb565b6040805160ff909316835260208301919091528051918290030190f35b610144610c09565b61019f600480360360208110156102ae57600080fd5b50356001600160a01b0316610c18565b610144600480360360208110156102d457600080fd5b5035610d1e565b61019f600480360360e08110156102f157600080fd5b5080359060ff60208201358116916040810135916060820135169061ffff608082013581169160a081013582169160c09091013516610d45565b6103486004803603602081101561034157600080fd5b5035610eda565b6040805160ff9485168152602081019390935292168183015290519081900360600190f35b61019f600480360360c081101561038357600080fd5b5060ff81358116916020810135916040820135169061ffff6060820135811691608081013582169160a09091013516610f01565b6103d4600480360360208110156103cd57600080fd5b503561107b565b604080516001600160a01b03909316835260208301919091528051918290030190f35b61019f6110b0565b61019f6004803603604081101561041557600080fd5b50803590602001356112d8565b61043f6004803603602081101561043857600080fd5b503561134f565b6040805160ff97881681526020810196909652939095168484015261ffff9182166060850152811660808401529290921660a082015290519081900360c00190f35b61059f600480360360a081101561049757600080fd5b8101906020810181356401000000008111156104b257600080fd5b8201836020820111156104c457600080fd5b803590602001918460208302840111640100000000831117156104e657600080fd5b91939092909160208101903564010000000081111561050457600080fd5b82018360208201111561051657600080fd5b8035906020019184602083028401116401000000008311171561053857600080fd5b9193909260ff8335169260408101906020013564010000000081111561055d57600080fd5b82018360208201111561056f57600080fd5b8035906020019184602083028401116401000000008311171561059157600080fd5b91935091503560ff166113a5565b604080519115158252519081900360200190f35b6005546001600160a01b031681565b6212750081565b6000546001600160a01b031681565b6000600782815481106105e757fe5b60009182526020808320600290920290910154604080514160601b81850152815180820360140181526034820183528051908501204244010160548083019190915282518083039091018152607490910190915280519201919091206001600160a01b0390911692509061065b3385610b84565b600154604080516323b872dd60e01b81523360048201526001600160a01b039283166024820152604481018490529051929350908516916323b872dd916064808201926020929091908290030181600087803b1580156106ba57600080fd5b505af11580156106ce573d6000803e3d6000fd5b505050506040513d60208110156106e457600080fd5b50600090506106f3600a611543565b9050600060038260ff168154811061070757fe5b600091825260209091206003909102015460ff169050610727600a611583565b9150600060038360ff168154811061073b57fe5b60009182526020822060039182020160020154815460ff9182169450839291861690811061076557fe5b906000526020600020906003020190508260ff16600114156107bb57600281015460019061079d90600160281b900461ffff16611543565b600283015461ffff6101009091041660ff91909116010391506108ac565b8260ff16600214156107f05760028101546107e090600160281b900461ffff16611543565b60ff1681600101540391506108ac565b8260ff166003141561082857600281015461081590600160281b900461ffff16611583565b60ff1681600101540160010191506108ac565b8260ff166004141561087257600281015461084d90600160281b900461ffff16611543565b60ff168160020160039054906101000a900461ffff1661ffff160360020191506108ac565b600281015461088b90600160281b900461ffff16611583565b60ff168160020160039054906101000a900461ffff1660020261ffff160191505b600554604080516340c10f1960e01b8152336004820152602481018a905290516001600160a01b03909216916340c10f19916044808201926020929091908290030181600087803b15801561090057600080fd5b505af1158015610914573d6000803e3d6000fd5b505050506040513d602081101561092a57600080fd5b5050336000908152600860205260409020546001111561095857336000908152600860205260409020600190555b33600081815260086020908152604091829020805460020281554260019091015581518a815260ff80891692820192909252808301869052908616606082015243608082015260a0810192909252517fbb9c3e18653f8816d371f9f230cb40795d6a780268bbfe28f5bca75eedd0661f9181900360c00190a16109dd878584866115c3565b505050505050505050565b60045481565b6000546001600160a01b03163314610a3e576040805162461bcd60e51b815260206004820152600e60248201526d6e6f7420676f7665726e616e636560901b604482015290519081900360640190fd5b610a4a848484846115c3565b50505050565b6000546001600160a01b03163314610aa0576040805162461bcd60e51b815260206004820152600e60248201526d6e6f7420676f7665726e616e636560901b604482015290519081900360640190fd5b604080518082019091526001600160a01b039283168152602081019182526007805460018101825560009190915290517fa66cc928b5edb82af9bd49922954155ab7b0942694bea4ce44661d9a8736c688600290920291820180546001600160a01b0319169190941617909255517fa66cc928b5edb82af9bd49922954155ab7b0942694bea4ce44661d9a8736c68990910155565b60008060005b600354811015610b7e5760038181548110610b5257fe5b6000918252602090912060039091020160020154600160281b900461ffff169190910190600101610b3b565b50905090565b6001600160a01b0382166000908152600860205260408120546001811015610baa575060015b600060078481548110610bb957fe5b9060005260206000209060020201600101549050610be082826115ff90919063ffffffff16565b925050505b92915050565b6000908152600260205260409020805460019091015460ff90911691565b6001546001600160a01b031681565b6000546001600160a01b03163314610c68576040805162461bcd60e51b815260206004820152600e60248201526d6e6f7420676f7665726e616e636560901b604482015290519081900360640190fd5b6001600160a01b038116610cc3576040805162461bcd60e51b815260206004820152601f60248201527f6e657720676f7665726e616e636520746865207a65726f206164647265737300604482015290519081900360640190fd5b600080546040516001600160a01b03808516939216917f5f56bee8cffbe9a78652a74a60705edede02af10b0bbb888ca44b79a0d42ce8091a3600080546001600160a01b0319166001600160a01b0392909216919091179055565b60098181548110610d2b57fe5b6000918252602090912001546001600160a01b0316905081565b6000546001600160a01b03163314610d95576040805162461bcd60e51b815260206004820152600e60248201526d6e6f7420676f7665726e616e636560901b604482015290519081900360640190fd5b8560038881548110610da357fe5b906000526020600020906003020160000160006101000a81548160ff021916908360ff1602179055508460038881548110610dda57fe5b9060005260206000209060030201600101819055508360038881548110610dfd57fe5b906000526020600020906003020160020160006101000a81548160ff021916908360ff1602179055508260038881548110610e3457fe5b906000526020600020906003020160020160016101000a81548161ffff021916908361ffff1602179055508160038881548110610e6d57fe5b906000526020600020906003020160020160036101000a81548161ffff021916908361ffff1602179055508060038881548110610ea657fe5b906000526020600020906003020160020160056101000a81548161ffff021916908361ffff16021790555050505050505050565b600260208190526000918252604090912080546001820154919092015460ff928316921683565b6000546001600160a01b03163314610f51576040805162461bcd60e51b815260206004820152600e60248201526d6e6f7420676f7665726e616e636560901b604482015290519081900360640190fd5b6040805160c08101825260ff97881681526020810196875294871690850190815261ffff938416606086019081529284166080860190815291841660a08601908152600380546001810182556000829052965196027fc2575a0e9e593c00f959f8c92f12db2869c3395a3b0502d05e2516446f71f85b81018054978a1660ff1998891617905596517fc2575a0e9e593c00f959f8c92f12db2869c3395a3b0502d05e2516446f71f85c88015590517fc2575a0e9e593c00f959f8c92f12db2869c3395a3b0502d05e2516446f71f85d90960180549351925191518516600160281b0266ffff00000000001992861663010000000264ffff00000019949096166101000262ffff00199890991694909616939093179590951695909517949094161791909116179055565b6007818154811061108857fe5b6000918252602090912060029091020180546001909101546001600160a01b03909116915082565b6000546001600160a01b03163314611100576040805162461bcd60e51b815260206004820152600e60248201526d6e6f7420676f7665726e616e636560901b604482015290519081900360640190fd5b6000600454421115611234576201518060045442038161111c57fe5b06905080156111855760005b600954811015611172576001600860006009848154811061114557fe5b60009182526020808320909101546001600160a01b03168352820192909252604001902055600101611128565b506004805462015180830201905561122f565b60005b600954811015611222576201518060086000600984815481106111a757fe5b60009182526020808320909101546001600160a01b031683528201929092526040019020600101544203816111d857fe5b069150811561121a57600160086000600984815481106111f457fe5b60009182526020808320909101546001600160a01b031683528201929092526040019020555b600101611188565b5060048054620151800190555b6112d5565b506000805b6009548110156112d35762015180600860006009848154811061125857fe5b60009182526020808320909101546001600160a01b0316835282019290925260400190206001015442038161128957fe5b06915081156112cb57600160086000600984815481106112a557fe5b60009182526020808320909101546001600160a01b031683528201929092526040019020555b600101611239565b505b50565b6000546001600160a01b03163314611328576040805162461bcd60e51b815260206004820152600e60248201526d6e6f7420676f7665726e616e636560901b604482015290519081900360640190fd5b806007838154811061133657fe5b9060005260206000209060020201600101819055505050565b6003818154811061135c57fe5b600091825260209091206003909102018054600182015460029092015460ff91821693509081169061ffff610100820481169163010000008104821691600160281b9091041686565b600080546001600160a01b031633146113f6576040805162461bcd60e51b815260206004820152600e60248201526d6e6f7420676f7665726e616e636560901b604482015290519081900360640190fd5b87861461143d576040805162461bcd60e51b815260206004820152601060248201526f0d8cadcced0e840dcdee840dac2e8c6d60831b604482015290519081900360640190fd5b60005b86811015611533576005546001600160a01b03166340c10f198b8b8481811061146557fe5b905060200201356001600160a01b03168a8a8581811061148157fe5b905060200201356040518363ffffffff1660e01b815260040180836001600160a01b0316815260200182815260200192505050602060405180830381600087803b1580156114ce57600080fd5b505af11580156114e2573d6000803e3d6000fd5b505050506040513d60208110156114f857600080fd5b5061152b905088888381811061150a57fe5b905060200201358787878581811061151e57fe5b90506020020135866115c3565b600101611440565b5060019998505050505050505050565b604080514260208083019190915244828401528251808303840181526060909201909252805191012060009061ffff8316908161157c57fe5b0692915050565b60008161ffff16424260405160200180838152602001828152602001925050506040516020818303038152906040528051906020012060001c8161157c57fe5b6000938452600260208190526040909420805460ff94851660ff1991821617825560018201939093559093018054939092169216919091179055565b60008261160e57506000610be5565b8282028284828161161b57fe5b04146116585760405162461bcd60e51b81526004018080602001828103825260218152602001806116606021913960400191505060405180910390fd5b939250505056fe536166654d6174683a206d756c7469706c69636174696f6e206f766572666c6f77a264697066735822122014cfdc9a2575e963e93c98b22f297bbdd95aafe027c553dffc7520c05838940d64736f6c634300060c0033",
      "opcodes": "PUSH1 0x80 PUSH1 0x40 MSTORE PUSH1 0x1 DUP1 SLOAD PUSH1 0x1 PUSH1 0x1 PUSH1 0xA0 SHL SUB NOT AND PUSH20 0x6969696969696969696969696969696969696969 OR SWAP1 SSTORE CALLVALUE DUP1 ISZERO PUSH2 0x36 JUMPI PUSH1 0x0 DUP1 REVERT JUMPDEST POP PUSH1 0x40 MLOAD PUSH2 0x176A CODESIZE SUB DUP1 PUSH2 0x176A DUP4 CODECOPY DUP2 DUP2 ADD PUSH1 0x40 MSTORE PUSH1 0x60 DUP2 LT ISZERO PUSH2 0x59 JUMPI PUSH1 0x0 DUP1 REVERT JUMPDEST POP DUP1 MLOAD PUSH1 0x20 DUP3 ADD MLOAD PUSH1 0x40 SWAP1 SWAP3 ADD MLOAD PUSH1 0x0 DUP1 SLOAD PUSH1 0x1 PUSH1 0x1 PUSH1 0xA0 SHL SUB NOT SWAP1 DUP2 AND CALLER OR SWAP1 SWAP2 SSTORE PUSH1 0x5 DUP1 SLOAD PUSH1 0x1 PUSH1 0x1 PUSH1 0xA0 SHL SUB SWAP5 DUP6 AND SWAP1 DUP4 AND OR SWAP1 SSTORE PUSH1 0x6 DUP1 SLOAD SWAP4 SWAP1 SWAP5 AND SWAP3 AND SWAP2 SWAP1 SWAP2 OR SWAP1 SWAP2 SSTORE PUSH1 0x4 SSTORE PUSH2 0x16B6 DUP1 PUSH2 0xB4 PUSH1 0x0 CODECOPY PUSH1 0x0 RETURN INVALID PUSH1 0x80 PUSH1 0x40 MSTORE CALLVALUE DUP1 ISZERO PUSH2 0x10 JUMPI PUSH1 0x0 DUP1 REVERT JUMPDEST POP PUSH1 0x4 CALLDATASIZE LT PUSH2 0x137 JUMPI PUSH1 0x0 CALLDATALOAD PUSH1 0xE0 SHR DUP1 PUSH4 0xA54B2A73 GT PUSH2 0xB8 JUMPI DUP1 PUSH4 0xD296D0A1 GT PUSH2 0x7C JUMPI DUP1 PUSH4 0xD296D0A1 EQ PUSH2 0x36D JUMPI DUP1 PUSH4 0xD81E61C7 EQ PUSH2 0x3B7 JUMPI DUP1 PUSH4 0xDC555090 EQ PUSH2 0x3F7 JUMPI DUP1 PUSH4 0xE0794AF0 EQ PUSH2 0x3FF JUMPI DUP1 PUSH4 0xE407C3D2 EQ PUSH2 0x422 JUMPI DUP1 PUSH4 0xF78E1BCB EQ PUSH2 0x481 JUMPI PUSH2 0x137 JUMP JUMPDEST DUP1 PUSH4 0xA54B2A73 EQ PUSH2 0x290 JUMPI DUP1 PUSH4 0xAB033EA9 EQ PUSH2 0x298 JUMPI DUP1 PUSH4 0xAB0D1856 EQ PUSH2 0x2BE JUMPI DUP1 PUSH4 0xB74DD1A4 EQ PUSH2 0x2DB JUMPI DUP1 PUSH4 0xCA89F4E4 EQ PUSH2 0x32B JUMPI PUSH2 0x137 JUMP JUMPDEST DUP1 PUSH4 0x61E2DCE8 GT PUSH2 0xFF JUMPI DUP1 PUSH4 0x61E2DCE8 EQ PUSH2 0x1A9 JUMPI DUP1 PUSH4 0x85BAC237 EQ PUSH2 0x1DF JUMPI DUP1 PUSH4 0x96C82E57 EQ PUSH2 0x20B JUMPI DUP1 PUSH4 0x977A767C EQ PUSH2 0x22A JUMPI DUP1 PUSH4 0xA0E3E4A0 EQ PUSH2 0x256 JUMPI PUSH2 0x137 JUMP JUMPDEST DUP1 PUSH4 0x3DDBE89 EQ PUSH2 0x13C JUMPI DUP1 PUSH4 0x1BE05289 EQ PUSH2 0x160 JUMPI DUP1 PUSH4 0x1C2F3E3D EQ PUSH2 0x17A JUMPI DUP1 PUSH4 0x1CE49974 EQ PUSH2 0x182 JUMPI DUP1 PUSH4 0x4B45B97D EQ PUSH2 0x1A1 JUMPI JUMPDEST PUSH1 0x0 DUP1 REVERT JUMPDEST PUSH2 0x144 PUSH2 0x5B3 JUMP JUMPDEST PUSH1 0x40 DUP1 MLOAD PUSH1 0x1 PUSH1 0x1 PUSH1 0xA0 SHL SUB SWAP1 SWAP3 AND DUP3 MSTORE MLOAD SWAP1 DUP2 SWAP1 SUB PUSH1 0x20 ADD SWAP1 RETURN JUMPDEST PUSH2 0x168 PUSH2 0x5C2 JUMP JUMPDEST PUSH1 0x40 DUP1 MLOAD SWAP2 DUP3 MSTORE MLOAD SWAP1 DUP2 SWAP1 SUB PUSH1 0x20 ADD SWAP1 RETURN JUMPDEST PUSH2 0x144 PUSH2 0x5C9 JUMP JUMPDEST PUSH2 0x19F PUSH1 0x4 DUP1 CALLDATASIZE SUB PUSH1 0x20 DUP2 LT ISZERO PUSH2 0x198 JUMPI PUSH1 0x0 DUP1 REVERT JUMPDEST POP CALLDATALOAD PUSH2 0x5D8 JUMP JUMPDEST STOP JUMPDEST PUSH2 0x168 PUSH2 0x9E8 JUMP JUMPDEST PUSH2 0x19F PUSH1 0x4 DUP1 CALLDATASIZE SUB PUSH1 0x80 DUP2 LT ISZERO PUSH2 0x1BF JUMPI PUSH1 0x0 DUP1 REVERT JUMPDEST POP DUP1 CALLDATALOAD SWAP1 PUSH1 0xFF PUSH1 0x20 DUP3 ADD CALLDATALOAD DUP2 AND SWAP2 PUSH1 0x40 DUP2 ADD CALLDATALOAD SWAP2 PUSH1 0x60 SWAP1 SWAP2 ADD CALLDATALOAD AND PUSH2 0x9EE JUMP JUMPDEST PUSH2 0x19F PUSH1 0x4 DUP1 CALLDATASIZE SUB PUSH1 0x40 DUP2 LT ISZERO PUSH2 0x1F5 JUMPI PUSH1 0x0 DUP1 REVERT JUMPDEST POP PUSH1 0x1 PUSH1 0x1 PUSH1 0xA0 SHL SUB DUP2 CALLDATALOAD AND SWAP1 PUSH1 0x20 ADD CALLDATALOAD PUSH2 0xA50 JUMP JUMPDEST PUSH2 0x213 PUSH2 0xB35 JUMP JUMPDEST PUSH1 0x40 DUP1 MLOAD PUSH2 0xFFFF SWAP1 SWAP3 AND DUP3 MSTORE MLOAD SWAP1 DUP2 SWAP1 SUB PUSH1 0x20 ADD SWAP1 RETURN JUMPDEST PUSH2 0x168 PUSH1 0x4 DUP1 CALLDATASIZE SUB PUSH1 0x40 DUP2 LT ISZERO PUSH2 0x240 JUMPI PUSH1 0x0 DUP1 REVERT JUMPDEST POP PUSH1 0x1 PUSH1 0x1 PUSH1 0xA0 SHL SUB DUP2 CALLDATALOAD AND SWAP1 PUSH1 0x20 ADD CALLDATALOAD PUSH2 0xB84 JUMP JUMPDEST PUSH2 0x273 PUSH1 0x4 DUP1 CALLDATASIZE SUB PUSH1 0x20 DUP2 LT ISZERO PUSH2 0x26C JUMPI PUSH1 0x0 DUP1 REVERT JUMPDEST POP CALLDATALOAD PUSH2 0xBEB JUMP JUMPDEST PUSH1 0x40 DUP1 MLOAD PUSH1 0xFF SWAP1 SWAP4 AND DUP4 MSTORE PUSH1 0x20 DUP4 ADD SWAP2 SWAP1 SWAP2 MSTORE DUP1 MLOAD SWAP2 DUP3 SWAP1 SUB ADD SWAP1 RETURN JUMPDEST PUSH2 0x144 PUSH2 0xC09 JUMP JUMPDEST PUSH2 0x19F PUSH1 0x4 DUP1 CALLDATASIZE SUB PUSH1 0x20 DUP2 LT ISZERO PUSH2 0x2AE JUMPI PUSH1 0x0 DUP1 REVERT JUMPDEST POP CALLDATALOAD PUSH1 0x1 PUSH1 0x1 PUSH1 0xA0 SHL SUB AND PUSH2 0xC18 JUMP JUMPDEST PUSH2 0x144 PUSH1 0x4 DUP1 CALLDATASIZE SUB PUSH1 0x20 DUP2 LT ISZERO PUSH2 0x2D4 JUMPI PUSH1 0x0 DUP1 REVERT JUMPDEST POP CALLDATALOAD PUSH2 0xD1E JUMP JUMPDEST PUSH2 0x19F PUSH1 0x4 DUP1 CALLDATASIZE SUB PUSH1 0xE0 DUP2 LT ISZERO PUSH2 0x2F1 JUMPI PUSH1 0x0 DUP1 REVERT JUMPDEST POP DUP1 CALLDATALOAD SWAP1 PUSH1 0xFF PUSH1 0x20 DUP3 ADD CALLDATALOAD DUP2 AND SWAP2 PUSH1 0x40 DUP2 ADD CALLDATALOAD SWAP2 PUSH1 0x60 DUP3 ADD CALLDATALOAD AND SWAP1 PUSH2 0xFFFF PUSH1 0x80 DUP3 ADD CALLDATALOAD DUP2 AND SWAP2 PUSH1 0xA0 DUP2 ADD CALLDATALOAD DUP3 AND SWAP2 PUSH1 0xC0 SWAP1 SWAP2 ADD CALLDATALOAD AND PUSH2 0xD45 JUMP JUMPDEST PUSH2 0x348 PUSH1 0x4 DUP1 CALLDATASIZE SUB PUSH1 0x20 DUP2 LT ISZERO PUSH2 0x341 JUMPI PUSH1 0x0 DUP1 REVERT JUMPDEST POP CALLDATALOAD PUSH2 0xEDA JUMP JUMPDEST PUSH1 0x40 DUP1 MLOAD PUSH1 0xFF SWAP5 DUP6 AND DUP2 MSTORE PUSH1 0x20 DUP2 ADD SWAP4 SWAP1 SWAP4 MSTORE SWAP3 AND DUP2 DUP4 ADD MSTORE SWAP1 MLOAD SWAP1 DUP2 SWAP1 SUB PUSH1 0x60 ADD SWAP1 RETURN JUMPDEST PUSH2 0x19F PUSH1 0x4 DUP1 CALLDATASIZE SUB PUSH1 0xC0 DUP2 LT ISZERO PUSH2 0x383 JUMPI PUSH1 0x0 DUP1 REVERT JUMPDEST POP PUSH1 0xFF DUP2 CALLDATALOAD DUP2 AND SWAP2 PUSH1 0x20 DUP2 ADD CALLDATALOAD SWAP2 PUSH1 0x40 DUP3 ADD CALLDATALOAD AND SWAP1 PUSH2 0xFFFF PUSH1 0x60 DUP3 ADD CALLDATALOAD DUP2 AND SWAP2 PUSH1 0x80 DUP2 ADD CALLDATALOAD DUP3 AND SWAP2 PUSH1 0xA0 SWAP1 SWAP2 ADD CALLDATALOAD AND PUSH2 0xF01 JUMP JUMPDEST PUSH2 0x3D4 PUSH1 0x4 DUP1 CALLDATASIZE SUB PUSH1 0x20 DUP2 LT ISZERO PUSH2 0x3CD JUMPI PUSH1 0x0 DUP1 REVERT JUMPDEST POP CALLDATALOAD PUSH2 0x107B JUMP JUMPDEST PUSH1 0x40 DUP1 MLOAD PUSH1 0x1 PUSH1 0x1 PUSH1 0xA0 SHL SUB SWAP1 SWAP4 AND DUP4 MSTORE PUSH1 0x20 DUP4 ADD SWAP2 SWAP1 SWAP2 MSTORE DUP1 MLOAD SWAP2 DUP3 SWAP1 SUB ADD SWAP1 RETURN JUMPDEST PUSH2 0x19F PUSH2 0x10B0 JUMP JUMPDEST PUSH2 0x19F PUSH1 0x4 DUP1 CALLDATASIZE SUB PUSH1 0x40 DUP2 LT ISZERO PUSH2 0x415 JUMPI PUSH1 0x0 DUP1 REVERT JUMPDEST POP DUP1 CALLDATALOAD SWAP1 PUSH1 0x20 ADD CALLDATALOAD PUSH2 0x12D8 JUMP JUMPDEST PUSH2 0x43F PUSH1 0x4 DUP1 CALLDATASIZE SUB PUSH1 0x20 DUP2 LT ISZERO PUSH2 0x438 JUMPI PUSH1 0x0 DUP1 REVERT JUMPDEST POP CALLDATALOAD PUSH2 0x134F JUMP JUMPDEST PUSH1 0x40 DUP1 MLOAD PUSH1 0xFF SWAP8 DUP9 AND DUP2 MSTORE PUSH1 0x20 DUP2 ADD SWAP7 SWAP1 SWAP7 MSTORE SWAP4 SWAP1 SWAP6 AND DUP5 DUP5 ADD MSTORE PUSH2 0xFFFF SWAP2 DUP3 AND PUSH1 0x60 DUP6 ADD MSTORE DUP2 AND PUSH1 0x80 DUP5 ADD MSTORE SWAP3 SWAP1 SWAP3 AND PUSH1 0xA0 DUP3 ADD MSTORE SWAP1 MLOAD SWAP1 DUP2 SWAP1 SUB PUSH1 0xC0 ADD SWAP1 RETURN JUMPDEST PUSH2 0x59F PUSH1 0x4 DUP1 CALLDATASIZE SUB PUSH1 0xA0 DUP2 LT ISZERO PUSH2 0x497 JUMPI PUSH1 0x0 DUP1 REVERT JUMPDEST DUP2 ADD SWAP1 PUSH1 0x20 DUP2 ADD DUP2 CALLDATALOAD PUSH5 0x100000000 DUP2 GT ISZERO PUSH2 0x4B2 JUMPI PUSH1 0x0 DUP1 REVERT JUMPDEST DUP3 ADD DUP4 PUSH1 0x20 DUP3 ADD GT ISZERO PUSH2 0x4C4 JUMPI PUSH1 0x0 DUP1 REVERT JUMPDEST DUP1 CALLDATALOAD SWAP1 PUSH1 0x20 ADD SWAP2 DUP5 PUSH1 0x20 DUP4 MUL DUP5 ADD GT PUSH5 0x100000000 DUP4 GT OR ISZERO PUSH2 0x4E6 JUMPI PUSH1 0x0 DUP1 REVERT JUMPDEST SWAP2 SWAP4 SWAP1 SWAP3 SWAP1 SWAP2 PUSH1 0x20 DUP2 ADD SWAP1 CALLDATALOAD PUSH5 0x100000000 DUP2 GT ISZERO PUSH2 0x504 JUMPI PUSH1 0x0 DUP1 REVERT JUMPDEST DUP3 ADD DUP4 PUSH1 0x20 DUP3 ADD GT ISZERO PUSH2 0x516 JUMPI PUSH1 0x0 DUP1 REVERT JUMPDEST DUP1 CALLDATALOAD SWAP1 PUSH1 0x20 ADD SWAP2 DUP5 PUSH1 0x20 DUP4 MUL DUP5 ADD GT PUSH5 0x100000000 DUP4 GT OR ISZERO PUSH2 0x538 JUMPI PUSH1 0x0 DUP1 REVERT JUMPDEST SWAP2 SWAP4 SWAP1 SWAP3 PUSH1 0xFF DUP4 CALLDATALOAD AND SWAP3 PUSH1 0x40 DUP2 ADD SWAP1 PUSH1 0x20 ADD CALLDATALOAD PUSH5 0x100000000 DUP2 GT ISZERO PUSH2 0x55D JUMPI PUSH1 0x0 DUP1 REVERT JUMPDEST DUP3 ADD DUP4 PUSH1 0x20 DUP3 ADD GT ISZERO PUSH2 0x56F JUMPI PUSH1 0x0 DUP1 REVERT JUMPDEST DUP1 CALLDATALOAD SWAP1 PUSH1 0x20 ADD SWAP2 DUP5 PUSH1 0x20 DUP4 MUL DUP5 ADD GT PUSH5 0x100000000 DUP4 GT OR ISZERO PUSH2 0x591 JUMPI PUSH1 0x0 DUP1 REVERT JUMPDEST SWAP2 SWAP4 POP SWAP2 POP CALLDATALOAD PUSH1 0xFF AND PUSH2 0x13A5 JUMP JUMPDEST PUSH1 0x40 DUP1 MLOAD SWAP2 ISZERO ISZERO DUP3 MSTORE MLOAD SWAP1 DUP2 SWAP1 SUB PUSH1 0x20 ADD SWAP1 RETURN JUMPDEST PUSH1 0x5 SLOAD PUSH1 0x1 PUSH1 0x1 PUSH1 0xA0 SHL SUB AND DUP2 JUMP JUMPDEST PUSH3 0x127500 DUP2 JUMP JUMPDEST PUSH1 0x0 SLOAD PUSH1 0x1 PUSH1 0x1 PUSH1 0xA0 SHL SUB AND DUP2 JUMP JUMPDEST PUSH1 0x0 PUSH1 0x7 DUP3 DUP2 SLOAD DUP2 LT PUSH2 0x5E7 JUMPI INVALID JUMPDEST PUSH1 0x0 SWAP2 DUP3 MSTORE PUSH1 0x20 DUP1 DUP4 KECCAK256 PUSH1 0x2 SWAP1 SWAP3 MUL SWAP1 SWAP2 ADD SLOAD PUSH1 0x40 DUP1 MLOAD COINBASE PUSH1 0x60 SHL DUP2 DUP6 ADD MSTORE DUP2 MLOAD DUP1 DUP3 SUB PUSH1 0x14 ADD DUP2 MSTORE PUSH1 0x34 DUP3 ADD DUP4 MSTORE DUP1 MLOAD SWAP1 DUP6 ADD KECCAK256 TIMESTAMP DIFFICULTY ADD ADD PUSH1 0x54 DUP1 DUP4 ADD SWAP2 SWAP1 SWAP2 MSTORE DUP3 MLOAD DUP1 DUP4 SUB SWAP1 SWAP2 ADD DUP2 MSTORE PUSH1 0x74 SWAP1 SWAP2 ADD SWAP1 SWAP2 MSTORE DUP1 MLOAD SWAP3 ADD SWAP2 SWAP1 SWAP2 KECCAK256 PUSH1 0x1 PUSH1 0x1 PUSH1 0xA0 SHL SUB SWAP1 SWAP2 AND SWAP3 POP SWAP1 PUSH2 0x65B CALLER DUP6 PUSH2 0xB84 JUMP JUMPDEST PUSH1 0x1 SLOAD PUSH1 0x40 DUP1 MLOAD PUSH4 0x23B872DD PUSH1 0xE0 SHL DUP2 MSTORE CALLER PUSH1 0x4 DUP3 ADD MSTORE PUSH1 0x1 PUSH1 0x1 PUSH1 0xA0 SHL SUB SWAP3 DUP4 AND PUSH1 0x24 DUP3 ADD MSTORE PUSH1 0x44 DUP2 ADD DUP5 SWAP1 MSTORE SWAP1 MLOAD SWAP3 SWAP4 POP SWAP1 DUP6 AND SWAP2 PUSH4 0x23B872DD SWAP2 PUSH1 0x64 DUP1 DUP3 ADD SWAP3 PUSH1 0x20 SWAP3 SWAP1 SWAP2 SWAP1 DUP3 SWAP1 SUB ADD DUP2 PUSH1 0x0 DUP8 DUP1 EXTCODESIZE ISZERO DUP1 ISZERO PUSH2 0x6BA JUMPI PUSH1 0x0 DUP1 REVERT JUMPDEST POP GAS CALL ISZERO DUP1 ISZERO PUSH2 0x6CE JUMPI RETURNDATASIZE PUSH1 0x0 DUP1 RETURNDATACOPY RETURNDATASIZE PUSH1 0x0 REVERT JUMPDEST POP POP POP POP PUSH1 0x40 MLOAD RETURNDATASIZE PUSH1 0x20 DUP2 LT ISZERO PUSH2 0x6E4 JUMPI PUSH1 0x0 DUP1 REVERT JUMPDEST POP PUSH1 0x0 SWAP1 POP PUSH2 0x6F3 PUSH1 0xA PUSH2 0x1543 JUMP JUMPDEST SWAP1 POP PUSH1 0x0 PUSH1 0x3 DUP3 PUSH1 0xFF AND DUP2 SLOAD DUP2 LT PUSH2 0x707 JUMPI INVALID JUMPDEST PUSH1 0x0 SWAP2 DUP3 MSTORE PUSH1 0x20 SWAP1 SWAP2 KECCAK256 PUSH1 0x3 SWAP1 SWAP2 MUL ADD SLOAD PUSH1 0xFF AND SWAP1 POP PUSH2 0x727 PUSH1 0xA PUSH2 0x1583 JUMP JUMPDEST SWAP2 POP PUSH1 0x0 PUSH1 0x3 DUP4 PUSH1 0xFF AND DUP2 SLOAD DUP2 LT PUSH2 0x73B JUMPI INVALID JUMPDEST PUSH1 0x0 SWAP2 DUP3 MSTORE PUSH1 0x20 DUP3 KECCAK256 PUSH1 0x3 SWAP2 DUP3 MUL ADD PUSH1 0x2 ADD SLOAD DUP2 SLOAD PUSH1 0xFF SWAP2 DUP3 AND SWAP5 POP DUP4 SWAP3 SWAP2 DUP7 AND SWAP1 DUP2 LT PUSH2 0x765 JUMPI INVALID JUMPDEST SWAP1 PUSH1 0x0 MSTORE PUSH1 0x20 PUSH1 0x0 KECCAK256 SWAP1 PUSH1 0x3 MUL ADD SWAP1 POP DUP3 PUSH1 0xFF AND PUSH1 0x1 EQ ISZERO PUSH2 0x7BB JUMPI PUSH1 0x2 DUP2 ADD SLOAD PUSH1 0x1 SWAP1 PUSH2 0x79D SWAP1 PUSH1 0x1 PUSH1 0x28 SHL SWAP1 DIV PUSH2 0xFFFF AND PUSH2 0x1543 JUMP JUMPDEST PUSH1 0x2 DUP4 ADD SLOAD PUSH2 0xFFFF PUSH2 0x100 SWAP1 SWAP2 DIV AND PUSH1 0xFF SWAP2 SWAP1 SWAP2 AND ADD SUB SWAP2 POP PUSH2 0x8AC JUMP JUMPDEST DUP3 PUSH1 0xFF AND PUSH1 0x2 EQ ISZERO PUSH2 0x7F0 JUMPI PUSH1 0x2 DUP2 ADD SLOAD PUSH2 0x7E0 SWAP1 PUSH1 0x1 PUSH1 0x28 SHL SWAP1 DIV PUSH2 0xFFFF AND PUSH2 0x1543 JUMP JUMPDEST PUSH1 0xFF AND DUP2 PUSH1 0x1 ADD SLOAD SUB SWAP2 POP PUSH2 0x8AC JUMP JUMPDEST DUP3 PUSH1 0xFF AND PUSH1 0x3 EQ ISZERO PUSH2 0x828 JUMPI PUSH1 0x2 DUP2 ADD SLOAD PUSH2 0x815 SWAP1 PUSH1 0x1 PUSH1 0x28 SHL SWAP1 DIV PUSH2 0xFFFF AND PUSH2 0x1583 JUMP JUMPDEST PUSH1 0xFF AND DUP2 PUSH1 0x1 ADD SLOAD ADD PUSH1 0x1 ADD SWAP2 POP PUSH2 0x8AC JUMP JUMPDEST DUP3 PUSH1 0xFF AND PUSH1 0x4 EQ ISZERO PUSH2 0x872 JUMPI PUSH1 0x2 DUP2 ADD SLOAD PUSH2 0x84D SWAP1 PUSH1 0x1 PUSH1 0x28 SHL SWAP1 DIV PUSH2 0xFFFF AND PUSH2 0x1543 JUMP JUMPDEST PUSH1 0xFF AND DUP2 PUSH1 0x2 ADD PUSH1 0x3 SWAP1 SLOAD SWAP1 PUSH2 0x100 EXP SWAP1 DIV PUSH2 0xFFFF AND PUSH2 0xFFFF AND SUB PUSH1 0x2 ADD SWAP2 POP PUSH2 0x8AC JUMP JUMPDEST PUSH1 0x2 DUP2 ADD SLOAD PUSH2 0x88B SWAP1 PUSH1 0x1 PUSH1 0x28 SHL SWAP1 DIV PUSH2 0xFFFF AND PUSH2 0x1583 JUMP JUMPDEST PUSH1 0xFF AND DUP2 PUSH1 0x2 ADD PUSH1 0x3 SWAP1 SLOAD SWAP1 PUSH2 0x100 EXP SWAP1 DIV PUSH2 0xFFFF AND PUSH1 0x2 MUL PUSH2 0xFFFF AND ADD SWAP2 POP JUMPDEST PUSH1 0x5 SLOAD PUSH1 0x40 DUP1 MLOAD PUSH4 0x40C10F19 PUSH1 0xE0 SHL DUP2 MSTORE CALLER PUSH1 0x4 DUP3 ADD MSTORE PUSH1 0x24 DUP2 ADD DUP11 SWAP1 MSTORE SWAP1 MLOAD PUSH1 0x1 PUSH1 0x1 PUSH1 0xA0 SHL SUB SWAP1 SWAP3 AND SWAP2 PUSH4 0x40C10F19 SWAP2 PUSH1 0x44 DUP1 DUP3 ADD SWAP3 PUSH1 0x20 SWAP3 SWAP1 SWAP2 SWAP1 DUP3 SWAP1 SUB ADD DUP2 PUSH1 0x0 DUP8 DUP1 EXTCODESIZE ISZERO DUP1 ISZERO PUSH2 0x900 JUMPI PUSH1 0x0 DUP1 REVERT JUMPDEST POP GAS CALL ISZERO DUP1 ISZERO PUSH2 0x914 JUMPI RETURNDATASIZE PUSH1 0x0 DUP1 RETURNDATACOPY RETURNDATASIZE PUSH1 0x0 REVERT JUMPDEST POP POP POP POP PUSH1 0x40 MLOAD RETURNDATASIZE PUSH1 0x20 DUP2 LT ISZERO PUSH2 0x92A JUMPI PUSH1 0x0 DUP1 REVERT JUMPDEST POP POP CALLER PUSH1 0x0 SWAP1 DUP2 MSTORE PUSH1 0x8 PUSH1 0x20 MSTORE PUSH1 0x40 SWAP1 KECCAK256 SLOAD PUSH1 0x1 GT ISZERO PUSH2 0x958 JUMPI CALLER PUSH1 0x0 SWAP1 DUP2 MSTORE PUSH1 0x8 PUSH1 0x20 MSTORE PUSH1 0x40 SWAP1 KECCAK256 PUSH1 0x1 SWAP1 SSTORE JUMPDEST CALLER PUSH1 0x0 DUP2 DUP2 MSTORE PUSH1 0x8 PUSH1 0x20 SWAP1 DUP2 MSTORE PUSH1 0x40 SWAP2 DUP3 SWAP1 KECCAK256 DUP1 SLOAD PUSH1 0x2 MUL DUP2 SSTORE TIMESTAMP PUSH1 0x1 SWAP1 SWAP2 ADD SSTORE DUP2 MLOAD DUP11 DUP2 MSTORE PUSH1 0xFF DUP1 DUP10 AND SWAP3 DUP3 ADD SWAP3 SWAP1 SWAP3 MSTORE DUP1 DUP4 ADD DUP7 SWAP1 MSTORE SWAP1 DUP7 AND PUSH1 0x60 DUP3 ADD MSTORE NUMBER PUSH1 0x80 DUP3 ADD MSTORE PUSH1 0xA0 DUP2 ADD SWAP3 SWAP1 SWAP3 MSTORE MLOAD PUSH32 0xBB9C3E18653F8816D371F9F230CB40795D6A780268BBFE28F5BCA75EEDD0661F SWAP2 DUP2 SWAP1 SUB PUSH1 0xC0 ADD SWAP1 LOG1 PUSH2 0x9DD DUP8 DUP6 DUP5 DUP7 PUSH2 0x15C3 JUMP JUMPDEST POP POP POP POP POP POP POP POP POP JUMP JUMPDEST PUSH1 0x4 SLOAD DUP2 JUMP JUMPDEST PUSH1 0x0 SLOAD PUSH1 0x1 PUSH1 0x1 PUSH1 0xA0 SHL SUB AND CALLER EQ PUSH2 0xA3E JUMPI PUSH1 0x40 DUP1 MLOAD PUSH3 0x461BCD PUSH1 0xE5 SHL DUP2 MSTORE PUSH1 0x20 PUSH1 0x4 DUP3 ADD MSTORE PUSH1 0xE PUSH1 0x24 DUP3 ADD MSTORE PUSH14 0x6E6F7420676F7665726E616E6365 PUSH1 0x90 SHL PUSH1 0x44 DUP3 ADD MSTORE SWAP1 MLOAD SWAP1 DUP2 SWAP1 SUB PUSH1 0x64 ADD SWAP1 REVERT JUMPDEST PUSH2 0xA4A DUP5 DUP5 DUP5 DUP5 PUSH2 0x15C3 JUMP JUMPDEST POP POP POP POP JUMP JUMPDEST PUSH1 0x0 SLOAD PUSH1 0x1 PUSH1 0x1 PUSH1 0xA0 SHL SUB AND CALLER EQ PUSH2 0xAA0 JUMPI PUSH1 0x40 DUP1 MLOAD PUSH3 0x461BCD PUSH1 0xE5 SHL DUP2 MSTORE PUSH1 0x20 PUSH1 0x4 DUP3 ADD MSTORE PUSH1 0xE PUSH1 0x24 DUP3 ADD MSTORE PUSH14 0x6E6F7420676F7665726E616E6365 PUSH1 0x90 SHL PUSH1 0x44 DUP3 ADD MSTORE SWAP1 MLOAD SWAP1 DUP2 SWAP1 SUB PUSH1 0x64 ADD SWAP1 REVERT JUMPDEST PUSH1 0x40 DUP1 MLOAD DUP1 DUP3 ADD SWAP1 SWAP2 MSTORE PUSH1 0x1 PUSH1 0x1 PUSH1 0xA0 SHL SUB SWAP3 DUP4 AND DUP2 MSTORE PUSH1 0x20 DUP2 ADD SWAP2 DUP3 MSTORE PUSH1 0x7 DUP1 SLOAD PUSH1 0x1 DUP2 ADD DUP3 SSTORE PUSH1 0x0 SWAP2 SWAP1 SWAP2 MSTORE SWAP1 MLOAD PUSH32 0xA66CC928B5EDB82AF9BD49922954155AB7B0942694BEA4CE44661D9A8736C688 PUSH1 0x2 SWAP1 SWAP3 MUL SWAP2 DUP3 ADD DUP1 SLOAD PUSH1 0x1 PUSH1 0x1 PUSH1 0xA0 SHL SUB NOT AND SWAP2 SWAP1 SWAP5 AND OR SWAP1 SWAP3 SSTORE MLOAD PUSH32 0xA66CC928B5EDB82AF9BD49922954155AB7B0942694BEA4CE44661D9A8736C689 SWAP1 SWAP2 ADD SSTORE JUMP JUMPDEST PUSH1 0x0 DUP1 PUSH1 0x0 JUMPDEST PUSH1 0x3 SLOAD DUP2 LT ISZERO PUSH2 0xB7E JUMPI PUSH1 0x3 DUP2 DUP2 SLOAD DUP2 LT PUSH2 0xB52 JUMPI INVALID JUMPDEST PUSH1 0x0 SWAP2 DUP3 MSTORE PUSH1 0x20 SWAP1 SWAP2 KECCAK256 PUSH1 0x3 SWAP1 SWAP2 MUL ADD PUSH1 0x2 ADD SLOAD PUSH1 0x1 PUSH1 0x28 SHL SWAP1 DIV PUSH2 0xFFFF AND SWAP2 SWAP1 SWAP2 ADD SWAP1 PUSH1 0x1 ADD PUSH2 0xB3B JUMP JUMPDEST POP SWAP1 POP SWAP1 JUMP JUMPDEST PUSH1 0x1 PUSH1 0x1 PUSH1 0xA0 SHL SUB DUP3 AND PUSH1 0x0 SWAP1 DUP2 MSTORE PUSH1 0x8 PUSH1 0x20 MSTORE PUSH1 0x40 DUP2 KECCAK256 SLOAD PUSH1 0x1 DUP2 LT ISZERO PUSH2 0xBAA JUMPI POP PUSH1 0x1 JUMPDEST PUSH1 0x0 PUSH1 0x7 DUP5 DUP2 SLOAD DUP2 LT PUSH2 0xBB9 JUMPI INVALID JUMPDEST SWAP1 PUSH1 0x0 MSTORE PUSH1 0x20 PUSH1 0x0 KECCAK256 SWAP1 PUSH1 0x2 MUL ADD PUSH1 0x1 ADD SLOAD SWAP1 POP PUSH2 0xBE0 DUP3 DUP3 PUSH2 0x15FF SWAP1 SWAP2 SWAP1 PUSH4 0xFFFFFFFF AND JUMP JUMPDEST SWAP3 POP POP POP JUMPDEST SWAP3 SWAP2 POP POP JUMP JUMPDEST PUSH1 0x0 SWAP1 DUP2 MSTORE PUSH1 0x2 PUSH1 0x20 MSTORE PUSH1 0x40 SWAP1 KECCAK256 DUP1 SLOAD PUSH1 0x1 SWAP1 SWAP2 ADD SLOAD PUSH1 0xFF SWAP1 SWAP2 AND SWAP2 JUMP JUMPDEST PUSH1 0x1 SLOAD PUSH1 0x1 PUSH1 0x1 PUSH1 0xA0 SHL SUB AND DUP2 JUMP JUMPDEST PUSH1 0x0 SLOAD PUSH1 0x1 PUSH1 0x1 PUSH1 0xA0 SHL SUB AND CALLER EQ PUSH2 0xC68 JUMPI PUSH1 0x40 DUP1 MLOAD PUSH3 0x461BCD PUSH1 0xE5 SHL DUP2 MSTORE PUSH1 0x20 PUSH1 0x4 DUP3 ADD MSTORE PUSH1 0xE PUSH1 0x24 DUP3 ADD MSTORE PUSH14 0x6E6F7420676F7665726E616E6365 PUSH1 0x90 SHL PUSH1 0x44 DUP3 ADD MSTORE SWAP1 MLOAD SWAP1 DUP2 SWAP1 SUB PUSH1 0x64 ADD SWAP1 REVERT JUMPDEST PUSH1 0x1 PUSH1 0x1 PUSH1 0xA0 SHL SUB DUP2 AND PUSH2 0xCC3 JUMPI PUSH1 0x40 DUP1 MLOAD PUSH3 0x461BCD PUSH1 0xE5 SHL DUP2 MSTORE PUSH1 0x20 PUSH1 0x4 DUP3 ADD MSTORE PUSH1 0x1F PUSH1 0x24 DUP3 ADD MSTORE PUSH32 0x6E657720676F7665726E616E636520746865207A65726F206164647265737300 PUSH1 0x44 DUP3 ADD MSTORE SWAP1 MLOAD SWAP1 DUP2 SWAP1 SUB PUSH1 0x64 ADD SWAP1 REVERT JUMPDEST PUSH1 0x0 DUP1 SLOAD PUSH1 0x40 MLOAD PUSH1 0x1 PUSH1 0x1 PUSH1 0xA0 SHL SUB DUP1 DUP6 AND SWAP4 SWAP3 AND SWAP2 PUSH32 0x5F56BEE8CFFBE9A78652A74A60705EDEDE02AF10B0BBB888CA44B79A0D42CE80 SWAP2 LOG3 PUSH1 0x0 DUP1 SLOAD PUSH1 0x1 PUSH1 0x1 PUSH1 0xA0 SHL SUB NOT AND PUSH1 0x1 PUSH1 0x1 PUSH1 0xA0 SHL SUB SWAP3 SWAP1 SWAP3 AND SWAP2 SWAP1 SWAP2 OR SWAP1 SSTORE JUMP JUMPDEST PUSH1 0x9 DUP2 DUP2 SLOAD DUP2 LT PUSH2 0xD2B JUMPI INVALID JUMPDEST PUSH1 0x0 SWAP2 DUP3 MSTORE PUSH1 0x20 SWAP1 SWAP2 KECCAK256 ADD SLOAD PUSH1 0x1 PUSH1 0x1 PUSH1 0xA0 SHL SUB AND SWAP1 POP DUP2 JUMP JUMPDEST PUSH1 0x0 SLOAD PUSH1 0x1 PUSH1 0x1 PUSH1 0xA0 SHL SUB AND CALLER EQ PUSH2 0xD95 JUMPI PUSH1 0x40 DUP1 MLOAD PUSH3 0x461BCD PUSH1 0xE5 SHL DUP2 MSTORE PUSH1 0x20 PUSH1 0x4 DUP3 ADD MSTORE PUSH1 0xE PUSH1 0x24 DUP3 ADD MSTORE PUSH14 0x6E6F7420676F7665726E616E6365 PUSH1 0x90 SHL PUSH1 0x44 DUP3 ADD MSTORE SWAP1 MLOAD SWAP1 DUP2 SWAP1 SUB PUSH1 0x64 ADD SWAP1 REVERT JUMPDEST DUP6 PUSH1 0x3 DUP9 DUP2 SLOAD DUP2 LT PUSH2 0xDA3 JUMPI INVALID JUMPDEST SWAP1 PUSH1 0x0 MSTORE PUSH1 0x20 PUSH1 0x0 KECCAK256 SWAP1 PUSH1 0x3 MUL ADD PUSH1 0x0 ADD PUSH1 0x0 PUSH2 0x100 EXP DUP2 SLOAD DUP2 PUSH1 0xFF MUL NOT AND SWAP1 DUP4 PUSH1 0xFF AND MUL OR SWAP1 SSTORE POP DUP5 PUSH1 0x3 DUP9 DUP2 SLOAD DUP2 LT PUSH2 0xDDA JUMPI INVALID JUMPDEST SWAP1 PUSH1 0x0 MSTORE PUSH1 0x20 PUSH1 0x0 KECCAK256 SWAP1 PUSH1 0x3 MUL ADD PUSH1 0x1 ADD DUP2 SWAP1 SSTORE POP DUP4 PUSH1 0x3 DUP9 DUP2 SLOAD DUP2 LT PUSH2 0xDFD JUMPI INVALID JUMPDEST SWAP1 PUSH1 0x0 MSTORE PUSH1 0x20 PUSH1 0x0 KECCAK256 SWAP1 PUSH1 0x3 MUL ADD PUSH1 0x2 ADD PUSH1 0x0 PUSH2 0x100 EXP DUP2 SLOAD DUP2 PUSH1 0xFF MUL NOT AND SWAP1 DUP4 PUSH1 0xFF AND MUL OR SWAP1 SSTORE POP DUP3 PUSH1 0x3 DUP9 DUP2 SLOAD DUP2 LT PUSH2 0xE34 JUMPI INVALID JUMPDEST SWAP1 PUSH1 0x0 MSTORE PUSH1 0x20 PUSH1 0x0 KECCAK256 SWAP1 PUSH1 0x3 MUL ADD PUSH1 0x2 ADD PUSH1 0x1 PUSH2 0x100 EXP DUP2 SLOAD DUP2 PUSH2 0xFFFF MUL NOT AND SWAP1 DUP4 PUSH2 0xFFFF AND MUL OR SWAP1 SSTORE POP DUP2 PUSH1 0x3 DUP9 DUP2 SLOAD DUP2 LT PUSH2 0xE6D JUMPI INVALID JUMPDEST SWAP1 PUSH1 0x0 MSTORE PUSH1 0x20 PUSH1 0x0 KECCAK256 SWAP1 PUSH1 0x3 MUL ADD PUSH1 0x2 ADD PUSH1 0x3 PUSH2 0x100 EXP DUP2 SLOAD DUP2 PUSH2 0xFFFF MUL NOT AND SWAP1 DUP4 PUSH2 0xFFFF AND MUL OR SWAP1 SSTORE POP DUP1 PUSH1 0x3 DUP9 DUP2 SLOAD DUP2 LT PUSH2 0xEA6 JUMPI INVALID JUMPDEST SWAP1 PUSH1 0x0 MSTORE PUSH1 0x20 PUSH1 0x0 KECCAK256 SWAP1 PUSH1 0x3 MUL ADD PUSH1 0x2 ADD PUSH1 0x5 PUSH2 0x100 EXP DUP2 SLOAD DUP2 PUSH2 0xFFFF MUL NOT AND SWAP1 DUP4 PUSH2 0xFFFF AND MUL OR SWAP1 SSTORE POP POP POP POP POP POP POP POP JUMP JUMPDEST PUSH1 0x2 PUSH1 0x20 DUP2 SWAP1 MSTORE PUSH1 0x0 SWAP2 DUP3 MSTORE PUSH1 0x40 SWAP1 SWAP2 KECCAK256 DUP1 SLOAD PUSH1 0x1 DUP3 ADD SLOAD SWAP2 SWAP1 SWAP3 ADD SLOAD PUSH1 0xFF SWAP3 DUP4 AND SWAP3 AND DUP4 JUMP JUMPDEST PUSH1 0x0 SLOAD PUSH1 0x1 PUSH1 0x1 PUSH1 0xA0 SHL SUB AND CALLER EQ PUSH2 0xF51 JUMPI PUSH1 0x40 DUP1 MLOAD PUSH3 0x461BCD PUSH1 0xE5 SHL DUP2 MSTORE PUSH1 0x20 PUSH1 0x4 DUP3 ADD MSTORE PUSH1 0xE PUSH1 0x24 DUP3 ADD MSTORE PUSH14 0x6E6F7420676F7665726E616E6365 PUSH1 0x90 SHL PUSH1 0x44 DUP3 ADD MSTORE SWAP1 MLOAD SWAP1 DUP2 SWAP1 SUB PUSH1 0x64 ADD SWAP1 REVERT JUMPDEST PUSH1 0x40 DUP1 MLOAD PUSH1 0xC0 DUP2 ADD DUP3 MSTORE PUSH1 0xFF SWAP8 DUP9 AND DUP2 MSTORE PUSH1 0x20 DUP2 ADD SWAP7 DUP8 MSTORE SWAP5 DUP8 AND SWAP1 DUP6 ADD SWAP1 DUP2 MSTORE PUSH2 0xFFFF SWAP4 DUP5 AND PUSH1 0x60 DUP7 ADD SWAP1 DUP2 MSTORE SWAP3 DUP5 AND PUSH1 0x80 DUP7 ADD SWAP1 DUP2 MSTORE SWAP2 DUP5 AND PUSH1 0xA0 DUP7 ADD SWAP1 DUP2 MSTORE PUSH1 0x3 DUP1 SLOAD PUSH1 0x1 DUP2 ADD DUP3 SSTORE PUSH1 0x0 DUP3 SWAP1 MSTORE SWAP7 MLOAD SWAP7 MUL PUSH32 0xC2575A0E9E593C00F959F8C92F12DB2869C3395A3B0502D05E2516446F71F85B DUP2 ADD DUP1 SLOAD SWAP8 DUP11 AND PUSH1 0xFF NOT SWAP9 DUP10 AND OR SWAP1 SSTORE SWAP7 MLOAD PUSH32 0xC2575A0E9E593C00F959F8C92F12DB2869C3395A3B0502D05E2516446F71F85C DUP9 ADD SSTORE SWAP1 MLOAD PUSH32 0xC2575A0E9E593C00F959F8C92F12DB2869C3395A3B0502D05E2516446F71F85D SWAP1 SWAP7 ADD DUP1 SLOAD SWAP4 MLOAD SWAP3 MLOAD SWAP2 MLOAD DUP6 AND PUSH1 0x1 PUSH1 0x28 SHL MUL PUSH7 0xFFFF0000000000 NOT SWAP3 DUP7 AND PUSH4 0x1000000 MUL PUSH5 0xFFFF000000 NOT SWAP5 SWAP1 SWAP7 AND PUSH2 0x100 MUL PUSH3 0xFFFF00 NOT SWAP9 SWAP1 SWAP10 AND SWAP5 SWAP1 SWAP7 AND SWAP4 SWAP1 SWAP4 OR SWAP6 SWAP1 SWAP6 AND SWAP6 SWAP1 SWAP6 OR SWAP5 SWAP1 SWAP5 AND OR SWAP2 SWAP1 SWAP2 AND OR SWAP1 SSTORE JUMP JUMPDEST PUSH1 0x7 DUP2 DUP2 SLOAD DUP2 LT PUSH2 0x1088 JUMPI INVALID JUMPDEST PUSH1 0x0 SWAP2 DUP3 MSTORE PUSH1 0x20 SWAP1 SWAP2 KECCAK256 PUSH1 0x2 SWAP1 SWAP2 MUL ADD DUP1 SLOAD PUSH1 0x1 SWAP1 SWAP2 ADD SLOAD PUSH1 0x1 PUSH1 0x1 PUSH1 0xA0 SHL SUB SWAP1 SWAP2 AND SWAP2 POP DUP3 JUMP JUMPDEST PUSH1 0x0 SLOAD PUSH1 0x1 PUSH1 0x1 PUSH1 0xA0 SHL SUB AND CALLER EQ PUSH2 0x1100 JUMPI PUSH1 0x40 DUP1 MLOAD PUSH3 0x461BCD PUSH1 0xE5 SHL DUP2 MSTORE PUSH1 0x20 PUSH1 0x4 DUP3 ADD MSTORE PUSH1 0xE PUSH1 0x24 DUP3 ADD MSTORE PUSH14 0x6E6F7420676F7665726E616E6365 PUSH1 0x90 SHL PUSH1 0x44 DUP3 ADD MSTORE SWAP1 MLOAD SWAP1 DUP2 SWAP1 SUB PUSH1 0x64 ADD SWAP1 REVERT JUMPDEST PUSH1 0x0 PUSH1 0x4 SLOAD TIMESTAMP GT ISZERO PUSH2 0x1234 JUMPI PUSH3 0x15180 PUSH1 0x4 SLOAD TIMESTAMP SUB DUP2 PUSH2 0x111C JUMPI INVALID JUMPDEST MOD SWAP1 POP DUP1 ISZERO PUSH2 0x1185 JUMPI PUSH1 0x0 JUMPDEST PUSH1 0x9 SLOAD DUP2 LT ISZERO PUSH2 0x1172 JUMPI PUSH1 0x1 PUSH1 0x8 PUSH1 0x0 PUSH1 0x9 DUP5 DUP2 SLOAD DUP2 LT PUSH2 0x1145 JUMPI INVALID JUMPDEST PUSH1 0x0 SWAP2 DUP3 MSTORE PUSH1 0x20 DUP1 DUP4 KECCAK256 SWAP1 SWAP2 ADD SLOAD PUSH1 0x1 PUSH1 0x1 PUSH1 0xA0 SHL SUB AND DUP4 MSTORE DUP3 ADD SWAP3 SWAP1 SWAP3 MSTORE PUSH1 0x40 ADD SWAP1 KECCAK256 SSTORE PUSH1 0x1 ADD PUSH2 0x1128 JUMP JUMPDEST POP PUSH1 0x4 DUP1 SLOAD PUSH3 0x15180 DUP4 MUL ADD SWAP1 SSTORE PUSH2 0x122F JUMP JUMPDEST PUSH1 0x0 JUMPDEST PUSH1 0x9 SLOAD DUP2 LT ISZERO PUSH2 0x1222 JUMPI PUSH3 0x15180 PUSH1 0x8 PUSH1 0x0 PUSH1 0x9 DUP5 DUP2 SLOAD DUP2 LT PUSH2 0x11A7 JUMPI INVALID JUMPDEST PUSH1 0x0 SWAP2 DUP3 MSTORE PUSH1 0x20 DUP1 DUP4 KECCAK256 SWAP1 SWAP2 ADD SLOAD PUSH1 0x1 PUSH1 0x1 PUSH1 0xA0 SHL SUB AND DUP4 MSTORE DUP3 ADD SWAP3 SWAP1 SWAP3 MSTORE PUSH1 0x40 ADD SWAP1 KECCAK256 PUSH1 0x1 ADD SLOAD TIMESTAMP SUB DUP2 PUSH2 0x11D8 JUMPI INVALID JUMPDEST MOD SWAP2 POP DUP2 ISZERO PUSH2 0x121A JUMPI PUSH1 0x1 PUSH1 0x8 PUSH1 0x0 PUSH1 0x9 DUP5 DUP2 SLOAD DUP2 LT PUSH2 0x11F4 JUMPI INVALID JUMPDEST PUSH1 0x0 SWAP2 DUP3 MSTORE PUSH1 0x20 DUP1 DUP4 KECCAK256 SWAP1 SWAP2 ADD SLOAD PUSH1 0x1 PUSH1 0x1 PUSH1 0xA0 SHL SUB AND DUP4 MSTORE DUP3 ADD SWAP3 SWAP1 SWAP3 MSTORE PUSH1 0x40 ADD SWAP1 KECCAK256 SSTORE JUMPDEST PUSH1 0x1 ADD PUSH2 0x1188 JUMP JUMPDEST POP PUSH1 0x4 DUP1 SLOAD PUSH3 0x15180 ADD SWAP1 SSTORE JUMPDEST PUSH2 0x12D5 JUMP JUMPDEST POP PUSH1 0x0 DUP1 JUMPDEST PUSH1 0x9 SLOAD DUP2 LT ISZERO PUSH2 0x12D3 JUMPI PUSH3 0x15180 PUSH1 0x8 PUSH1 0x0 PUSH1 0x9 DUP5 DUP2 SLOAD DUP2 LT PUSH2 0x1258 JUMPI INVALID JUMPDEST PUSH1 0x0 SWAP2 DUP3 MSTORE PUSH1 0x20 DUP1 DUP4 KECCAK256 SWAP1 SWAP2 ADD SLOAD PUSH1 0x1 PUSH1 0x1 PUSH1 0xA0 SHL SUB AND DUP4 MSTORE DUP3 ADD SWAP3 SWAP1 SWAP3 MSTORE PUSH1 0x40 ADD SWAP1 KECCAK256 PUSH1 0x1 ADD SLOAD TIMESTAMP SUB DUP2 PUSH2 0x1289 JUMPI INVALID JUMPDEST MOD SWAP2 POP DUP2 ISZERO PUSH2 0x12CB JUMPI PUSH1 0x1 PUSH1 0x8 PUSH1 0x0 PUSH1 0x9 DUP5 DUP2 SLOAD DUP2 LT PUSH2 0x12A5 JUMPI INVALID JUMPDEST PUSH1 0x0 SWAP2 DUP3 MSTORE PUSH1 0x20 DUP1 DUP4 KECCAK256 SWAP1 SWAP2 ADD SLOAD PUSH1 0x1 PUSH1 0x1 PUSH1 0xA0 SHL SUB AND DUP4 MSTORE DUP3 ADD SWAP3 SWAP1 SWAP3 MSTORE PUSH1 0x40 ADD SWAP1 KECCAK256 SSTORE JUMPDEST PUSH1 0x1 ADD PUSH2 0x1239 JUMP JUMPDEST POP JUMPDEST POP JUMP JUMPDEST PUSH1 0x0 SLOAD PUSH1 0x1 PUSH1 0x1 PUSH1 0xA0 SHL SUB AND CALLER EQ PUSH2 0x1328 JUMPI PUSH1 0x40 DUP1 MLOAD PUSH3 0x461BCD PUSH1 0xE5 SHL DUP2 MSTORE PUSH1 0x20 PUSH1 0x4 DUP3 ADD MSTORE PUSH1 0xE PUSH1 0x24 DUP3 ADD MSTORE PUSH14 0x6E6F7420676F7665726E616E6365 PUSH1 0x90 SHL PUSH1 0x44 DUP3 ADD MSTORE SWAP1 MLOAD SWAP1 DUP2 SWAP1 SUB PUSH1 0x64 ADD SWAP1 REVERT JUMPDEST DUP1 PUSH1 0x7 DUP4 DUP2 SLOAD DUP2 LT PUSH2 0x1336 JUMPI INVALID JUMPDEST SWAP1 PUSH1 0x0 MSTORE PUSH1 0x20 PUSH1 0x0 KECCAK256 SWAP1 PUSH1 0x2 MUL ADD PUSH1 0x1 ADD DUP2 SWAP1 SSTORE POP POP POP JUMP JUMPDEST PUSH1 0x3 DUP2 DUP2 SLOAD DUP2 LT PUSH2 0x135C JUMPI INVALID JUMPDEST PUSH1 0x0 SWAP2 DUP3 MSTORE PUSH1 0x20 SWAP1 SWAP2 KECCAK256 PUSH1 0x3 SWAP1 SWAP2 MUL ADD DUP1 SLOAD PUSH1 0x1 DUP3 ADD SLOAD PUSH1 0x2 SWAP1 SWAP3 ADD SLOAD PUSH1 0xFF SWAP2 DUP3 AND SWAP4 POP SWAP1 DUP2 AND SWAP1 PUSH2 0xFFFF PUSH2 0x100 DUP3 DIV DUP2 AND SWAP2 PUSH4 0x1000000 DUP2 DIV DUP3 AND SWAP2 PUSH1 0x1 PUSH1 0x28 SHL SWAP1 SWAP2 DIV AND DUP7 JUMP JUMPDEST PUSH1 0x0 DUP1 SLOAD PUSH1 0x1 PUSH1 0x1 PUSH1 0xA0 SHL SUB AND CALLER EQ PUSH2 0x13F6 JUMPI PUSH1 0x40 DUP1 MLOAD PUSH3 0x461BCD PUSH1 0xE5 SHL DUP2 MSTORE PUSH1 0x20 PUSH1 0x4 DUP3 ADD MSTORE PUSH1 0xE PUSH1 0x24 DUP3 ADD MSTORE PUSH14 0x6E6F7420676F7665726E616E6365 PUSH1 0x90 SHL PUSH1 0x44 DUP3 ADD MSTORE SWAP1 MLOAD SWAP1 DUP2 SWAP1 SUB PUSH1 0x64 ADD SWAP1 REVERT JUMPDEST DUP8 DUP7 EQ PUSH2 0x143D JUMPI PUSH1 0x40 DUP1 MLOAD PUSH3 0x461BCD PUSH1 0xE5 SHL DUP2 MSTORE PUSH1 0x20 PUSH1 0x4 DUP3 ADD MSTORE PUSH1 0x10 PUSH1 0x24 DUP3 ADD MSTORE PUSH16 0xD8CADCCED0E840DCDEE840DAC2E8C6D PUSH1 0x83 SHL PUSH1 0x44 DUP3 ADD MSTORE SWAP1 MLOAD SWAP1 DUP2 SWAP1 SUB PUSH1 0x64 ADD SWAP1 REVERT JUMPDEST PUSH1 0x0 JUMPDEST DUP7 DUP2 LT ISZERO PUSH2 0x1533 JUMPI PUSH1 0x5 SLOAD PUSH1 0x1 PUSH1 0x1 PUSH1 0xA0 SHL SUB AND PUSH4 0x40C10F19 DUP12 DUP12 DUP5 DUP2 DUP2 LT PUSH2 0x1465 JUMPI INVALID JUMPDEST SWAP1 POP PUSH1 0x20 MUL ADD CALLDATALOAD PUSH1 0x1 PUSH1 0x1 PUSH1 0xA0 SHL SUB AND DUP11 DUP11 DUP6 DUP2 DUP2 LT PUSH2 0x1481 JUMPI INVALID JUMPDEST SWAP1 POP PUSH1 0x20 MUL ADD CALLDATALOAD PUSH1 0x40 MLOAD DUP4 PUSH4 0xFFFFFFFF AND PUSH1 0xE0 SHL DUP2 MSTORE PUSH1 0x4 ADD DUP1 DUP4 PUSH1 0x1 PUSH1 0x1 PUSH1 0xA0 SHL SUB AND DUP2 MSTORE PUSH1 0x20 ADD DUP3 DUP2 MSTORE PUSH1 0x20 ADD SWAP3 POP POP POP PUSH1 0x20 PUSH1 0x40 MLOAD DUP1 DUP4 SUB DUP2 PUSH1 0x0 DUP8 DUP1 EXTCODESIZE ISZERO DUP1 ISZERO PUSH2 0x14CE JUMPI PUSH1 0x0 DUP1 REVERT JUMPDEST POP GAS CALL ISZERO DUP1 ISZERO PUSH2 0x14E2 JUMPI RETURNDATASIZE PUSH1 0x0 DUP1 RETURNDATACOPY RETURNDATASIZE PUSH1 0x0 REVERT JUMPDEST POP POP POP POP PUSH1 0x40 MLOAD RETURNDATASIZE PUSH1 0x20 DUP2 LT ISZERO PUSH2 0x14F8 JUMPI PUSH1 0x0 DUP1 REVERT JUMPDEST POP PUSH2 0x152B SWAP1 POP DUP9 DUP9 DUP4 DUP2 DUP2 LT PUSH2 0x150A JUMPI INVALID JUMPDEST SWAP1 POP PUSH1 0x20 MUL ADD CALLDATALOAD DUP8 DUP8 DUP8 DUP6 DUP2 DUP2 LT PUSH2 0x151E JUMPI INVALID JUMPDEST SWAP1 POP PUSH1 0x20 MUL ADD CALLDATALOAD DUP7 PUSH2 0x15C3 JUMP JUMPDEST PUSH1 0x1 ADD PUSH2 0x1440 JUMP JUMPDEST POP PUSH1 0x1 SWAP10 SWAP9 POP POP POP POP POP POP POP POP POP JUMP JUMPDEST PUSH1 0x40 DUP1 MLOAD TIMESTAMP PUSH1 0x20 DUP1 DUP4 ADD SWAP2 SWAP1 SWAP2 MSTORE DIFFICULTY DUP3 DUP5 ADD MSTORE DUP3 MLOAD DUP1 DUP4 SUB DUP5 ADD DUP2 MSTORE PUSH1 0x60 SWAP1 SWAP3 ADD SWAP1 SWAP3 MSTORE DUP1 MLOAD SWAP2 ADD KECCAK256 PUSH1 0x0 SWAP1 PUSH2 0xFFFF DUP4 AND SWAP1 DUP2 PUSH2 0x157C JUMPI INVALID JUMPDEST MOD SWAP3 SWAP2 POP POP JUMP JUMPDEST PUSH1 0x0 DUP2 PUSH2 0xFFFF AND TIMESTAMP TIMESTAMP PUSH1 0x40 MLOAD PUSH1 0x20 ADD DUP1 DUP4 DUP2 MSTORE PUSH1 0x20 ADD DUP3 DUP2 MSTORE PUSH1 0x20 ADD SWAP3 POP POP POP PUSH1 0x40 MLOAD PUSH1 0x20 DUP2 DUP4 SUB SUB DUP2 MSTORE SWAP1 PUSH1 0x40 MSTORE DUP1 MLOAD SWAP1 PUSH1 0x20 ADD KECCAK256 PUSH1 0x0 SHR DUP2 PUSH2 0x157C JUMPI INVALID JUMPDEST PUSH1 0x0 SWAP4 DUP5 MSTORE PUSH1 0x2 PUSH1 0x20 DUP2 SWAP1 MSTORE PUSH1 0x40 SWAP1 SWAP5 KECCAK256 DUP1 SLOAD PUSH1 0xFF SWAP5 DUP6 AND PUSH1 0xFF NOT SWAP2 DUP3 AND OR DUP3 SSTORE PUSH1 0x1 DUP3 ADD SWAP4 SWAP1 SWAP4 SSTORE SWAP1 SWAP4 ADD DUP1 SLOAD SWAP4 SWAP1 SWAP3 AND SWAP3 AND SWAP2 SWAP1 SWAP2 OR SWAP1 SSTORE JUMP JUMPDEST PUSH1 0x0 DUP3 PUSH2 0x160E JUMPI POP PUSH1 0x0 PUSH2 0xBE5 JUMP JUMPDEST DUP3 DUP3 MUL DUP3 DUP5 DUP3 DUP2 PUSH2 0x161B JUMPI INVALID JUMPDEST DIV EQ PUSH2 0x1658 JUMPI PUSH1 0x40 MLOAD PUSH3 0x461BCD PUSH1 0xE5 SHL DUP2 MSTORE PUSH1 0x4 ADD DUP1 DUP1 PUSH1 0x20 ADD DUP3 DUP2 SUB DUP3 MSTORE PUSH1 0x21 DUP2 MSTORE PUSH1 0x20 ADD DUP1 PUSH2 0x1660 PUSH1 0x21 SWAP2 CODECOPY PUSH1 0x40 ADD SWAP2 POP POP PUSH1 0x40 MLOAD DUP1 SWAP2 SUB SWAP1 REVERT JUMPDEST SWAP4 SWAP3 POP POP POP JUMP INVALID MSTORE8 PUSH2 0x6665 0x4D PUSH2 0x7468 GASPRICE KECCAK256 PUSH14 0x756C7469706C69636174696F6E20 PUSH16 0x766572666C6F77A26469706673582212 KECCAK256 EQ 0xCF 0xDC SWAP11 0x25 PUSH22 0xE963E93C98B22F297BBDD95AAFE027C553DFFC7520C0 PC CODESIZE SWAP5 0xD PUSH5 0x736F6C6343 STOP MOD 0xC STOP CALLER "
    }
  },
  "interface": [
    {
      "inputs": [
        {
          "internalType": "contract NFTsCardToken",
          "name": "_nullCardToken",
          "type": "address"
        },
        {
          "internalType": "contract ERC20",
          "name": "_leonToken",
          "type": "address"
        },
        {
          "internalType": "uint256",
          "name": "_dailyTime",
          "type": "uint256"
        }
      ],
      "stateMutability": "nonpayable",
      "type": "constructor"
    },
    {
      "anonymous": false,
      "inputs": [
        {
          "indexed": false,
          "internalType": "uint256",
          "name": "tokenId",
          "type": "uint256"
        },
        {
          "indexed": false,
          "internalType": "uint8",
          "name": "types",
          "type": "uint8"
        },
        {
          "indexed": false,
          "internalType": "uint256",
          "name": "skills",
          "type": "uint256"
        },
        {
          "indexed": false,
          "internalType": "uint8",
          "name": "rank",
          "type": "uint8"
        },
        {
          "indexed": false,
          "internalType": "uint256",
          "name": "blockNum",
          "type": "uint256"
        },
        {
          "indexed": false,
          "internalType": "address",
          "name": "author",
          "type": "address"
        }
      ],
      "name": "CreateCard",
      "type": "event"
    },
    {
      "anonymous": false,
      "inputs": [
        {
          "indexed": false,
          "internalType": "address",
          "name": "previousOwner",
          "type": "address"
        },
        {
          "indexed": false,
          "internalType": "address",
          "name": "newOwner",
          "type": "address"
        }
      ],
      "name": "GovernanceTransferred",
      "type": "event"
    },
    {
      "inputs": [],
      "name": "DURATION",
      "outputs": [
        {
          "internalType": "uint256",
          "name": "",
          "type": "uint256"
        }
      ],
      "stateMutability": "view",
      "type": "function"
    },
    {
      "inputs": [],
      "name": "_governance",
      "outputs": [
        {
          "internalType": "address",
          "name": "",
          "type": "address"
        }
      ],
      "stateMutability": "view",
      "type": "function"
    },
    {
      "inputs": [
        {
          "internalType": "uint8",
          "name": "_types",
          "type": "uint8"
        },
        {
          "internalType": "uint256",
          "name": "_skills",
          "type": "uint256"
        },
        {
          "internalType": "uint8",
          "name": "_rank",
          "type": "uint8"
        },
        {
          "internalType": "uint16",
          "name": "_startRange",
          "type": "uint16"
        },
        {
          "internalType": "uint16",
          "name": "_endRange",
          "type": "uint16"
        },
        {
          "internalType": "uint16",
          "name": "_weight",
          "type": "uint16"
        }
      ],
      "name": "addCardInfo",
      "outputs": [],
      "stateMutability": "nonpayable",
      "type": "function"
    },
    {
      "inputs": [
        {
          "internalType": "address",
          "name": "_payToken",
          "type": "address"
        },
        {
          "internalType": "uint256",
          "name": "_amount",
          "type": "uint256"
        }
      ],
      "name": "addPayment",
      "outputs": [],
      "stateMutability": "nonpayable",
      "type": "function"
    },
    {
      "inputs": [],
      "name": "burnPool",
      "outputs": [
        {
          "internalType": "address",
          "name": "",
          "type": "address"
        }
      ],
      "stateMutability": "view",
      "type": "function"
    },
    {
      "inputs": [
        {
          "internalType": "uint256",
          "name": "",
          "type": "uint256"
        }
      ],
      "name": "cardIndex",
      "outputs": [
        {
          "internalType": "uint8",
          "name": "types",
          "type": "uint8"
        },
        {
          "internalType": "uint256",
          "name": "skills",
          "type": "uint256"
        },
        {
          "internalType": "uint8",
          "name": "rank",
          "type": "uint8"
        }
      ],
      "stateMutability": "view",
      "type": "function"
    },
    {
      "inputs": [
        {
          "internalType": "uint256",
          "name": "",
          "type": "uint256"
        }
      ],
      "name": "cardsInfo",
      "outputs": [
        {
          "internalType": "uint8",
          "name": "types",
          "type": "uint8"
        },
        {
          "internalType": "uint256",
          "name": "skills",
          "type": "uint256"
        },
        {
          "internalType": "uint8",
          "name": "rank",
          "type": "uint8"
        },
        {
          "internalType": "uint16",
          "name": "startRange",
          "type": "uint16"
        },
        {
          "internalType": "uint16",
          "name": "endRange",
          "type": "uint16"
        },
        {
          "internalType": "uint16",
          "name": "weight",
          "type": "uint16"
        }
      ],
      "stateMutability": "view",
      "type": "function"
    },
    {
      "inputs": [
        {
          "internalType": "uint256",
          "name": "_pid",
          "type": "uint256"
        }
      ],
      "name": "createCard",
      "outputs": [],
      "stateMutability": "nonpayable",
      "type": "function"
    },
    {
      "inputs": [],
      "name": "dailyTime",
      "outputs": [
        {
          "internalType": "uint256",
          "name": "",
          "type": "uint256"
        }
      ],
      "stateMutability": "view",
      "type": "function"
    },
    {
      "inputs": [
        {
          "internalType": "uint256",
          "name": "_cid",
          "type": "uint256"
        },
        {
          "internalType": "uint8",
          "name": "_types",
          "type": "uint8"
        },
        {
          "internalType": "uint256",
          "name": "_skills",
          "type": "uint256"
        },
        {
          "internalType": "uint8",
          "name": "_rank",
          "type": "uint8"
        },
        {
          "internalType": "uint16",
          "name": "_startRange",
          "type": "uint16"
        },
        {
          "internalType": "uint16",
          "name": "_endRange",
          "type": "uint16"
        },
        {
          "internalType": "uint16",
          "name": "_weight",
          "type": "uint16"
        }
      ],
      "name": "editCardInfo",
      "outputs": [],
      "stateMutability": "nonpayable",
      "type": "function"
    },
    {
      "inputs": [
        {
          "internalType": "uint256",
          "name": "_pid",
          "type": "uint256"
        },
        {
          "internalType": "uint256",
          "name": "_amount",
          "type": "uint256"
        }
      ],
      "name": "editPayment",
      "outputs": [],
      "stateMutability": "nonpayable",
      "type": "function"
    },
    {
      "inputs": [
        {
          "internalType": "uint256",
          "name": "tokenid",
          "type": "uint256"
        }
      ],
      "name": "getNullCard",
      "outputs": [
        {
          "internalType": "uint8",
          "name": "",
          "type": "uint8"
        },
        {
          "internalType": "uint256",
          "name": "",
          "type": "uint256"
        }
      ],
      "stateMutability": "view",
      "type": "function"
    },
    {
      "inputs": [
        {
          "internalType": "address",
          "name": "_account",
          "type": "address"
        },
        {
          "internalType": "uint256",
          "name": "_pid",
          "type": "uint256"
        }
      ],
      "name": "getPayment",
      "outputs": [
        {
          "internalType": "uint256",
          "name": "",
          "type": "uint256"
        }
      ],
      "stateMutability": "view",
      "type": "function"
    },
    {
      "inputs": [
        {
          "internalType": "address[]",
          "name": "_investorss",
          "type": "address[]"
        },
        {
          "internalType": "uint256[]",
          "name": "_tokenIds",
          "type": "uint256[]"
        },
        {
          "internalType": "uint8",
          "name": "_types",
          "type": "uint8"
        },
        {
          "internalType": "uint256[]",
          "name": "_skills",
          "type": "uint256[]"
        },
        {
          "internalType": "uint8",
          "name": "_rank",
          "type": "uint8"
        }
      ],
      "name": "nCardGeneration",
      "outputs": [
        {
          "internalType": "bool",
          "name": "",
          "type": "bool"
        }
      ],
      "stateMutability": "nonpayable",
      "type": "function"
    },
    {
      "inputs": [],
      "name": "nullCardToken",
      "outputs": [
        {
          "internalType": "contract NFTsCardToken",
          "name": "",
          "type": "address"
        }
      ],
      "stateMutability": "view",
      "type": "function"
    },
    {
      "inputs": [
        {
          "internalType": "uint256",
          "name": "",
          "type": "uint256"
        }
      ],
      "name": "paymentsInfo",
      "outputs": [
        {
          "internalType": "address",
          "name": "payToken",
          "type": "address"
        },
        {
          "internalType": "uint256",
          "name": "amount",
          "type": "uint256"
        }
      ],
      "stateMutability": "view",
      "type": "function"
    },
    {
      "inputs": [
        {
          "internalType": "address",
          "name": "governance",
          "type": "address"
        }
      ],
      "name": "setGovernance",
      "outputs": [],
      "stateMutability": "nonpayable",
      "type": "function"
    },
    {
      "inputs": [
        {
          "internalType": "uint256",
          "name": "_tokenId",
          "type": "uint256"
        },
        {
          "internalType": "uint8",
          "name": "_types",
          "type": "uint8"
        },
        {
          "internalType": "uint256",
          "name": "_skills",
          "type": "uint256"
        },
        {
          "internalType": "uint8",
          "name": "_rank",
          "type": "uint8"
        }
      ],
      "name": "setNcardIndex",
      "outputs": [],
      "stateMutability": "nonpayable",
      "type": "function"
    },
    {
      "inputs": [],
      "name": "totalWeight",
      "outputs": [
        {
          "internalType": "uint16",
          "name": "",
          "type": "uint16"
        }
      ],
      "stateMutability": "view",
      "type": "function"
    },
    {
      "inputs": [],
      "name": "updateTime",
      "outputs": [],
      "stateMutability": "nonpayable",
      "type": "function"
    },
    {
      "inputs": [
        {
          "internalType": "uint256",
          "name": "",
          "type": "uint256"
        }
      ],
      "name": "usersLog",
      "outputs": [
        {
          "internalType": "address",
          "name": "",
          "type": "address"
        }
      ],
      "stateMutability": "view",
      "type": "function"
    }
  ]
}