{
  "abi": [
    {
      "inputs": [],
      "stateMutability": "nonpayable",
      "type": "constructor"
    },
    {
      "anonymous": false,
      "inputs": [
        {
          "indexed": true,
          "internalType": "address",
          "name": "previousOwner",
          "type": "address"
        },
        {
          "indexed": true,
          "internalType": "address",
          "name": "newOwner",
          "type": "address"
        }
      ],
      "name": "GovernanceTransferred",
      "type": "event"
    },
    {
      "inputs": [
        {
          "internalType": "uint256",
          "name": "",
          "type": "uint256"
        }
      ],
      "name": "_addressUser",
      "outputs": [
        {
          "internalType": "address",
          "name": "",
          "type": "address"
        }
      ],
      "stateMutability": "view",
      "type": "function"
    },
    {
      "inputs": [
        {
          "internalType": "address",
          "name": "",
          "type": "address"
        }
      ],
      "name": "_addressXId",
      "outputs": [
        {
          "internalType": "uint32",
          "name": "",
          "type": "uint32"
        }
      ],
      "stateMutability": "view",
      "type": "function"
    },
    {
      "inputs": [],
      "name": "_alpha",
      "outputs": [
        {
          "internalType": "uint8",
          "name": "",
          "type": "uint8"
        }
      ],
      "stateMutability": "view",
      "type": "function"
    },
    {
      "inputs": [],
      "name": "_anchor",
      "outputs": [
        {
          "internalType": "uint32",
          "name": "",
          "type": "uint32"
        }
      ],
      "stateMutability": "view",
      "type": "function"
    },
    {
      "inputs": [],
      "name": "_base",
      "outputs": [
        {
          "internalType": "uint32",
          "name": "",
          "type": "uint32"
        }
      ],
      "stateMutability": "view",
      "type": "function"
    },
    {
      "inputs": [],
      "name": "_beta",
      "outputs": [
        {
          "internalType": "uint8",
          "name": "",
          "type": "uint8"
        }
      ],
      "stateMutability": "view",
      "type": "function"
    },
    {
      "inputs": [],
      "name": "_betaMax",
      "outputs": [
        {
          "internalType": "uint32",
          "name": "",
          "type": "uint32"
        }
      ],
      "stateMutability": "view",
      "type": "function"
    },
    {
      "inputs": [],
      "name": "_contractCaller",
      "outputs": [
        {
          "internalType": "address",
          "name": "",
          "type": "address"
        }
      ],
      "stateMutability": "view",
      "type": "function"
    },
    {
      "inputs": [
        {
          "internalType": "uint8",
          "name": "",
          "type": "uint8"
        }
      ],
      "name": "_countRanking",
      "outputs": [
        {
          "internalType": "uint32",
          "name": "length",
          "type": "uint32"
        },
        {
          "internalType": "uint32",
          "name": "curCount",
          "type": "uint32"
        }
      ],
      "stateMutability": "view",
      "type": "function"
    },
    {
      "inputs": [],
      "name": "_gamma",
      "outputs": [
        {
          "internalType": "uint8",
          "name": "",
          "type": "uint8"
        }
      ],
      "stateMutability": "view",
      "type": "function"
    },
    {
      "inputs": [],
      "name": "_gammaMax",
      "outputs": [
        {
          "internalType": "uint32",
          "name": "",
          "type": "uint32"
        }
      ],
      "stateMutability": "view",
      "type": "function"
    },
    {
      "inputs": [],
      "name": "_governance",
      "outputs": [
        {
          "internalType": "address",
          "name": "",
          "type": "address"
        }
      ],
      "stateMutability": "view",
      "type": "function"
    },
    {
      "inputs": [],
      "name": "_grouthCondition",
      "outputs": [
        {
          "internalType": "uint32",
          "name": "",
          "type": "uint32"
        }
      ],
      "stateMutability": "view",
      "type": "function"
    },
    {
      "inputs": [],
      "name": "_grouthStep",
      "outputs": [
        {
          "internalType": "uint32",
          "name": "",
          "type": "uint32"
        }
      ],
      "stateMutability": "view",
      "type": "function"
    },
    {
      "inputs": [],
      "name": "_initMaxValue",
      "outputs": [
        {
          "internalType": "uint256",
          "name": "",
          "type": "uint256"
        }
      ],
      "stateMutability": "view",
      "type": "function"
    },
    {
      "inputs": [
        {
          "internalType": "uint8",
          "name": "",
          "type": "uint8"
        }
      ],
      "name": "_nullRanking",
      "outputs": [
        {
          "internalType": "uint256",
          "name": "min",
          "type": "uint256"
        },
        {
          "internalType": "uint256",
          "name": "max",
          "type": "uint256"
        }
      ],
      "stateMutability": "view",
      "type": "function"
    },
    {
      "inputs": [],
      "name": "_playerId",
      "outputs": [
        {
          "internalType": "uint32",
          "name": "",
          "type": "uint32"
        }
      ],
      "stateMutability": "view",
      "type": "function"
    },
    {
      "inputs": [
        {
          "internalType": "uint8",
          "name": "",
          "type": "uint8"
        },
        {
          "internalType": "uint32",
          "name": "",
          "type": "uint32"
        }
      ],
      "name": "_playerIds",
      "outputs": [
        {
          "internalType": "uint32",
          "name": "",
          "type": "uint32"
        }
      ],
      "stateMutability": "view",
      "type": "function"
    },
    {
      "inputs": [
        {
          "internalType": "uint32",
          "name": "",
          "type": "uint32"
        }
      ],
      "name": "_playerMap",
      "outputs": [
        {
          "internalType": "uint256",
          "name": "amount",
          "type": "uint256"
        },
        {
          "internalType": "uint8",
          "name": "rankingIndex",
          "type": "uint8"
        },
        {
          "internalType": "uint32",
          "name": "playerId",
          "type": "uint32"
        },
        {
          "internalType": "uint32",
          "name": "class",
          "type": "uint32"
        }
      ],
      "stateMutability": "view",
      "type": "function"
    },
    {
      "inputs": [
        {
          "internalType": "uint256",
          "name": "",
          "type": "uint256"
        }
      ],
      "name": "_ruler",
      "outputs": [
        {
          "internalType": "uint8",
          "name": "",
          "type": "uint8"
        }
      ],
      "stateMutability": "view",
      "type": "function"
    },
    {
      "inputs": [
        {
          "internalType": "address",
          "name": "sender",
          "type": "address"
        }
      ],
      "name": "getRule",
      "outputs": [
        {
          "internalType": "uint8",
          "name": "",
          "type": "uint8"
        }
      ],
      "stateMutability": "view",
      "type": "function"
    },
    {
      "inputs": [
        {
          "internalType": "address",
          "name": "sender",
          "type": "address"
        },
        {
          "internalType": "uint256",
          "name": "amount",
          "type": "uint256"
        }
      ],
      "name": "lpIn",
      "outputs": [],
      "stateMutability": "nonpayable",
      "type": "function"
    },
    {
      "inputs": [
        {
          "internalType": "address",
          "name": "sender",
          "type": "address"
        },
        {
          "internalType": "uint256",
          "name": "amount",
          "type": "uint256"
        }
      ],
      "name": "lpOut",
      "outputs": [],
      "stateMutability": "nonpayable",
      "type": "function"
    },
    {
      "inputs": [
        {
          "internalType": "address",
          "name": "caller",
          "type": "address"
        }
      ],
      "name": "setCaller",
      "outputs": [],
      "stateMutability": "nonpayable",
      "type": "function"
    },
    {
      "inputs": [
        {
          "internalType": "address",
          "name": "governance",
          "type": "address"
        }
      ],
      "name": "setGovernance",
      "outputs": [],
      "stateMutability": "nonpayable",
      "type": "function"
    }
  ],
  "evm": {
    "bytecode": {
      "linkReferences": {},
      "object": "60e060405260506080908152600d60a052600760c0819052620000249160036200025c565b506008805463ffffffff60581b19610100600260ff199093169290921761ff0019169190911762ff0000191662030000176301000000600160581b0319166764000000000000001790811663ffffffff670100000000000000909204919091166b010000000000000000000000021763ffffffff60781b19166019607a1b1763ffffffff60981b1916600560991b179055600980546001600160a01b0319169055348015620000d257600080fd5b50600080546001600160a01b031916331790556008805466ffffffff00000019169055620000ff6200011a565b6200011469010f0cf064dd59200000620001bc565b62000311565b6008805460ff62010000918290048116600090815260036020526040808220805463ffffffff199081166007179091558554610100908190048516845282842080548316600d179055865485168452828420805490921660501790915585549490940483168252808220805463ffffffff60201b1990811690915585549490940483168252808220805485169055935490911681529190912080549091169055565b6000808060015b60038160ff16116200025557600a60076001830360ff1660038110620001e557fe5b602081049091015460ff601f9092166101000a9004168602816200020557fe5b049150600082116200021657600191505b818401925060038160ff1614156200022c578492505b60ff811660009081526002602052604090206001948501815584018390559192839201620001c3565b5050505050565b600183019183908215620002e45791602002820160005b83821115620002b357835183826101000a81548160ff021916908360ff160217905550926020019260010160208160000104928301926001030262000273565b8015620002e25782816101000a81549060ff0219169055600101602081600001049283019260010302620002b3565b505b50620002f2929150620002f6565b5090565b5b80821115620002f257805460ff19168155600101620002f7565b61134180620003216000396000f3fe608060405234801561001057600080fd5b50600436106101725760003560e01c80638260e9b8116100de578063bd69ddcf11610097578063d3bce2e211610071578063d3bce2e2146103b6578063d850b3f2146103be578063d961455114610407578063da562a981461043357610172565b8063bd69ddcf14610388578063beb92f5514610390578063c26b8af71461031257610172565b80638260e9b81461031a5780639abb285d146103225780639c63fd351461032a578063a845d17c14610332578063ab033ea91461033a578063b37e47e21461036257610172565b806323060b151161013057806323060b151461025657806330a499b0146102825780633ce68dd5146102d357806355513e23146102db57806355761452146102f857806374a650f71461031257610172565b80628e0b6514610177578063032aefb9146101b05780630a3f7338146101ef5780630f04ba421461020d5780631c2f3e3d146102155780631f8372161461021d575b600080fd5b6101946004803603602081101561018d57600080fd5b503561045f565b604080516001600160a01b039092168252519081900360200190f35b6101d6600480360360208110156101c657600080fd5b50356001600160a01b0316610486565b6040805163ffffffff9092168252519081900360200190f35b6101f761049e565b6040805160ff9092168252519081900360200190f35b6101f76104ac565b6101946104b5565b61023d6004803603602081101561023357600080fd5b503560ff166104c4565b6040805192835260208301919091528051918290030190f35b6101d66004803603604081101561026c57600080fd5b50803560ff16906020013563ffffffff166104dd565b6102a56004803603602081101561029857600080fd5b503563ffffffff16610500565b6040805194855260ff909316602085015263ffffffff91821684840152166060830152519081900360800190f35b6101d6610533565b6101f7600480360360208110156102f157600080fd5b503561054a565b610300610571565b60408051918252519081900360200190f35b6101d661057f565b6101d6610584565b610194610597565b6101f76105a6565b6101d66105b5565b6103606004803603602081101561035057600080fd5b50356001600160a01b03166105c8565b005b6101f76004803603602081101561037857600080fd5b50356001600160a01b03166106ce565b6101d661072f565b610360600480360360208110156103a657600080fd5b50356001600160a01b0316610742565b6101d66107b4565b6103de600480360360208110156103d457600080fd5b503560ff166107c7565b604051808363ffffffff1681526020018263ffffffff1681526020019250505060405180910390f35b6103606004803603604081101561041d57600080fd5b506001600160a01b0381351690602001356107ea565b6103606004803603604081101561044957600080fd5b506001600160a01b0381351690602001356108b9565b6006818154811061046c57fe5b6000918252602090912001546001600160a01b0316905081565b60016020526000908152604090205463ffffffff1681565b600854610100900460ff1681565b60085460ff1681565b6000546001600160a01b031681565b6002602052600090815260409020805460019091015482565b600460209081526000928352604080842090915290825290205463ffffffff1681565b6005602052600090815260409020805460019091015460ff81169063ffffffff6101008204811691600160281b90041684565b600854670100000000000000900463ffffffff1681565b6007816003811061055757fe5b60209182820401919006915054906101000a900460ff1681565b69010f0cf064dd5920000081565b603281565b6008546301000000900463ffffffff1681565b6009546001600160a01b031681565b60085462010000900460ff1681565b600854600160981b900463ffffffff1681565b6000546001600160a01b03163314610618576040805162461bcd60e51b815260206004820152600e60248201526d6e6f7420676f7665726e616e636560901b604482015290519081900360640190fd5b6001600160a01b038116610673576040805162461bcd60e51b815260206004820152601f60248201527f6e657720676f7665726e616e636520746865207a65726f206164647265737300604482015290519081900360640190fd5b600080546040516001600160a01b03808516939216917f5f56bee8cffbe9a78652a74a60705edede02af10b0bbb888ca44b79a0d42ce8091a3600080546001600160a01b0319166001600160a01b0392909216919091179055565b6001600160a01b03811660009081526001602052604081205463ffffffff1680156107245763ffffffff811660009081526005602052604090206001015460ff1680156107225760001901915061072a9050565b505b60009150505b919050565b600854600160581b900463ffffffff1681565b6000546001600160a01b03163314610792576040805162461bcd60e51b815260206004820152600e60248201526d6e6f7420676f7665726e616e636560901b604482015290519081900360640190fd5b600980546001600160a01b0319166001600160a01b0392909216919091179055565b600854600160781b900463ffffffff1681565b60036020526000908152604090205463ffffffff80821691600160201b90041682565b6009546001600160a01b03163314610841576040805162461bcd60e51b8152602060048201526015602482015274696e76616c696420706f6f6c20616464726573732160581b604482015290519081900360640190fd5b6001600160a01b03821660009081526001602052604090205463ffffffff1680156108a45763ffffffff808216600090815260056020526040902054610889918490610a3b16565b63ffffffff82166000908152600560205260409020556108aa565b506108b5565b6108b381610a84565b505b5050565b6009546001600160a01b03163314610910576040805162461bcd60e51b8152602060048201526015602482015274696e76616c696420706f6f6c20616464726573732160581b604482015290519081900360640190fd5b6001600160a01b03821660009081526001602052604090205463ffffffff1680156109585763ffffffff808216600090815260056020526040902054610889918490610b7b16565b506008805466ffffffff00000019811663010000009182900463ffffffff908116600190810182168402929092178085556001600160a01b038716600081815260208581526040808320805495899004871663ffffffff19909616959095179094559654959095049092168085526005909552832080830180549187905564ffffffff001990911661010086021768ffffffff00000000ff191690556006805492830181559092527ff652222313e28459528d920b65115c16c04f3efc82aaedc97be59f3f377c0d3f0180546001600160a01b03191690911790556108aa610bd5565b6000610a7d83836040518060400160405280601e81526020017f536166654d6174683a207375627472616374696f6e206f766572666c6f770000815250610d6c565b9392505050565b63ffffffff81166000908152600560205260408120549060015b60085460ff90811690821611610adb5760ff8116600090815260026020526040902060010154831015610ad357809150610adb565b600101610a9e565b5060ff8116610b0657506008805460ff90811660009081526002602052604090206001018390559054165b63ffffffff831660009081526005602052604090206001015460ff82811691161415610b33575050610b78565b60085460ff82811691161415610b5157610b4c83610e03565b6108b3565b60085460ff828116610100909204161415610b6f57610b4c83610e46565b6108b383610eb6565b50565b600082820183811015610a7d576040805162461bcd60e51b815260206004820152601b60248201527f536166654d6174683a206164646974696f6e206f766572666c6f770000000000604482015290519081900360640190fd5b600854600160781b810463ffffffff908116600160581b8304821601811663010000009092041610610d6a5760085460ff8116600090815260036020526040902054603263ffffffff918216600160981b909304821692909201161115610c5d5760085460ff166000908152600360205260409020805463ffffffff19166032179055610c9b565b60085460ff81166000908152600360205260409020805463ffffffff198116600160981b90930463ffffffff90811691811691909101169190911790555b60085460ff610100820416600090815260036020526040902054603263ffffffff918216600160981b909304821692909201161115610d015760085460ff610100909104166000908152600360205260409020805463ffffffff19166032179055610d43565b600854610100810460ff166000908152600360205260409020805463ffffffff198116600160981b90930463ffffffff90811691811691909101169190911790555b60088054600160581b63ffffffff63010000008304160263ffffffff60581b199091161790555b565b60008184841115610dfb5760405162461bcd60e51b81526004018080602001828103825283818151815260200191508051906020019080838360005b83811015610dc0578181015183820152602001610da8565b50505050905090810190601f168015610ded5780820380516001836020036101000a031916815260200191505b509250505060405180910390fd5b505050900390565b60085460ff16610e1281610f44565b15610e2657610e218282610f88565b6108b5565b6000610e318261118f565b9050610e3c81610e46565b6108b38383610f88565b600854610100900460ff16610e5a81610f44565b15610e6e57610e698282610f88565b610e90565b6000610e798261118f565b9050610e8481610eb6565b610e8e8383610f88565b505b600181810160ff9081166000908152600260205260408082205494909216815220015550565b60085462010000900460ff16610ecc8282610f88565b60ff60018083018216600090815260026020908152604080832054948616835280832090930193909355600390925290205463ffffffff808216600160201b9092041611156108b55760ff1660009081526003602052604090208054600160201b810463ffffffff1663ffffffff1990911617905550565b60ff811660009081526003602052604081205463ffffffff600160201b820481169181169190910390811615610f7e57600191505061072a565b600091505061072a565b63ffffffff80831660008181526005602090815260408083206001908101805460ff898116808852600387528588208054600160201b908190048c16600160281b81810268ffffffff00000000001960ff19891687171617909755928a5281548181048d169097018c160267ffffffff0000000019909616959095179094556004865284872084885290955292909420805463ffffffff1916909517909455908116939190041690821580159061104557508260ff168460ff1614155b8015611075575060ff8316600090815260046020908152604080832063ffffffff80871685529252909120541615155b156111885760ff83166000908152600360209081526040808320546004835281842060001963ffffffff600160201b90930483160180831686529352922054909190811690871681146111285763ffffffff8181166000818152600560209081526040808320600101805460ff191660ff8c1690811768ffffffff00000000001916600160281b978c169788021790915583526004825280832094835293905291909120805463ffffffff191690911790555b5060ff8416600081815260046020908152604080832063ffffffff95861684528252808320805463ffffffff191690559282526003905220805467ffffffff00000000198116600160201b91829004841660001901909316029190911790555b5050505050565b600080600061119d8461123a565b60ff959095166000818152600260209081526040808320989098556004815287822063ffffffff9485168084528183528984208054958552600384528a852054600160201b90048716600019018716855291835289842054861663ffffffff19861681179092559083526005909152969020600101805468ffffffff00000000001916600160281b90970296909617909555939093169392505050565b60ff811660009081526002602052604081206001015481908082805b60ff878116600090815260036020526040902054600160201b900463ffffffff1690821610156113005760ff80881660009081526004602090815260408083209385168352929052205463ffffffff16806112b157506112f8565b63ffffffff8116600090815260056020526040902054858110156112e957848610156112db578594505b8095508260ff1693506112f5565b848110156112f5578094505b50505b600101611256565b50935091505091509156fea2646970667358221220b6a1d0274c5bce54832fc9f78fcb6db6dd4738f600c834465772ff2266d0f7ce64736f6c634300060c0033",
      "opcodes": "PUSH1 0xE0 PUSH1 0x40 MSTORE PUSH1 0x50 PUSH1 0x80 SWAP1 DUP2 MSTORE PUSH1 0xD PUSH1 0xA0 MSTORE PUSH1 0x7 PUSH1 0xC0 DUP2 SWAP1 MSTORE PUSH3 0x24 SWAP2 PUSH1 0x3 PUSH3 0x25C JUMP JUMPDEST POP PUSH1 0x8 DUP1 SLOAD PUSH4 0xFFFFFFFF PUSH1 0x58 SHL NOT PUSH2 0x100 PUSH1 0x2 PUSH1 0xFF NOT SWAP1 SWAP4 AND SWAP3 SWAP1 SWAP3 OR PUSH2 0xFF00 NOT AND SWAP2 SWAP1 SWAP2 OR PUSH3 0xFF0000 NOT AND PUSH3 0x30000 OR PUSH4 0x1000000 PUSH1 0x1 PUSH1 0x58 SHL SUB NOT AND PUSH8 0x6400000000000000 OR SWAP1 DUP2 AND PUSH4 0xFFFFFFFF PUSH8 0x100000000000000 SWAP1 SWAP3 DIV SWAP2 SWAP1 SWAP2 AND PUSH12 0x10000000000000000000000 MUL OR PUSH4 0xFFFFFFFF PUSH1 0x78 SHL NOT AND PUSH1 0x19 PUSH1 0x7A SHL OR PUSH4 0xFFFFFFFF PUSH1 0x98 SHL NOT AND PUSH1 0x5 PUSH1 0x99 SHL OR SWAP1 SSTORE PUSH1 0x9 DUP1 SLOAD PUSH1 0x1 PUSH1 0x1 PUSH1 0xA0 SHL SUB NOT AND SWAP1 SSTORE CALLVALUE DUP1 ISZERO PUSH3 0xD2 JUMPI PUSH1 0x0 DUP1 REVERT JUMPDEST POP PUSH1 0x0 DUP1 SLOAD PUSH1 0x1 PUSH1 0x1 PUSH1 0xA0 SHL SUB NOT AND CALLER OR SWAP1 SSTORE PUSH1 0x8 DUP1 SLOAD PUSH7 0xFFFFFFFF000000 NOT AND SWAP1 SSTORE PUSH3 0xFF PUSH3 0x11A JUMP JUMPDEST PUSH3 0x114 PUSH10 0x10F0CF064DD59200000 PUSH3 0x1BC JUMP JUMPDEST PUSH3 0x311 JUMP JUMPDEST PUSH1 0x8 DUP1 SLOAD PUSH1 0xFF PUSH3 0x10000 SWAP2 DUP3 SWAP1 DIV DUP2 AND PUSH1 0x0 SWAP1 DUP2 MSTORE PUSH1 0x3 PUSH1 0x20 MSTORE PUSH1 0x40 DUP1 DUP3 KECCAK256 DUP1 SLOAD PUSH4 0xFFFFFFFF NOT SWAP1 DUP2 AND PUSH1 0x7 OR SWAP1 SWAP2 SSTORE DUP6 SLOAD PUSH2 0x100 SWAP1 DUP2 SWAP1 DIV DUP6 AND DUP5 MSTORE DUP3 DUP5 KECCAK256 DUP1 SLOAD DUP4 AND PUSH1 0xD OR SWAP1 SSTORE DUP7 SLOAD DUP6 AND DUP5 MSTORE DUP3 DUP5 KECCAK256 DUP1 SLOAD SWAP1 SWAP3 AND PUSH1 0x50 OR SWAP1 SWAP2 SSTORE DUP6 SLOAD SWAP5 SWAP1 SWAP5 DIV DUP4 AND DUP3 MSTORE DUP1 DUP3 KECCAK256 DUP1 SLOAD PUSH4 0xFFFFFFFF PUSH1 0x20 SHL NOT SWAP1 DUP2 AND SWAP1 SWAP2 SSTORE DUP6 SLOAD SWAP5 SWAP1 SWAP5 DIV DUP4 AND DUP3 MSTORE DUP1 DUP3 KECCAK256 DUP1 SLOAD DUP6 AND SWAP1 SSTORE SWAP4 SLOAD SWAP1 SWAP2 AND DUP2 MSTORE SWAP2 SWAP1 SWAP2 KECCAK256 DUP1 SLOAD SWAP1 SWAP2 AND SWAP1 SSTORE JUMP JUMPDEST PUSH1 0x0 DUP1 DUP1 PUSH1 0x1 JUMPDEST PUSH1 0x3 DUP2 PUSH1 0xFF AND GT PUSH3 0x255 JUMPI PUSH1 0xA PUSH1 0x7 PUSH1 0x1 DUP4 SUB PUSH1 0xFF AND PUSH1 0x3 DUP2 LT PUSH3 0x1E5 JUMPI INVALID JUMPDEST PUSH1 0x20 DUP2 DIV SWAP1 SWAP2 ADD SLOAD PUSH1 0xFF PUSH1 0x1F SWAP1 SWAP3 AND PUSH2 0x100 EXP SWAP1 DIV AND DUP7 MUL DUP2 PUSH3 0x205 JUMPI INVALID JUMPDEST DIV SWAP2 POP PUSH1 0x0 DUP3 GT PUSH3 0x216 JUMPI PUSH1 0x1 SWAP2 POP JUMPDEST DUP2 DUP5 ADD SWAP3 POP PUSH1 0x3 DUP2 PUSH1 0xFF AND EQ ISZERO PUSH3 0x22C JUMPI DUP5 SWAP3 POP JUMPDEST PUSH1 0xFF DUP2 AND PUSH1 0x0 SWAP1 DUP2 MSTORE PUSH1 0x2 PUSH1 0x20 MSTORE PUSH1 0x40 SWAP1 KECCAK256 PUSH1 0x1 SWAP5 DUP6 ADD DUP2 SSTORE DUP5 ADD DUP4 SWAP1 SSTORE SWAP2 SWAP3 DUP4 SWAP3 ADD PUSH3 0x1C3 JUMP JUMPDEST POP POP POP POP POP JUMP JUMPDEST PUSH1 0x1 DUP4 ADD SWAP2 DUP4 SWAP1 DUP3 ISZERO PUSH3 0x2E4 JUMPI SWAP2 PUSH1 0x20 MUL DUP3 ADD PUSH1 0x0 JUMPDEST DUP4 DUP3 GT ISZERO PUSH3 0x2B3 JUMPI DUP4 MLOAD DUP4 DUP3 PUSH2 0x100 EXP DUP2 SLOAD DUP2 PUSH1 0xFF MUL NOT AND SWAP1 DUP4 PUSH1 0xFF AND MUL OR SWAP1 SSTORE POP SWAP3 PUSH1 0x20 ADD SWAP3 PUSH1 0x1 ADD PUSH1 0x20 DUP2 PUSH1 0x0 ADD DIV SWAP3 DUP4 ADD SWAP3 PUSH1 0x1 SUB MUL PUSH3 0x273 JUMP JUMPDEST DUP1 ISZERO PUSH3 0x2E2 JUMPI DUP3 DUP2 PUSH2 0x100 EXP DUP2 SLOAD SWAP1 PUSH1 0xFF MUL NOT AND SWAP1 SSTORE PUSH1 0x1 ADD PUSH1 0x20 DUP2 PUSH1 0x0 ADD DIV SWAP3 DUP4 ADD SWAP3 PUSH1 0x1 SUB MUL PUSH3 0x2B3 JUMP JUMPDEST POP JUMPDEST POP PUSH3 0x2F2 SWAP3 SWAP2 POP PUSH3 0x2F6 JUMP JUMPDEST POP SWAP1 JUMP JUMPDEST JUMPDEST DUP1 DUP3 GT ISZERO PUSH3 0x2F2 JUMPI DUP1 SLOAD PUSH1 0xFF NOT AND DUP2 SSTORE PUSH1 0x1 ADD PUSH3 0x2F7 JUMP JUMPDEST PUSH2 0x1341 DUP1 PUSH3 0x321 PUSH1 0x0 CODECOPY PUSH1 0x0 RETURN INVALID PUSH1 0x80 PUSH1 0x40 MSTORE CALLVALUE DUP1 ISZERO PUSH2 0x10 JUMPI PUSH1 0x0 DUP1 REVERT JUMPDEST POP PUSH1 0x4 CALLDATASIZE LT PUSH2 0x172 JUMPI PUSH1 0x0 CALLDATALOAD PUSH1 0xE0 SHR DUP1 PUSH4 0x8260E9B8 GT PUSH2 0xDE JUMPI DUP1 PUSH4 0xBD69DDCF GT PUSH2 0x97 JUMPI DUP1 PUSH4 0xD3BCE2E2 GT PUSH2 0x71 JUMPI DUP1 PUSH4 0xD3BCE2E2 EQ PUSH2 0x3B6 JUMPI DUP1 PUSH4 0xD850B3F2 EQ PUSH2 0x3BE JUMPI DUP1 PUSH4 0xD9614551 EQ PUSH2 0x407 JUMPI DUP1 PUSH4 0xDA562A98 EQ PUSH2 0x433 JUMPI PUSH2 0x172 JUMP JUMPDEST DUP1 PUSH4 0xBD69DDCF EQ PUSH2 0x388 JUMPI DUP1 PUSH4 0xBEB92F55 EQ PUSH2 0x390 JUMPI DUP1 PUSH4 0xC26B8AF7 EQ PUSH2 0x312 JUMPI PUSH2 0x172 JUMP JUMPDEST DUP1 PUSH4 0x8260E9B8 EQ PUSH2 0x31A JUMPI DUP1 PUSH4 0x9ABB285D EQ PUSH2 0x322 JUMPI DUP1 PUSH4 0x9C63FD35 EQ PUSH2 0x32A JUMPI DUP1 PUSH4 0xA845D17C EQ PUSH2 0x332 JUMPI DUP1 PUSH4 0xAB033EA9 EQ PUSH2 0x33A JUMPI DUP1 PUSH4 0xB37E47E2 EQ PUSH2 0x362 JUMPI PUSH2 0x172 JUMP JUMPDEST DUP1 PUSH4 0x23060B15 GT PUSH2 0x130 JUMPI DUP1 PUSH4 0x23060B15 EQ PUSH2 0x256 JUMPI DUP1 PUSH4 0x30A499B0 EQ PUSH2 0x282 JUMPI DUP1 PUSH4 0x3CE68DD5 EQ PUSH2 0x2D3 JUMPI DUP1 PUSH4 0x55513E23 EQ PUSH2 0x2DB JUMPI DUP1 PUSH4 0x55761452 EQ PUSH2 0x2F8 JUMPI DUP1 PUSH4 0x74A650F7 EQ PUSH2 0x312 JUMPI PUSH2 0x172 JUMP JUMPDEST DUP1 PUSH3 0x8E0B65 EQ PUSH2 0x177 JUMPI DUP1 PUSH4 0x32AEFB9 EQ PUSH2 0x1B0 JUMPI DUP1 PUSH4 0xA3F7338 EQ PUSH2 0x1EF JUMPI DUP1 PUSH4 0xF04BA42 EQ PUSH2 0x20D JUMPI DUP1 PUSH4 0x1C2F3E3D EQ PUSH2 0x215 JUMPI DUP1 PUSH4 0x1F837216 EQ PUSH2 0x21D JUMPI JUMPDEST PUSH1 0x0 DUP1 REVERT JUMPDEST PUSH2 0x194 PUSH1 0x4 DUP1 CALLDATASIZE SUB PUSH1 0x20 DUP2 LT ISZERO PUSH2 0x18D JUMPI PUSH1 0x0 DUP1 REVERT JUMPDEST POP CALLDATALOAD PUSH2 0x45F JUMP JUMPDEST PUSH1 0x40 DUP1 MLOAD PUSH1 0x1 PUSH1 0x1 PUSH1 0xA0 SHL SUB SWAP1 SWAP3 AND DUP3 MSTORE MLOAD SWAP1 DUP2 SWAP1 SUB PUSH1 0x20 ADD SWAP1 RETURN JUMPDEST PUSH2 0x1D6 PUSH1 0x4 DUP1 CALLDATASIZE SUB PUSH1 0x20 DUP2 LT ISZERO PUSH2 0x1C6 JUMPI PUSH1 0x0 DUP1 REVERT JUMPDEST POP CALLDATALOAD PUSH1 0x1 PUSH1 0x1 PUSH1 0xA0 SHL SUB AND PUSH2 0x486 JUMP JUMPDEST PUSH1 0x40 DUP1 MLOAD PUSH4 0xFFFFFFFF SWAP1 SWAP3 AND DUP3 MSTORE MLOAD SWAP1 DUP2 SWAP1 SUB PUSH1 0x20 ADD SWAP1 RETURN JUMPDEST PUSH2 0x1F7 PUSH2 0x49E JUMP JUMPDEST PUSH1 0x40 DUP1 MLOAD PUSH1 0xFF SWAP1 SWAP3 AND DUP3 MSTORE MLOAD SWAP1 DUP2 SWAP1 SUB PUSH1 0x20 ADD SWAP1 RETURN JUMPDEST PUSH2 0x1F7 PUSH2 0x4AC JUMP JUMPDEST PUSH2 0x194 PUSH2 0x4B5 JUMP JUMPDEST PUSH2 0x23D PUSH1 0x4 DUP1 CALLDATASIZE SUB PUSH1 0x20 DUP2 LT ISZERO PUSH2 0x233 JUMPI PUSH1 0x0 DUP1 REVERT JUMPDEST POP CALLDATALOAD PUSH1 0xFF AND PUSH2 0x4C4 JUMP JUMPDEST PUSH1 0x40 DUP1 MLOAD SWAP3 DUP4 MSTORE PUSH1 0x20 DUP4 ADD SWAP2 SWAP1 SWAP2 MSTORE DUP1 MLOAD SWAP2 DUP3 SWAP1 SUB ADD SWAP1 RETURN JUMPDEST PUSH2 0x1D6 PUSH1 0x4 DUP1 CALLDATASIZE SUB PUSH1 0x40 DUP2 LT ISZERO PUSH2 0x26C JUMPI PUSH1 0x0 DUP1 REVERT JUMPDEST POP DUP1 CALLDATALOAD PUSH1 0xFF AND SWAP1 PUSH1 0x20 ADD CALLDATALOAD PUSH4 0xFFFFFFFF AND PUSH2 0x4DD JUMP JUMPDEST PUSH2 0x2A5 PUSH1 0x4 DUP1 CALLDATASIZE SUB PUSH1 0x20 DUP2 LT ISZERO PUSH2 0x298 JUMPI PUSH1 0x0 DUP1 REVERT JUMPDEST POP CALLDATALOAD PUSH4 0xFFFFFFFF AND PUSH2 0x500 JUMP JUMPDEST PUSH1 0x40 DUP1 MLOAD SWAP5 DUP6 MSTORE PUSH1 0xFF SWAP1 SWAP4 AND PUSH1 0x20 DUP6 ADD MSTORE PUSH4 0xFFFFFFFF SWAP2 DUP3 AND DUP5 DUP5 ADD MSTORE AND PUSH1 0x60 DUP4 ADD MSTORE MLOAD SWAP1 DUP2 SWAP1 SUB PUSH1 0x80 ADD SWAP1 RETURN JUMPDEST PUSH2 0x1D6 PUSH2 0x533 JUMP JUMPDEST PUSH2 0x1F7 PUSH1 0x4 DUP1 CALLDATASIZE SUB PUSH1 0x20 DUP2 LT ISZERO PUSH2 0x2F1 JUMPI PUSH1 0x0 DUP1 REVERT JUMPDEST POP CALLDATALOAD PUSH2 0x54A JUMP JUMPDEST PUSH2 0x300 PUSH2 0x571 JUMP JUMPDEST PUSH1 0x40 DUP1 MLOAD SWAP2 DUP3 MSTORE MLOAD SWAP1 DUP2 SWAP1 SUB PUSH1 0x20 ADD SWAP1 RETURN JUMPDEST PUSH2 0x1D6 PUSH2 0x57F JUMP JUMPDEST PUSH2 0x1D6 PUSH2 0x584 JUMP JUMPDEST PUSH2 0x194 PUSH2 0x597 JUMP JUMPDEST PUSH2 0x1F7 PUSH2 0x5A6 JUMP JUMPDEST PUSH2 0x1D6 PUSH2 0x5B5 JUMP JUMPDEST PUSH2 0x360 PUSH1 0x4 DUP1 CALLDATASIZE SUB PUSH1 0x20 DUP2 LT ISZERO PUSH2 0x350 JUMPI PUSH1 0x0 DUP1 REVERT JUMPDEST POP CALLDATALOAD PUSH1 0x1 PUSH1 0x1 PUSH1 0xA0 SHL SUB AND PUSH2 0x5C8 JUMP JUMPDEST STOP JUMPDEST PUSH2 0x1F7 PUSH1 0x4 DUP1 CALLDATASIZE SUB PUSH1 0x20 DUP2 LT ISZERO PUSH2 0x378 JUMPI PUSH1 0x0 DUP1 REVERT JUMPDEST POP CALLDATALOAD PUSH1 0x1 PUSH1 0x1 PUSH1 0xA0 SHL SUB AND PUSH2 0x6CE JUMP JUMPDEST PUSH2 0x1D6 PUSH2 0x72F JUMP JUMPDEST PUSH2 0x360 PUSH1 0x4 DUP1 CALLDATASIZE SUB PUSH1 0x20 DUP2 LT ISZERO PUSH2 0x3A6 JUMPI PUSH1 0x0 DUP1 REVERT JUMPDEST POP CALLDATALOAD PUSH1 0x1 PUSH1 0x1 PUSH1 0xA0 SHL SUB AND PUSH2 0x742 JUMP JUMPDEST PUSH2 0x1D6 PUSH2 0x7B4 JUMP JUMPDEST PUSH2 0x3DE PUSH1 0x4 DUP1 CALLDATASIZE SUB PUSH1 0x20 DUP2 LT ISZERO PUSH2 0x3D4 JUMPI PUSH1 0x0 DUP1 REVERT JUMPDEST POP CALLDATALOAD PUSH1 0xFF AND PUSH2 0x7C7 JUMP JUMPDEST PUSH1 0x40 MLOAD DUP1 DUP4 PUSH4 0xFFFFFFFF AND DUP2 MSTORE PUSH1 0x20 ADD DUP3 PUSH4 0xFFFFFFFF AND DUP2 MSTORE PUSH1 0x20 ADD SWAP3 POP POP POP PUSH1 0x40 MLOAD DUP1 SWAP2 SUB SWAP1 RETURN JUMPDEST PUSH2 0x360 PUSH1 0x4 DUP1 CALLDATASIZE SUB PUSH1 0x40 DUP2 LT ISZERO PUSH2 0x41D JUMPI PUSH1 0x0 DUP1 REVERT JUMPDEST POP PUSH1 0x1 PUSH1 0x1 PUSH1 0xA0 SHL SUB DUP2 CALLDATALOAD AND SWAP1 PUSH1 0x20 ADD CALLDATALOAD PUSH2 0x7EA JUMP JUMPDEST PUSH2 0x360 PUSH1 0x4 DUP1 CALLDATASIZE SUB PUSH1 0x40 DUP2 LT ISZERO PUSH2 0x449 JUMPI PUSH1 0x0 DUP1 REVERT JUMPDEST POP PUSH1 0x1 PUSH1 0x1 PUSH1 0xA0 SHL SUB DUP2 CALLDATALOAD AND SWAP1 PUSH1 0x20 ADD CALLDATALOAD PUSH2 0x8B9 JUMP JUMPDEST PUSH1 0x6 DUP2 DUP2 SLOAD DUP2 LT PUSH2 0x46C JUMPI INVALID JUMPDEST PUSH1 0x0 SWAP2 DUP3 MSTORE PUSH1 0x20 SWAP1 SWAP2 KECCAK256 ADD SLOAD PUSH1 0x1 PUSH1 0x1 PUSH1 0xA0 SHL SUB AND SWAP1 POP DUP2 JUMP JUMPDEST PUSH1 0x1 PUSH1 0x20 MSTORE PUSH1 0x0 SWAP1 DUP2 MSTORE PUSH1 0x40 SWAP1 KECCAK256 SLOAD PUSH4 0xFFFFFFFF AND DUP2 JUMP JUMPDEST PUSH1 0x8 SLOAD PUSH2 0x100 SWAP1 DIV PUSH1 0xFF AND DUP2 JUMP JUMPDEST PUSH1 0x8 SLOAD PUSH1 0xFF AND DUP2 JUMP JUMPDEST PUSH1 0x0 SLOAD PUSH1 0x1 PUSH1 0x1 PUSH1 0xA0 SHL SUB AND DUP2 JUMP JUMPDEST PUSH1 0x2 PUSH1 0x20 MSTORE PUSH1 0x0 SWAP1 DUP2 MSTORE PUSH1 0x40 SWAP1 KECCAK256 DUP1 SLOAD PUSH1 0x1 SWAP1 SWAP2 ADD SLOAD DUP3 JUMP JUMPDEST PUSH1 0x4 PUSH1 0x20 SWAP1 DUP2 MSTORE PUSH1 0x0 SWAP3 DUP4 MSTORE PUSH1 0x40 DUP1 DUP5 KECCAK256 SWAP1 SWAP2 MSTORE SWAP1 DUP3 MSTORE SWAP1 KECCAK256 SLOAD PUSH4 0xFFFFFFFF AND DUP2 JUMP JUMPDEST PUSH1 0x5 PUSH1 0x20 MSTORE PUSH1 0x0 SWAP1 DUP2 MSTORE PUSH1 0x40 SWAP1 KECCAK256 DUP1 SLOAD PUSH1 0x1 SWAP1 SWAP2 ADD SLOAD PUSH1 0xFF DUP2 AND SWAP1 PUSH4 0xFFFFFFFF PUSH2 0x100 DUP3 DIV DUP2 AND SWAP2 PUSH1 0x1 PUSH1 0x28 SHL SWAP1 DIV AND DUP5 JUMP JUMPDEST PUSH1 0x8 SLOAD PUSH8 0x100000000000000 SWAP1 DIV PUSH4 0xFFFFFFFF AND DUP2 JUMP JUMPDEST PUSH1 0x7 DUP2 PUSH1 0x3 DUP2 LT PUSH2 0x557 JUMPI INVALID JUMPDEST PUSH1 0x20 SWAP2 DUP3 DUP3 DIV ADD SWAP2 SWAP1 MOD SWAP2 POP SLOAD SWAP1 PUSH2 0x100 EXP SWAP1 DIV PUSH1 0xFF AND DUP2 JUMP JUMPDEST PUSH10 0x10F0CF064DD59200000 DUP2 JUMP JUMPDEST PUSH1 0x32 DUP2 JUMP JUMPDEST PUSH1 0x8 SLOAD PUSH4 0x1000000 SWAP1 DIV PUSH4 0xFFFFFFFF AND DUP2 JUMP JUMPDEST PUSH1 0x9 SLOAD PUSH1 0x1 PUSH1 0x1 PUSH1 0xA0 SHL SUB AND DUP2 JUMP JUMPDEST PUSH1 0x8 SLOAD PUSH3 0x10000 SWAP1 DIV PUSH1 0xFF AND DUP2 JUMP JUMPDEST PUSH1 0x8 SLOAD PUSH1 0x1 PUSH1 0x98 SHL SWAP1 DIV PUSH4 0xFFFFFFFF AND DUP2 JUMP JUMPDEST PUSH1 0x0 SLOAD PUSH1 0x1 PUSH1 0x1 PUSH1 0xA0 SHL SUB AND CALLER EQ PUSH2 0x618 JUMPI PUSH1 0x40 DUP1 MLOAD PUSH3 0x461BCD PUSH1 0xE5 SHL DUP2 MSTORE PUSH1 0x20 PUSH1 0x4 DUP3 ADD MSTORE PUSH1 0xE PUSH1 0x24 DUP3 ADD MSTORE PUSH14 0x6E6F7420676F7665726E616E6365 PUSH1 0x90 SHL PUSH1 0x44 DUP3 ADD MSTORE SWAP1 MLOAD SWAP1 DUP2 SWAP1 SUB PUSH1 0x64 ADD SWAP1 REVERT JUMPDEST PUSH1 0x1 PUSH1 0x1 PUSH1 0xA0 SHL SUB DUP2 AND PUSH2 0x673 JUMPI PUSH1 0x40 DUP1 MLOAD PUSH3 0x461BCD PUSH1 0xE5 SHL DUP2 MSTORE PUSH1 0x20 PUSH1 0x4 DUP3 ADD MSTORE PUSH1 0x1F PUSH1 0x24 DUP3 ADD MSTORE PUSH32 0x6E657720676F7665726E616E636520746865207A65726F206164647265737300 PUSH1 0x44 DUP3 ADD MSTORE SWAP1 MLOAD SWAP1 DUP2 SWAP1 SUB PUSH1 0x64 ADD SWAP1 REVERT JUMPDEST PUSH1 0x0 DUP1 SLOAD PUSH1 0x40 MLOAD PUSH1 0x1 PUSH1 0x1 PUSH1 0xA0 SHL SUB DUP1 DUP6 AND SWAP4 SWAP3 AND SWAP2 PUSH32 0x5F56BEE8CFFBE9A78652A74A60705EDEDE02AF10B0BBB888CA44B79A0D42CE80 SWAP2 LOG3 PUSH1 0x0 DUP1 SLOAD PUSH1 0x1 PUSH1 0x1 PUSH1 0xA0 SHL SUB NOT AND PUSH1 0x1 PUSH1 0x1 PUSH1 0xA0 SHL SUB SWAP3 SWAP1 SWAP3 AND SWAP2 SWAP1 SWAP2 OR SWAP1 SSTORE JUMP JUMPDEST PUSH1 0x1 PUSH1 0x1 PUSH1 0xA0 SHL SUB DUP2 AND PUSH1 0x0 SWAP1 DUP2 MSTORE PUSH1 0x1 PUSH1 0x20 MSTORE PUSH1 0x40 DUP2 KECCAK256 SLOAD PUSH4 0xFFFFFFFF AND DUP1 ISZERO PUSH2 0x724 JUMPI PUSH4 0xFFFFFFFF DUP2 AND PUSH1 0x0 SWAP1 DUP2 MSTORE PUSH1 0x5 PUSH1 0x20 MSTORE PUSH1 0x40 SWAP1 KECCAK256 PUSH1 0x1 ADD SLOAD PUSH1 0xFF AND DUP1 ISZERO PUSH2 0x722 JUMPI PUSH1 0x0 NOT ADD SWAP2 POP PUSH2 0x72A SWAP1 POP JUMP JUMPDEST POP JUMPDEST PUSH1 0x0 SWAP2 POP POP JUMPDEST SWAP2 SWAP1 POP JUMP JUMPDEST PUSH1 0x8 SLOAD PUSH1 0x1 PUSH1 0x58 SHL SWAP1 DIV PUSH4 0xFFFFFFFF AND DUP2 JUMP JUMPDEST PUSH1 0x0 SLOAD PUSH1 0x1 PUSH1 0x1 PUSH1 0xA0 SHL SUB AND CALLER EQ PUSH2 0x792 JUMPI PUSH1 0x40 DUP1 MLOAD PUSH3 0x461BCD PUSH1 0xE5 SHL DUP2 MSTORE PUSH1 0x20 PUSH1 0x4 DUP3 ADD MSTORE PUSH1 0xE PUSH1 0x24 DUP3 ADD MSTORE PUSH14 0x6E6F7420676F7665726E616E6365 PUSH1 0x90 SHL PUSH1 0x44 DUP3 ADD MSTORE SWAP1 MLOAD SWAP1 DUP2 SWAP1 SUB PUSH1 0x64 ADD SWAP1 REVERT JUMPDEST PUSH1 0x9 DUP1 SLOAD PUSH1 0x1 PUSH1 0x1 PUSH1 0xA0 SHL SUB NOT AND PUSH1 0x1 PUSH1 0x1 PUSH1 0xA0 SHL SUB SWAP3 SWAP1 SWAP3 AND SWAP2 SWAP1 SWAP2 OR SWAP1 SSTORE JUMP JUMPDEST PUSH1 0x8 SLOAD PUSH1 0x1 PUSH1 0x78 SHL SWAP1 DIV PUSH4 0xFFFFFFFF AND DUP2 JUMP JUMPDEST PUSH1 0x3 PUSH1 0x20 MSTORE PUSH1 0x0 SWAP1 DUP2 MSTORE PUSH1 0x40 SWAP1 KECCAK256 SLOAD PUSH4 0xFFFFFFFF DUP1 DUP3 AND SWAP2 PUSH1 0x1 PUSH1 0x20 SHL SWAP1 DIV AND DUP3 JUMP JUMPDEST PUSH1 0x9 SLOAD PUSH1 0x1 PUSH1 0x1 PUSH1 0xA0 SHL SUB AND CALLER EQ PUSH2 0x841 JUMPI PUSH1 0x40 DUP1 MLOAD PUSH3 0x461BCD PUSH1 0xE5 SHL DUP2 MSTORE PUSH1 0x20 PUSH1 0x4 DUP3 ADD MSTORE PUSH1 0x15 PUSH1 0x24 DUP3 ADD MSTORE PUSH21 0x696E76616C696420706F6F6C206164647265737321 PUSH1 0x58 SHL PUSH1 0x44 DUP3 ADD MSTORE SWAP1 MLOAD SWAP1 DUP2 SWAP1 SUB PUSH1 0x64 ADD SWAP1 REVERT JUMPDEST PUSH1 0x1 PUSH1 0x1 PUSH1 0xA0 SHL SUB DUP3 AND PUSH1 0x0 SWAP1 DUP2 MSTORE PUSH1 0x1 PUSH1 0x20 MSTORE PUSH1 0x40 SWAP1 KECCAK256 SLOAD PUSH4 0xFFFFFFFF AND DUP1 ISZERO PUSH2 0x8A4 JUMPI PUSH4 0xFFFFFFFF DUP1 DUP3 AND PUSH1 0x0 SWAP1 DUP2 MSTORE PUSH1 0x5 PUSH1 0x20 MSTORE PUSH1 0x40 SWAP1 KECCAK256 SLOAD PUSH2 0x889 SWAP2 DUP5 SWAP1 PUSH2 0xA3B AND JUMP JUMPDEST PUSH4 0xFFFFFFFF DUP3 AND PUSH1 0x0 SWAP1 DUP2 MSTORE PUSH1 0x5 PUSH1 0x20 MSTORE PUSH1 0x40 SWAP1 KECCAK256 SSTORE PUSH2 0x8AA JUMP JUMPDEST POP PUSH2 0x8B5 JUMP JUMPDEST PUSH2 0x8B3 DUP2 PUSH2 0xA84 JUMP JUMPDEST POP JUMPDEST POP POP JUMP JUMPDEST PUSH1 0x9 SLOAD PUSH1 0x1 PUSH1 0x1 PUSH1 0xA0 SHL SUB AND CALLER EQ PUSH2 0x910 JUMPI PUSH1 0x40 DUP1 MLOAD PUSH3 0x461BCD PUSH1 0xE5 SHL DUP2 MSTORE PUSH1 0x20 PUSH1 0x4 DUP3 ADD MSTORE PUSH1 0x15 PUSH1 0x24 DUP3 ADD MSTORE PUSH21 0x696E76616C696420706F6F6C206164647265737321 PUSH1 0x58 SHL PUSH1 0x44 DUP3 ADD MSTORE SWAP1 MLOAD SWAP1 DUP2 SWAP1 SUB PUSH1 0x64 ADD SWAP1 REVERT JUMPDEST PUSH1 0x1 PUSH1 0x1 PUSH1 0xA0 SHL SUB DUP3 AND PUSH1 0x0 SWAP1 DUP2 MSTORE PUSH1 0x1 PUSH1 0x20 MSTORE PUSH1 0x40 SWAP1 KECCAK256 SLOAD PUSH4 0xFFFFFFFF AND DUP1 ISZERO PUSH2 0x958 JUMPI PUSH4 0xFFFFFFFF DUP1 DUP3 AND PUSH1 0x0 SWAP1 DUP2 MSTORE PUSH1 0x5 PUSH1 0x20 MSTORE PUSH1 0x40 SWAP1 KECCAK256 SLOAD PUSH2 0x889 SWAP2 DUP5 SWAP1 PUSH2 0xB7B AND JUMP JUMPDEST POP PUSH1 0x8 DUP1 SLOAD PUSH7 0xFFFFFFFF000000 NOT DUP2 AND PUSH4 0x1000000 SWAP2 DUP3 SWAP1 DIV PUSH4 0xFFFFFFFF SWAP1 DUP2 AND PUSH1 0x1 SWAP1 DUP2 ADD DUP3 AND DUP5 MUL SWAP3 SWAP1 SWAP3 OR DUP1 DUP6 SSTORE PUSH1 0x1 PUSH1 0x1 PUSH1 0xA0 SHL SUB DUP8 AND PUSH1 0x0 DUP2 DUP2 MSTORE PUSH1 0x20 DUP6 DUP2 MSTORE PUSH1 0x40 DUP1 DUP4 KECCAK256 DUP1 SLOAD SWAP6 DUP10 SWAP1 DIV DUP8 AND PUSH4 0xFFFFFFFF NOT SWAP1 SWAP7 AND SWAP6 SWAP1 SWAP6 OR SWAP1 SWAP5 SSTORE SWAP7 SLOAD SWAP6 SWAP1 SWAP6 DIV SWAP1 SWAP3 AND DUP1 DUP6 MSTORE PUSH1 0x5 SWAP1 SWAP6 MSTORE DUP4 KECCAK256 DUP1 DUP4 ADD DUP1 SLOAD SWAP2 DUP8 SWAP1 SSTORE PUSH5 0xFFFFFFFF00 NOT SWAP1 SWAP2 AND PUSH2 0x100 DUP7 MUL OR PUSH9 0xFFFFFFFF00000000FF NOT AND SWAP1 SSTORE PUSH1 0x6 DUP1 SLOAD SWAP3 DUP4 ADD DUP2 SSTORE SWAP1 SWAP3 MSTORE PUSH32 0xF652222313E28459528D920B65115C16C04F3EFC82AAEDC97BE59F3F377C0D3F ADD DUP1 SLOAD PUSH1 0x1 PUSH1 0x1 PUSH1 0xA0 SHL SUB NOT AND SWAP1 SWAP2 OR SWAP1 SSTORE PUSH2 0x8AA PUSH2 0xBD5 JUMP JUMPDEST PUSH1 0x0 PUSH2 0xA7D DUP4 DUP4 PUSH1 0x40 MLOAD DUP1 PUSH1 0x40 ADD PUSH1 0x40 MSTORE DUP1 PUSH1 0x1E DUP2 MSTORE PUSH1 0x20 ADD PUSH32 0x536166654D6174683A207375627472616374696F6E206F766572666C6F770000 DUP2 MSTORE POP PUSH2 0xD6C JUMP JUMPDEST SWAP4 SWAP3 POP POP POP JUMP JUMPDEST PUSH4 0xFFFFFFFF DUP2 AND PUSH1 0x0 SWAP1 DUP2 MSTORE PUSH1 0x5 PUSH1 0x20 MSTORE PUSH1 0x40 DUP2 KECCAK256 SLOAD SWAP1 PUSH1 0x1 JUMPDEST PUSH1 0x8 SLOAD PUSH1 0xFF SWAP1 DUP2 AND SWAP1 DUP3 AND GT PUSH2 0xADB JUMPI PUSH1 0xFF DUP2 AND PUSH1 0x0 SWAP1 DUP2 MSTORE PUSH1 0x2 PUSH1 0x20 MSTORE PUSH1 0x40 SWAP1 KECCAK256 PUSH1 0x1 ADD SLOAD DUP4 LT ISZERO PUSH2 0xAD3 JUMPI DUP1 SWAP2 POP PUSH2 0xADB JUMP JUMPDEST PUSH1 0x1 ADD PUSH2 0xA9E JUMP JUMPDEST POP PUSH1 0xFF DUP2 AND PUSH2 0xB06 JUMPI POP PUSH1 0x8 DUP1 SLOAD PUSH1 0xFF SWAP1 DUP2 AND PUSH1 0x0 SWAP1 DUP2 MSTORE PUSH1 0x2 PUSH1 0x20 MSTORE PUSH1 0x40 SWAP1 KECCAK256 PUSH1 0x1 ADD DUP4 SWAP1 SSTORE SWAP1 SLOAD AND JUMPDEST PUSH4 0xFFFFFFFF DUP4 AND PUSH1 0x0 SWAP1 DUP2 MSTORE PUSH1 0x5 PUSH1 0x20 MSTORE PUSH1 0x40 SWAP1 KECCAK256 PUSH1 0x1 ADD SLOAD PUSH1 0xFF DUP3 DUP2 AND SWAP2 AND EQ ISZERO PUSH2 0xB33 JUMPI POP POP PUSH2 0xB78 JUMP JUMPDEST PUSH1 0x8 SLOAD PUSH1 0xFF DUP3 DUP2 AND SWAP2 AND EQ ISZERO PUSH2 0xB51 JUMPI PUSH2 0xB4C DUP4 PUSH2 0xE03 JUMP JUMPDEST PUSH2 0x8B3 JUMP JUMPDEST PUSH1 0x8 SLOAD PUSH1 0xFF DUP3 DUP2 AND PUSH2 0x100 SWAP1 SWAP3 DIV AND EQ ISZERO PUSH2 0xB6F JUMPI PUSH2 0xB4C DUP4 PUSH2 0xE46 JUMP JUMPDEST PUSH2 0x8B3 DUP4 PUSH2 0xEB6 JUMP JUMPDEST POP JUMP JUMPDEST PUSH1 0x0 DUP3 DUP3 ADD DUP4 DUP2 LT ISZERO PUSH2 0xA7D JUMPI PUSH1 0x40 DUP1 MLOAD PUSH3 0x461BCD PUSH1 0xE5 SHL DUP2 MSTORE PUSH1 0x20 PUSH1 0x4 DUP3 ADD MSTORE PUSH1 0x1B PUSH1 0x24 DUP3 ADD MSTORE PUSH32 0x536166654D6174683A206164646974696F6E206F766572666C6F770000000000 PUSH1 0x44 DUP3 ADD MSTORE SWAP1 MLOAD SWAP1 DUP2 SWAP1 SUB PUSH1 0x64 ADD SWAP1 REVERT JUMPDEST PUSH1 0x8 SLOAD PUSH1 0x1 PUSH1 0x78 SHL DUP2 DIV PUSH4 0xFFFFFFFF SWAP1 DUP2 AND PUSH1 0x1 PUSH1 0x58 SHL DUP4 DIV DUP3 AND ADD DUP2 AND PUSH4 0x1000000 SWAP1 SWAP3 DIV AND LT PUSH2 0xD6A JUMPI PUSH1 0x8 SLOAD PUSH1 0xFF DUP2 AND PUSH1 0x0 SWAP1 DUP2 MSTORE PUSH1 0x3 PUSH1 0x20 MSTORE PUSH1 0x40 SWAP1 KECCAK256 SLOAD PUSH1 0x32 PUSH4 0xFFFFFFFF SWAP2 DUP3 AND PUSH1 0x1 PUSH1 0x98 SHL SWAP1 SWAP4 DIV DUP3 AND SWAP3 SWAP1 SWAP3 ADD AND GT ISZERO PUSH2 0xC5D JUMPI PUSH1 0x8 SLOAD PUSH1 0xFF AND PUSH1 0x0 SWAP1 DUP2 MSTORE PUSH1 0x3 PUSH1 0x20 MSTORE PUSH1 0x40 SWAP1 KECCAK256 DUP1 SLOAD PUSH4 0xFFFFFFFF NOT AND PUSH1 0x32 OR SWAP1 SSTORE PUSH2 0xC9B JUMP JUMPDEST PUSH1 0x8 SLOAD PUSH1 0xFF DUP2 AND PUSH1 0x0 SWAP1 DUP2 MSTORE PUSH1 0x3 PUSH1 0x20 MSTORE PUSH1 0x40 SWAP1 KECCAK256 DUP1 SLOAD PUSH4 0xFFFFFFFF NOT DUP2 AND PUSH1 0x1 PUSH1 0x98 SHL SWAP1 SWAP4 DIV PUSH4 0xFFFFFFFF SWAP1 DUP2 AND SWAP2 DUP2 AND SWAP2 SWAP1 SWAP2 ADD AND SWAP2 SWAP1 SWAP2 OR SWAP1 SSTORE JUMPDEST PUSH1 0x8 SLOAD PUSH1 0xFF PUSH2 0x100 DUP3 DIV AND PUSH1 0x0 SWAP1 DUP2 MSTORE PUSH1 0x3 PUSH1 0x20 MSTORE PUSH1 0x40 SWAP1 KECCAK256 SLOAD PUSH1 0x32 PUSH4 0xFFFFFFFF SWAP2 DUP3 AND PUSH1 0x1 PUSH1 0x98 SHL SWAP1 SWAP4 DIV DUP3 AND SWAP3 SWAP1 SWAP3 ADD AND GT ISZERO PUSH2 0xD01 JUMPI PUSH1 0x8 SLOAD PUSH1 0xFF PUSH2 0x100 SWAP1 SWAP2 DIV AND PUSH1 0x0 SWAP1 DUP2 MSTORE PUSH1 0x3 PUSH1 0x20 MSTORE PUSH1 0x40 SWAP1 KECCAK256 DUP1 SLOAD PUSH4 0xFFFFFFFF NOT AND PUSH1 0x32 OR SWAP1 SSTORE PUSH2 0xD43 JUMP JUMPDEST PUSH1 0x8 SLOAD PUSH2 0x100 DUP2 DIV PUSH1 0xFF AND PUSH1 0x0 SWAP1 DUP2 MSTORE PUSH1 0x3 PUSH1 0x20 MSTORE PUSH1 0x40 SWAP1 KECCAK256 DUP1 SLOAD PUSH4 0xFFFFFFFF NOT DUP2 AND PUSH1 0x1 PUSH1 0x98 SHL SWAP1 SWAP4 DIV PUSH4 0xFFFFFFFF SWAP1 DUP2 AND SWAP2 DUP2 AND SWAP2 SWAP1 SWAP2 ADD AND SWAP2 SWAP1 SWAP2 OR SWAP1 SSTORE JUMPDEST PUSH1 0x8 DUP1 SLOAD PUSH1 0x1 PUSH1 0x58 SHL PUSH4 0xFFFFFFFF PUSH4 0x1000000 DUP4 DIV AND MUL PUSH4 0xFFFFFFFF PUSH1 0x58 SHL NOT SWAP1 SWAP2 AND OR SWAP1 SSTORE JUMPDEST JUMP JUMPDEST PUSH1 0x0 DUP2 DUP5 DUP5 GT ISZERO PUSH2 0xDFB JUMPI PUSH1 0x40 MLOAD PUSH3 0x461BCD PUSH1 0xE5 SHL DUP2 MSTORE PUSH1 0x4 ADD DUP1 DUP1 PUSH1 0x20 ADD DUP3 DUP2 SUB DUP3 MSTORE DUP4 DUP2 DUP2 MLOAD DUP2 MSTORE PUSH1 0x20 ADD SWAP2 POP DUP1 MLOAD SWAP1 PUSH1 0x20 ADD SWAP1 DUP1 DUP4 DUP4 PUSH1 0x0 JUMPDEST DUP4 DUP2 LT ISZERO PUSH2 0xDC0 JUMPI DUP2 DUP2 ADD MLOAD DUP4 DUP3 ADD MSTORE PUSH1 0x20 ADD PUSH2 0xDA8 JUMP JUMPDEST POP POP POP POP SWAP1 POP SWAP1 DUP2 ADD SWAP1 PUSH1 0x1F AND DUP1 ISZERO PUSH2 0xDED JUMPI DUP1 DUP3 SUB DUP1 MLOAD PUSH1 0x1 DUP4 PUSH1 0x20 SUB PUSH2 0x100 EXP SUB NOT AND DUP2 MSTORE PUSH1 0x20 ADD SWAP2 POP JUMPDEST POP SWAP3 POP POP POP PUSH1 0x40 MLOAD DUP1 SWAP2 SUB SWAP1 REVERT JUMPDEST POP POP POP SWAP1 SUB SWAP1 JUMP JUMPDEST PUSH1 0x8 SLOAD PUSH1 0xFF AND PUSH2 0xE12 DUP2 PUSH2 0xF44 JUMP JUMPDEST ISZERO PUSH2 0xE26 JUMPI PUSH2 0xE21 DUP3 DUP3 PUSH2 0xF88 JUMP JUMPDEST PUSH2 0x8B5 JUMP JUMPDEST PUSH1 0x0 PUSH2 0xE31 DUP3 PUSH2 0x118F JUMP JUMPDEST SWAP1 POP PUSH2 0xE3C DUP2 PUSH2 0xE46 JUMP JUMPDEST PUSH2 0x8B3 DUP4 DUP4 PUSH2 0xF88 JUMP JUMPDEST PUSH1 0x8 SLOAD PUSH2 0x100 SWAP1 DIV PUSH1 0xFF AND PUSH2 0xE5A DUP2 PUSH2 0xF44 JUMP JUMPDEST ISZERO PUSH2 0xE6E JUMPI PUSH2 0xE69 DUP3 DUP3 PUSH2 0xF88 JUMP JUMPDEST PUSH2 0xE90 JUMP JUMPDEST PUSH1 0x0 PUSH2 0xE79 DUP3 PUSH2 0x118F JUMP JUMPDEST SWAP1 POP PUSH2 0xE84 DUP2 PUSH2 0xEB6 JUMP JUMPDEST PUSH2 0xE8E DUP4 DUP4 PUSH2 0xF88 JUMP JUMPDEST POP JUMPDEST PUSH1 0x1 DUP2 DUP2 ADD PUSH1 0xFF SWAP1 DUP2 AND PUSH1 0x0 SWAP1 DUP2 MSTORE PUSH1 0x2 PUSH1 0x20 MSTORE PUSH1 0x40 DUP1 DUP3 KECCAK256 SLOAD SWAP5 SWAP1 SWAP3 AND DUP2 MSTORE KECCAK256 ADD SSTORE POP JUMP JUMPDEST PUSH1 0x8 SLOAD PUSH3 0x10000 SWAP1 DIV PUSH1 0xFF AND PUSH2 0xECC DUP3 DUP3 PUSH2 0xF88 JUMP JUMPDEST PUSH1 0xFF PUSH1 0x1 DUP1 DUP4 ADD DUP3 AND PUSH1 0x0 SWAP1 DUP2 MSTORE PUSH1 0x2 PUSH1 0x20 SWAP1 DUP2 MSTORE PUSH1 0x40 DUP1 DUP4 KECCAK256 SLOAD SWAP5 DUP7 AND DUP4 MSTORE DUP1 DUP4 KECCAK256 SWAP1 SWAP4 ADD SWAP4 SWAP1 SWAP4 SSTORE PUSH1 0x3 SWAP1 SWAP3 MSTORE SWAP1 KECCAK256 SLOAD PUSH4 0xFFFFFFFF DUP1 DUP3 AND PUSH1 0x1 PUSH1 0x20 SHL SWAP1 SWAP3 DIV AND GT ISZERO PUSH2 0x8B5 JUMPI PUSH1 0xFF AND PUSH1 0x0 SWAP1 DUP2 MSTORE PUSH1 0x3 PUSH1 0x20 MSTORE PUSH1 0x40 SWAP1 KECCAK256 DUP1 SLOAD PUSH1 0x1 PUSH1 0x20 SHL DUP2 DIV PUSH4 0xFFFFFFFF AND PUSH4 0xFFFFFFFF NOT SWAP1 SWAP2 AND OR SWAP1 SSTORE POP JUMP JUMPDEST PUSH1 0xFF DUP2 AND PUSH1 0x0 SWAP1 DUP2 MSTORE PUSH1 0x3 PUSH1 0x20 MSTORE PUSH1 0x40 DUP2 KECCAK256 SLOAD PUSH4 0xFFFFFFFF PUSH1 0x1 PUSH1 0x20 SHL DUP3 DIV DUP2 AND SWAP2 DUP2 AND SWAP2 SWAP1 SWAP2 SUB SWAP1 DUP2 AND ISZERO PUSH2 0xF7E JUMPI PUSH1 0x1 SWAP2 POP POP PUSH2 0x72A JUMP JUMPDEST PUSH1 0x0 SWAP2 POP POP PUSH2 0x72A JUMP JUMPDEST PUSH4 0xFFFFFFFF DUP1 DUP4 AND PUSH1 0x0 DUP2 DUP2 MSTORE PUSH1 0x5 PUSH1 0x20 SWAP1 DUP2 MSTORE PUSH1 0x40 DUP1 DUP4 KECCAK256 PUSH1 0x1 SWAP1 DUP2 ADD DUP1 SLOAD PUSH1 0xFF DUP10 DUP2 AND DUP1 DUP9 MSTORE PUSH1 0x3 DUP8 MSTORE DUP6 DUP9 KECCAK256 DUP1 SLOAD PUSH1 0x1 PUSH1 0x20 SHL SWAP1 DUP2 SWAP1 DIV DUP13 AND PUSH1 0x1 PUSH1 0x28 SHL DUP2 DUP2 MUL PUSH9 0xFFFFFFFF0000000000 NOT PUSH1 0xFF NOT DUP10 AND DUP8 OR AND OR SWAP1 SWAP8 SSTORE SWAP3 DUP11 MSTORE DUP2 SLOAD DUP2 DUP2 DIV DUP14 AND SWAP1 SWAP8 ADD DUP13 AND MUL PUSH8 0xFFFFFFFF00000000 NOT SWAP1 SWAP7 AND SWAP6 SWAP1 SWAP6 OR SWAP1 SWAP5 SSTORE PUSH1 0x4 DUP7 MSTORE DUP5 DUP8 KECCAK256 DUP5 DUP9 MSTORE SWAP1 SWAP6 MSTORE SWAP3 SWAP1 SWAP5 KECCAK256 DUP1 SLOAD PUSH4 0xFFFFFFFF NOT AND SWAP1 SWAP6 OR SWAP1 SWAP5 SSTORE SWAP1 DUP2 AND SWAP4 SWAP2 SWAP1 DIV AND SWAP1 DUP3 ISZERO DUP1 ISZERO SWAP1 PUSH2 0x1045 JUMPI POP DUP3 PUSH1 0xFF AND DUP5 PUSH1 0xFF AND EQ ISZERO JUMPDEST DUP1 ISZERO PUSH2 0x1075 JUMPI POP PUSH1 0xFF DUP4 AND PUSH1 0x0 SWAP1 DUP2 MSTORE PUSH1 0x4 PUSH1 0x20 SWAP1 DUP2 MSTORE PUSH1 0x40 DUP1 DUP4 KECCAK256 PUSH4 0xFFFFFFFF DUP1 DUP8 AND DUP6 MSTORE SWAP3 MSTORE SWAP1 SWAP2 KECCAK256 SLOAD AND ISZERO ISZERO JUMPDEST ISZERO PUSH2 0x1188 JUMPI PUSH1 0xFF DUP4 AND PUSH1 0x0 SWAP1 DUP2 MSTORE PUSH1 0x3 PUSH1 0x20 SWAP1 DUP2 MSTORE PUSH1 0x40 DUP1 DUP4 KECCAK256 SLOAD PUSH1 0x4 DUP4 MSTORE DUP2 DUP5 KECCAK256 PUSH1 0x0 NOT PUSH4 0xFFFFFFFF PUSH1 0x1 PUSH1 0x20 SHL SWAP1 SWAP4 DIV DUP4 AND ADD DUP1 DUP4 AND DUP7 MSTORE SWAP4 MSTORE SWAP3 KECCAK256 SLOAD SWAP1 SWAP2 SWAP1 DUP2 AND SWAP1 DUP8 AND DUP2 EQ PUSH2 0x1128 JUMPI PUSH4 0xFFFFFFFF DUP2 DUP2 AND PUSH1 0x0 DUP2 DUP2 MSTORE PUSH1 0x5 PUSH1 0x20 SWAP1 DUP2 MSTORE PUSH1 0x40 DUP1 DUP4 KECCAK256 PUSH1 0x1 ADD DUP1 SLOAD PUSH1 0xFF NOT AND PUSH1 0xFF DUP13 AND SWAP1 DUP2 OR PUSH9 0xFFFFFFFF0000000000 NOT AND PUSH1 0x1 PUSH1 0x28 SHL SWAP8 DUP13 AND SWAP8 DUP9 MUL OR SWAP1 SWAP2 SSTORE DUP4 MSTORE PUSH1 0x4 DUP3 MSTORE DUP1 DUP4 KECCAK256 SWAP5 DUP4 MSTORE SWAP4 SWAP1 MSTORE SWAP2 SWAP1 SWAP2 KECCAK256 DUP1 SLOAD PUSH4 0xFFFFFFFF NOT AND SWAP1 SWAP2 OR SWAP1 SSTORE JUMPDEST POP PUSH1 0xFF DUP5 AND PUSH1 0x0 DUP2 DUP2 MSTORE PUSH1 0x4 PUSH1 0x20 SWAP1 DUP2 MSTORE PUSH1 0x40 DUP1 DUP4 KECCAK256 PUSH4 0xFFFFFFFF SWAP6 DUP7 AND DUP5 MSTORE DUP3 MSTORE DUP1 DUP4 KECCAK256 DUP1 SLOAD PUSH4 0xFFFFFFFF NOT AND SWAP1 SSTORE SWAP3 DUP3 MSTORE PUSH1 0x3 SWAP1 MSTORE KECCAK256 DUP1 SLOAD PUSH8 0xFFFFFFFF00000000 NOT DUP2 AND PUSH1 0x1 PUSH1 0x20 SHL SWAP2 DUP3 SWAP1 DIV DUP5 AND PUSH1 0x0 NOT ADD SWAP1 SWAP4 AND MUL SWAP2 SWAP1 SWAP2 OR SWAP1 SSTORE JUMPDEST POP POP POP POP POP JUMP JUMPDEST PUSH1 0x0 DUP1 PUSH1 0x0 PUSH2 0x119D DUP5 PUSH2 0x123A JUMP JUMPDEST PUSH1 0xFF SWAP6 SWAP1 SWAP6 AND PUSH1 0x0 DUP2 DUP2 MSTORE PUSH1 0x2 PUSH1 0x20 SWAP1 DUP2 MSTORE PUSH1 0x40 DUP1 DUP4 KECCAK256 SWAP9 SWAP1 SWAP9 SSTORE PUSH1 0x4 DUP2 MSTORE DUP8 DUP3 KECCAK256 PUSH4 0xFFFFFFFF SWAP5 DUP6 AND DUP1 DUP5 MSTORE DUP2 DUP4 MSTORE DUP10 DUP5 KECCAK256 DUP1 SLOAD SWAP6 DUP6 MSTORE PUSH1 0x3 DUP5 MSTORE DUP11 DUP6 KECCAK256 SLOAD PUSH1 0x1 PUSH1 0x20 SHL SWAP1 DIV DUP8 AND PUSH1 0x0 NOT ADD DUP8 AND DUP6 MSTORE SWAP2 DUP4 MSTORE DUP10 DUP5 KECCAK256 SLOAD DUP7 AND PUSH4 0xFFFFFFFF NOT DUP7 AND DUP2 OR SWAP1 SWAP3 SSTORE SWAP1 DUP4 MSTORE PUSH1 0x5 SWAP1 SWAP2 MSTORE SWAP7 SWAP1 KECCAK256 PUSH1 0x1 ADD DUP1 SLOAD PUSH9 0xFFFFFFFF0000000000 NOT AND PUSH1 0x1 PUSH1 0x28 SHL SWAP1 SWAP8 MUL SWAP7 SWAP1 SWAP7 OR SWAP1 SWAP6 SSTORE SWAP4 SWAP1 SWAP4 AND SWAP4 SWAP3 POP POP POP JUMP JUMPDEST PUSH1 0xFF DUP2 AND PUSH1 0x0 SWAP1 DUP2 MSTORE PUSH1 0x2 PUSH1 0x20 MSTORE PUSH1 0x40 DUP2 KECCAK256 PUSH1 0x1 ADD SLOAD DUP2 SWAP1 DUP1 DUP3 DUP1 JUMPDEST PUSH1 0xFF DUP8 DUP2 AND PUSH1 0x0 SWAP1 DUP2 MSTORE PUSH1 0x3 PUSH1 0x20 MSTORE PUSH1 0x40 SWAP1 KECCAK256 SLOAD PUSH1 0x1 PUSH1 0x20 SHL SWAP1 DIV PUSH4 0xFFFFFFFF AND SWAP1 DUP3 AND LT ISZERO PUSH2 0x1300 JUMPI PUSH1 0xFF DUP1 DUP9 AND PUSH1 0x0 SWAP1 DUP2 MSTORE PUSH1 0x4 PUSH1 0x20 SWAP1 DUP2 MSTORE PUSH1 0x40 DUP1 DUP4 KECCAK256 SWAP4 DUP6 AND DUP4 MSTORE SWAP3 SWAP1 MSTORE KECCAK256 SLOAD PUSH4 0xFFFFFFFF AND DUP1 PUSH2 0x12B1 JUMPI POP PUSH2 0x12F8 JUMP JUMPDEST PUSH4 0xFFFFFFFF DUP2 AND PUSH1 0x0 SWAP1 DUP2 MSTORE PUSH1 0x5 PUSH1 0x20 MSTORE PUSH1 0x40 SWAP1 KECCAK256 SLOAD DUP6 DUP2 LT ISZERO PUSH2 0x12E9 JUMPI DUP5 DUP7 LT ISZERO PUSH2 0x12DB JUMPI DUP6 SWAP5 POP JUMPDEST DUP1 SWAP6 POP DUP3 PUSH1 0xFF AND SWAP4 POP PUSH2 0x12F5 JUMP JUMPDEST DUP5 DUP2 LT ISZERO PUSH2 0x12F5 JUMPI DUP1 SWAP5 POP JUMPDEST POP POP JUMPDEST PUSH1 0x1 ADD PUSH2 0x1256 JUMP JUMPDEST POP SWAP4 POP SWAP2 POP POP SWAP2 POP SWAP2 JUMP INVALID LOG2 PUSH5 0x6970667358 0x22 SLT KECCAK256 0xB6 LOG1 0xD0 0x27 0x4C JUMPDEST 0xCE SLOAD DUP4 0x2F 0xC9 0xF7 DUP16 0xCB PUSH14 0xB6DD4738F600C834465772FF2266 0xD0 0xF7 0xCE PUSH5 0x736F6C6343 STOP MOD 0xC STOP CALLER "
    }
  },
  "interface": [
    {
      "inputs": [],
      "stateMutability": "nonpayable",
      "type": "constructor"
    },
    {
      "anonymous": false,
      "inputs": [
        {
          "indexed": true,
          "internalType": "address",
          "name": "previousOwner",
          "type": "address"
        },
        {
          "indexed": true,
          "internalType": "address",
          "name": "newOwner",
          "type": "address"
        }
      ],
      "name": "GovernanceTransferred",
      "type": "event"
    },
    {
      "inputs": [
        {
          "internalType": "uint256",
          "name": "",
          "type": "uint256"
        }
      ],
      "name": "_addressUser",
      "outputs": [
        {
          "internalType": "address",
          "name": "",
          "type": "address"
        }
      ],
      "stateMutability": "view",
      "type": "function"
    },
    {
      "inputs": [
        {
          "internalType": "address",
          "name": "",
          "type": "address"
        }
      ],
      "name": "_addressXId",
      "outputs": [
        {
          "internalType": "uint32",
          "name": "",
          "type": "uint32"
        }
      ],
      "stateMutability": "view",
      "type": "function"
    },
    {
      "inputs": [],
      "name": "_alpha",
      "outputs": [
        {
          "internalType": "uint8",
          "name": "",
          "type": "uint8"
        }
      ],
      "stateMutability": "view",
      "type": "function"
    },
    {
      "inputs": [],
      "name": "_anchor",
      "outputs": [
        {
          "internalType": "uint32",
          "name": "",
          "type": "uint32"
        }
      ],
      "stateMutability": "view",
      "type": "function"
    },
    {
      "inputs": [],
      "name": "_base",
      "outputs": [
        {
          "internalType": "uint32",
          "name": "",
          "type": "uint32"
        }
      ],
      "stateMutability": "view",
      "type": "function"
    },
    {
      "inputs": [],
      "name": "_beta",
      "outputs": [
        {
          "internalType": "uint8",
          "name": "",
          "type": "uint8"
        }
      ],
      "stateMutability": "view",
      "type": "function"
    },
    {
      "inputs": [],
      "name": "_betaMax",
      "outputs": [
        {
          "internalType": "uint32",
          "name": "",
          "type": "uint32"
        }
      ],
      "stateMutability": "view",
      "type": "function"
    },
    {
      "inputs": [],
      "name": "_contractCaller",
      "outputs": [
        {
          "internalType": "address",
          "name": "",
          "type": "address"
        }
      ],
      "stateMutability": "view",
      "type": "function"
    },
    {
      "inputs": [
        {
          "internalType": "uint8",
          "name": "",
          "type": "uint8"
        }
      ],
      "name": "_countRanking",
      "outputs": [
        {
          "internalType": "uint32",
          "name": "length",
          "type": "uint32"
        },
        {
          "internalType": "uint32",
          "name": "curCount",
          "type": "uint32"
        }
      ],
      "stateMutability": "view",
      "type": "function"
    },
    {
      "inputs": [],
      "name": "_gamma",
      "outputs": [
        {
          "internalType": "uint8",
          "name": "",
          "type": "uint8"
        }
      ],
      "stateMutability": "view",
      "type": "function"
    },
    {
      "inputs": [],
      "name": "_gammaMax",
      "outputs": [
        {
          "internalType": "uint32",
          "name": "",
          "type": "uint32"
        }
      ],
      "stateMutability": "view",
      "type": "function"
    },
    {
      "inputs": [],
      "name": "_governance",
      "outputs": [
        {
          "internalType": "address",
          "name": "",
          "type": "address"
        }
      ],
      "stateMutability": "view",
      "type": "function"
    },
    {
      "inputs": [],
      "name": "_grouthCondition",
      "outputs": [
        {
          "internalType": "uint32",
          "name": "",
          "type": "uint32"
        }
      ],
      "stateMutability": "view",
      "type": "function"
    },
    {
      "inputs": [],
      "name": "_grouthStep",
      "outputs": [
        {
          "internalType": "uint32",
          "name": "",
          "type": "uint32"
        }
      ],
      "stateMutability": "view",
      "type": "function"
    },
    {
      "inputs": [],
      "name": "_initMaxValue",
      "outputs": [
        {
          "internalType": "uint256",
          "name": "",
          "type": "uint256"
        }
      ],
      "stateMutability": "view",
      "type": "function"
    },
    {
      "inputs": [
        {
          "internalType": "uint8",
          "name": "",
          "type": "uint8"
        }
      ],
      "name": "_nullRanking",
      "outputs": [
        {
          "internalType": "uint256",
          "name": "min",
          "type": "uint256"
        },
        {
          "internalType": "uint256",
          "name": "max",
          "type": "uint256"
        }
      ],
      "stateMutability": "view",
      "type": "function"
    },
    {
      "inputs": [],
      "name": "_playerId",
      "outputs": [
        {
          "internalType": "uint32",
          "name": "",
          "type": "uint32"
        }
      ],
      "stateMutability": "view",
      "type": "function"
    },
    {
      "inputs": [
        {
          "internalType": "uint8",
          "name": "",
          "type": "uint8"
        },
        {
          "internalType": "uint32",
          "name": "",
          "type": "uint32"
        }
      ],
      "name": "_playerIds",
      "outputs": [
        {
          "internalType": "uint32",
          "name": "",
          "type": "uint32"
        }
      ],
      "stateMutability": "view",
      "type": "function"
    },
    {
      "inputs": [
        {
          "internalType": "uint32",
          "name": "",
          "type": "uint32"
        }
      ],
      "name": "_playerMap",
      "outputs": [
        {
          "internalType": "uint256",
          "name": "amount",
          "type": "uint256"
        },
        {
          "internalType": "uint8",
          "name": "rankingIndex",
          "type": "uint8"
        },
        {
          "internalType": "uint32",
          "name": "playerId",
          "type": "uint32"
        },
        {
          "internalType": "uint32",
          "name": "class",
          "type": "uint32"
        }
      ],
      "stateMutability": "view",
      "type": "function"
    },
    {
      "inputs": [
        {
          "internalType": "uint256",
          "name": "",
          "type": "uint256"
        }
      ],
      "name": "_ruler",
      "outputs": [
        {
          "internalType": "uint8",
          "name": "",
          "type": "uint8"
        }
      ],
      "stateMutability": "view",
      "type": "function"
    },
    {
      "inputs": [
        {
          "internalType": "address",
          "name": "sender",
          "type": "address"
        }
      ],
      "name": "getRule",
      "outputs": [
        {
          "internalType": "uint8",
          "name": "",
          "type": "uint8"
        }
      ],
      "stateMutability": "view",
      "type": "function"
    },
    {
      "inputs": [
        {
          "internalType": "address",
          "name": "sender",
          "type": "address"
        },
        {
          "internalType": "uint256",
          "name": "amount",
          "type": "uint256"
        }
      ],
      "name": "lpIn",
      "outputs": [],
      "stateMutability": "nonpayable",
      "type": "function"
    },
    {
      "inputs": [
        {
          "internalType": "address",
          "name": "sender",
          "type": "address"
        },
        {
          "internalType": "uint256",
          "name": "amount",
          "type": "uint256"
        }
      ],
      "name": "lpOut",
      "outputs": [],
      "stateMutability": "nonpayable",
      "type": "function"
    },
    {
      "inputs": [
        {
          "internalType": "address",
          "name": "caller",
          "type": "address"
        }
      ],
      "name": "setCaller",
      "outputs": [],
      "stateMutability": "nonpayable",
      "type": "function"
    },
    {
      "inputs": [
        {
          "internalType": "address",
          "name": "governance",
          "type": "address"
        }
      ],
      "name": "setGovernance",
      "outputs": [],
      "stateMutability": "nonpayable",
      "type": "function"
    }
  ]
}